{
	"contracts/Zero2HeroWeek2StakingRewards.sol": {
		"Zero2HeroWeek2StakingRewards": {
			"abi": [
				{
					"inputs": [
						{
							"internalType": "address",
							"name": "_rewardsDistribution",
							"type": "address"
						},
						{
							"internalType": "address",
							"name": "_rewardsToken",
							"type": "address"
						},
						{
							"internalType": "address",
							"name": "_stakingToken",
							"type": "address"
						}
					],
					"stateMutability": "nonpayable",
					"type": "constructor"
				},
				{
					"anonymous": false,
					"inputs": [
						{
							"indexed": true,
							"internalType": "address",
							"name": "previousOwner",
							"type": "address"
						},
						{
							"indexed": true,
							"internalType": "address",
							"name": "newOwner",
							"type": "address"
						}
					],
					"name": "OwnershipTransferred",
					"type": "event"
				},
				{
					"anonymous": false,
					"inputs": [
						{
							"indexed": false,
							"internalType": "bool",
							"name": "isPaused",
							"type": "bool"
						}
					],
					"name": "PauseChanged",
					"type": "event"
				},
				{
					"anonymous": false,
					"inputs": [
						{
							"indexed": false,
							"internalType": "address",
							"name": "token",
							"type": "address"
						},
						{
							"indexed": false,
							"internalType": "uint256",
							"name": "amount",
							"type": "uint256"
						}
					],
					"name": "Recovered",
					"type": "event"
				},
				{
					"anonymous": false,
					"inputs": [
						{
							"indexed": false,
							"internalType": "uint256",
							"name": "reward",
							"type": "uint256"
						}
					],
					"name": "RewardAdded",
					"type": "event"
				},
				{
					"anonymous": false,
					"inputs": [
						{
							"indexed": true,
							"internalType": "address",
							"name": "user",
							"type": "address"
						},
						{
							"indexed": false,
							"internalType": "uint256",
							"name": "reward",
							"type": "uint256"
						}
					],
					"name": "RewardPaid",
					"type": "event"
				},
				{
					"anonymous": false,
					"inputs": [
						{
							"indexed": false,
							"internalType": "uint256",
							"name": "newDuration",
							"type": "uint256"
						}
					],
					"name": "RewardsDurationUpdated",
					"type": "event"
				},
				{
					"anonymous": false,
					"inputs": [
						{
							"indexed": true,
							"internalType": "address",
							"name": "user",
							"type": "address"
						},
						{
							"indexed": false,
							"internalType": "uint256",
							"name": "amount",
							"type": "uint256"
						}
					],
					"name": "Staked",
					"type": "event"
				},
				{
					"anonymous": false,
					"inputs": [
						{
							"indexed": true,
							"internalType": "address",
							"name": "user",
							"type": "address"
						},
						{
							"indexed": false,
							"internalType": "uint256",
							"name": "amount",
							"type": "uint256"
						}
					],
					"name": "Withdrawn",
					"type": "event"
				},
				{
					"inputs": [
						{
							"internalType": "address",
							"name": "account",
							"type": "address"
						}
					],
					"name": "balanceOf",
					"outputs": [
						{
							"internalType": "uint256",
							"name": "",
							"type": "uint256"
						}
					],
					"stateMutability": "view",
					"type": "function"
				},
				{
					"inputs": [
						{
							"internalType": "address",
							"name": "account",
							"type": "address"
						}
					],
					"name": "earned",
					"outputs": [
						{
							"internalType": "uint256",
							"name": "",
							"type": "uint256"
						}
					],
					"stateMutability": "view",
					"type": "function"
				},
				{
					"inputs": [],
					"name": "exit",
					"outputs": [],
					"stateMutability": "nonpayable",
					"type": "function"
				},
				{
					"inputs": [],
					"name": "getReward",
					"outputs": [],
					"stateMutability": "nonpayable",
					"type": "function"
				},
				{
					"inputs": [],
					"name": "getRewardForDuration",
					"outputs": [
						{
							"internalType": "uint256",
							"name": "",
							"type": "uint256"
						}
					],
					"stateMutability": "view",
					"type": "function"
				},
				{
					"inputs": [],
					"name": "lastPauseTime",
					"outputs": [
						{
							"internalType": "uint256",
							"name": "",
							"type": "uint256"
						}
					],
					"stateMutability": "view",
					"type": "function"
				},
				{
					"inputs": [],
					"name": "lastTimeRewardApplicable",
					"outputs": [
						{
							"internalType": "uint256",
							"name": "",
							"type": "uint256"
						}
					],
					"stateMutability": "view",
					"type": "function"
				},
				{
					"inputs": [],
					"name": "lastUpdateTime",
					"outputs": [
						{
							"internalType": "uint256",
							"name": "",
							"type": "uint256"
						}
					],
					"stateMutability": "view",
					"type": "function"
				},
				{
					"inputs": [
						{
							"internalType": "uint256",
							"name": "reward",
							"type": "uint256"
						}
					],
					"name": "notifyRewardAmount",
					"outputs": [],
					"stateMutability": "nonpayable",
					"type": "function"
				},
				{
					"inputs": [],
					"name": "owner",
					"outputs": [
						{
							"internalType": "address",
							"name": "",
							"type": "address"
						}
					],
					"stateMutability": "view",
					"type": "function"
				},
				{
					"inputs": [],
					"name": "paused",
					"outputs": [
						{
							"internalType": "bool",
							"name": "",
							"type": "bool"
						}
					],
					"stateMutability": "view",
					"type": "function"
				},
				{
					"inputs": [],
					"name": "periodFinish",
					"outputs": [
						{
							"internalType": "uint256",
							"name": "",
							"type": "uint256"
						}
					],
					"stateMutability": "view",
					"type": "function"
				},
				{
					"inputs": [
						{
							"internalType": "address",
							"name": "tokenAddress",
							"type": "address"
						},
						{
							"internalType": "uint256",
							"name": "tokenAmount",
							"type": "uint256"
						}
					],
					"name": "recoverERC20",
					"outputs": [],
					"stateMutability": "nonpayable",
					"type": "function"
				},
				{
					"inputs": [],
					"name": "renounceOwnership",
					"outputs": [],
					"stateMutability": "nonpayable",
					"type": "function"
				},
				{
					"inputs": [],
					"name": "rewardPerToken",
					"outputs": [
						{
							"internalType": "uint256",
							"name": "",
							"type": "uint256"
						}
					],
					"stateMutability": "view",
					"type": "function"
				},
				{
					"inputs": [],
					"name": "rewardPerTokenStored",
					"outputs": [
						{
							"internalType": "uint256",
							"name": "",
							"type": "uint256"
						}
					],
					"stateMutability": "view",
					"type": "function"
				},
				{
					"inputs": [],
					"name": "rewardRate",
					"outputs": [
						{
							"internalType": "uint256",
							"name": "",
							"type": "uint256"
						}
					],
					"stateMutability": "view",
					"type": "function"
				},
				{
					"inputs": [
						{
							"internalType": "address",
							"name": "",
							"type": "address"
						}
					],
					"name": "rewards",
					"outputs": [
						{
							"internalType": "uint256",
							"name": "",
							"type": "uint256"
						}
					],
					"stateMutability": "view",
					"type": "function"
				},
				{
					"inputs": [],
					"name": "rewardsDistribution",
					"outputs": [
						{
							"internalType": "address",
							"name": "",
							"type": "address"
						}
					],
					"stateMutability": "view",
					"type": "function"
				},
				{
					"inputs": [],
					"name": "rewardsDuration",
					"outputs": [
						{
							"internalType": "uint256",
							"name": "",
							"type": "uint256"
						}
					],
					"stateMutability": "view",
					"type": "function"
				},
				{
					"inputs": [],
					"name": "rewardsToken",
					"outputs": [
						{
							"internalType": "address",
							"name": "",
							"type": "address"
						}
					],
					"stateMutability": "view",
					"type": "function"
				},
				{
					"inputs": [
						{
							"internalType": "bool",
							"name": "_paused",
							"type": "bool"
						}
					],
					"name": "setPaused",
					"outputs": [],
					"stateMutability": "nonpayable",
					"type": "function"
				},
				{
					"inputs": [
						{
							"internalType": "address",
							"name": "_rewardsDistribution",
							"type": "address"
						}
					],
					"name": "setRewardsDistribution",
					"outputs": [],
					"stateMutability": "nonpayable",
					"type": "function"
				},
				{
					"inputs": [
						{
							"internalType": "uint256",
							"name": "_rewardsDuration",
							"type": "uint256"
						}
					],
					"name": "setRewardsDuration",
					"outputs": [],
					"stateMutability": "nonpayable",
					"type": "function"
				},
				{
					"inputs": [
						{
							"internalType": "uint256",
							"name": "amount",
							"type": "uint256"
						}
					],
					"name": "stake",
					"outputs": [],
					"stateMutability": "nonpayable",
					"type": "function"
				},
				{
					"inputs": [],
					"name": "stakingToken",
					"outputs": [
						{
							"internalType": "address",
							"name": "",
							"type": "address"
						}
					],
					"stateMutability": "view",
					"type": "function"
				},
				{
					"inputs": [],
					"name": "totalSupply",
					"outputs": [
						{
							"internalType": "uint256",
							"name": "",
							"type": "uint256"
						}
					],
					"stateMutability": "view",
					"type": "function"
				},
				{
					"inputs": [
						{
							"internalType": "address",
							"name": "newOwner",
							"type": "address"
						}
					],
					"name": "transferOwnership",
					"outputs": [],
					"stateMutability": "nonpayable",
					"type": "function"
				},
				{
					"inputs": [
						{
							"internalType": "address",
							"name": "",
							"type": "address"
						}
					],
					"name": "userRewardPerTokenPaid",
					"outputs": [
						{
							"internalType": "uint256",
							"name": "",
							"type": "uint256"
						}
					],
					"stateMutability": "view",
					"type": "function"
				},
				{
					"inputs": [
						{
							"internalType": "uint256",
							"name": "amount",
							"type": "uint256"
						}
					],
					"name": "withdraw",
					"outputs": [],
					"stateMutability": "nonpayable",
					"type": "function"
				}
			],
			"devdoc": {
				"kind": "dev",
				"methods": {
					"owner()": {
						"details": "Returns the address of the current owner."
					},
					"renounceOwnership()": {
						"details": "Leaves the contract without owner. It will not be possible to call `onlyOwner` functions anymore. Can only be called by the current owner. NOTE: Renouncing ownership will leave the contract without an owner, thereby removing any functionality that is only available to the owner."
					},
					"setPaused(bool)": {
						"details": "Only the contract owner may call this."
					},
					"transferOwnership(address)": {
						"details": "Transfers ownership of the contract to a new account (`newOwner`). Can only be called by the current owner."
					}
				},
				"version": 1
			},
			"evm": {
				"assembly": "    /* \"contracts/Zero2HeroWeek2StakingRewards.sol\":735:7971  contract Zero2HeroWeek2StakingRewards is IZero2HeroWeek2StakingRewards, ReentrancyGuard, Ownable {... */\n  mstore(0x40, 0x80)\n    /* \"contracts/Zero2HeroWeek2StakingRewards.sol\":1047:1048  0 */\n  0x00\n    /* \"contracts/Zero2HeroWeek2StakingRewards.sol\":1017:1048  uint256 public periodFinish = 0 */\n  0x04\n  sstore\n    /* \"contracts/Zero2HeroWeek2StakingRewards.sol\":1082:1083  0 */\n  0x00\n    /* \"contracts/Zero2HeroWeek2StakingRewards.sol\":1054:1083  uint256 public rewardRate = 0 */\n  0x05\n  sstore\n    /* \"contracts/Zero2HeroWeek2StakingRewards.sol\":1122:1128  7 days */\n  0x093a80\n    /* \"contracts/Zero2HeroWeek2StakingRewards.sol\":1089:1128  uint256 public rewardsDuration = 7 days */\n  0x06\n  sstore\n    /* \"contracts/Zero2HeroWeek2StakingRewards.sol\":1530:1783  constructor(... */\n  callvalue\n  dup1\n  iszero\n  tag_1\n  jumpi\n  0x00\n  dup1\n  revert\ntag_1:\n  pop\n  mload(0x40)\n  sub(codesize, bytecodeSize)\n  dup1\n  bytecodeSize\n  dup4\n  codecopy\n  dup2\n  add\n  0x40\n  dup2\n  swap1\n  mstore\n  tag_2\n  swap2\n  tag_3\n  jump\t// in\ntag_2:\n    /* \"@openzeppelin/contracts/security/ReentrancyGuard.sol\":1716:1717  1 */\n  0x01\n    /* \"@openzeppelin/contracts/security/ReentrancyGuard.sol\":1821:1828  _status */\n  0x00\n    /* \"@openzeppelin/contracts/security/ReentrancyGuard.sol\":1821:1843  _status = _NOT_ENTERED */\n  sstore\n    /* \"@openzeppelin/contracts/access/Ownable.sol\":936:968  _transferOwnership(_msgSender()) */\n  tag_9\n    /* \"@openzeppelin/contracts/utils/Context.sol\":719:729  msg.sender */\n  caller\n    /* \"@openzeppelin/contracts/access/Ownable.sol\":936:954  _transferOwnership */\n  tag_12\n    /* \"@openzeppelin/contracts/access/Ownable.sol\":936:968  _transferOwnership(_msgSender()) */\n  jump\t// in\ntag_9:\n    /* \"contracts/Zero2HeroWeek2StakingRewards.sol\":1658:1670  rewardsToken */\n  0x02\n    /* \"contracts/Zero2HeroWeek2StakingRewards.sol\":1658:1686  rewardsToken = _rewardsToken */\n  dup1\n  sload\n  sub(shl(0xa0, 0x01), 0x01)\n  swap4\n  dup5\n  and\n  not(sub(shl(0xa0, 0x01), 0x01))\n  swap2\n  dup3\n  and\n  or\n  swap1\n  swap2\n  sstore\n    /* \"contracts/Zero2HeroWeek2StakingRewards.sol\":1696:1708  stakingToken */\n  0x03\n    /* \"contracts/Zero2HeroWeek2StakingRewards.sol\":1696:1724  stakingToken = _stakingToken */\n  dup1\n  sload\n  swap3\n  dup5\n  and\n  swap3\n  dup3\n  and\n  swap3\n  swap1\n  swap3\n  or\n  swap1\n  swap2\n  sstore\n    /* \"contracts/Zero2HeroWeek2StakingRewards.sol\":1734:1753  rewardsDistribution */\n  0x09\n    /* \"contracts/Zero2HeroWeek2StakingRewards.sol\":1734:1776  rewardsDistribution = _rewardsDistribution */\n  dup1\n  sload\n  swap4\n  swap1\n  swap3\n  and\n  swap3\n  and\n  swap2\n  swap1\n  swap2\n  or\n  swap1\n  sstore\n    /* \"contracts/Zero2HeroWeek2StakingRewards.sol\":735:7971  contract Zero2HeroWeek2StakingRewards is IZero2HeroWeek2StakingRewards, ReentrancyGuard, Ownable {... */\n  jump(tag_18)\n    /* \"@openzeppelin/contracts/access/Ownable.sol\":2433:2620  function _transferOwnership(address newOwner) internal virtual {... */\ntag_12:\n    /* \"@openzeppelin/contracts/access/Ownable.sol\":2525:2531  _owner */\n  0x01\n  dup1\n  sload\n  sub(shl(0xa0, 0x01), 0x01)\n    /* \"@openzeppelin/contracts/access/Ownable.sol\":2541:2558  _owner = newOwner */\n  dup4\n  dup2\n  and\n  not(sub(shl(0xa0, 0x01), 0x01))\n  dup4\n  and\n  dup2\n  or\n  swap1\n  swap4\n  sstore\n    /* \"@openzeppelin/contracts/access/Ownable.sol\":2573:2613  OwnershipTransferred(oldOwner, newOwner) */\n  mload(0x40)\n    /* \"@openzeppelin/contracts/access/Ownable.sol\":2525:2531  _owner */\n  swap2\n  and\n  swap2\n    /* \"@openzeppelin/contracts/access/Ownable.sol\":2541:2558  _owner = newOwner */\n  swap1\n    /* \"@openzeppelin/contracts/access/Ownable.sol\":2525:2531  _owner */\n  dup3\n  swap1\n    /* \"@openzeppelin/contracts/access/Ownable.sol\":2573:2613  OwnershipTransferred(oldOwner, newOwner) */\n  0x8be0079c531659141344cd1fd0a4f28419497f9722a3daafe3b4186f6b6457e0\n  swap1\n    /* \"@openzeppelin/contracts/access/Ownable.sol\":2506:2522  address oldOwner */\n  0x00\n  swap1\n    /* \"@openzeppelin/contracts/access/Ownable.sol\":2573:2613  OwnershipTransferred(oldOwner, newOwner) */\n  log3\n    /* \"@openzeppelin/contracts/access/Ownable.sol\":2496:2620  {... */\n  pop\n    /* \"@openzeppelin/contracts/access/Ownable.sol\":2433:2620  function _transferOwnership(address newOwner) internal virtual {... */\n  pop\n  jump\t// out\n    /* \"#utility.yul\":14:191   */\ntag_17:\n    /* \"#utility.yul\":93:106   */\n  dup1\n  mload\n  sub(shl(0xa0, 0x01), 0x01)\n    /* \"#utility.yul\":135:166   */\n  dup2\n  and\n    /* \"#utility.yul\":125:167   */\n  dup2\n  eq\n    /* \"#utility.yul\":115:185   */\n  tag_20\n  jumpi\n    /* \"#utility.yul\":181:182   */\n  0x00\n    /* \"#utility.yul\":178:179   */\n  dup1\n    /* \"#utility.yul\":171:183   */\n  revert\n    /* \"#utility.yul\":115:185   */\ntag_20:\n    /* \"#utility.yul\":14:191   */\n  swap2\n  swap1\n  pop\n  jump\t// out\n    /* \"#utility.yul\":196:574   */\ntag_3:\n    /* \"#utility.yul\":284:290   */\n  0x00\n    /* \"#utility.yul\":292:298   */\n  dup1\n    /* \"#utility.yul\":300:306   */\n  0x00\n    /* \"#utility.yul\":353:355   */\n  0x60\n    /* \"#utility.yul\":341:350   */\n  dup5\n    /* \"#utility.yul\":332:339   */\n  dup7\n    /* \"#utility.yul\":328:351   */\n  sub\n    /* \"#utility.yul\":324:356   */\n  slt\n    /* \"#utility.yul\":321:373   */\n  iszero\n  tag_22\n  jumpi\n    /* \"#utility.yul\":369:370   */\n  0x00\n    /* \"#utility.yul\":366:367   */\n  dup1\n    /* \"#utility.yul\":359:371   */\n  revert\n    /* \"#utility.yul\":321:373   */\ntag_22:\n    /* \"#utility.yul\":392:432   */\n  tag_23\n    /* \"#utility.yul\":422:431   */\n  dup5\n    /* \"#utility.yul\":392:432   */\n  tag_17\n  jump\t// in\ntag_23:\n    /* \"#utility.yul\":382:432   */\n  swap3\n  pop\n    /* \"#utility.yul\":451:500   */\n  tag_24\n    /* \"#utility.yul\":496:498   */\n  0x20\n    /* \"#utility.yul\":485:494   */\n  dup6\n    /* \"#utility.yul\":481:499   */\n  add\n    /* \"#utility.yul\":451:500   */\n  tag_17\n  jump\t// in\ntag_24:\n    /* \"#utility.yul\":441:500   */\n  swap2\n  pop\n    /* \"#utility.yul\":519:568   */\n  tag_25\n    /* \"#utility.yul\":564:566   */\n  0x40\n    /* \"#utility.yul\":553:562   */\n  dup6\n    /* \"#utility.yul\":549:567   */\n  add\n    /* \"#utility.yul\":519:568   */\n  tag_17\n  jump\t// in\ntag_25:\n    /* \"#utility.yul\":509:568   */\n  swap1\n  pop\n    /* \"#utility.yul\":196:574   */\n  swap3\n  pop\n  swap3\n  pop\n  swap3\n  jump\t// out\ntag_18:\n    /* \"contracts/Zero2HeroWeek2StakingRewards.sol\":735:7971  contract Zero2HeroWeek2StakingRewards is IZero2HeroWeek2StakingRewards, ReentrancyGuard, Ownable {... */\n  dataSize(sub_0)\n  dup1\n  dataOffset(sub_0)\n  0x00\n  codecopy\n  0x00\n  return\nstop\n\nsub_0: assembly {\n        /* \"contracts/Zero2HeroWeek2StakingRewards.sol\":735:7971  contract Zero2HeroWeek2StakingRewards is IZero2HeroWeek2StakingRewards, ReentrancyGuard, Ownable {... */\n      mstore(0x40, 0x80)\n      callvalue\n      dup1\n      iszero\n      tag_1\n      jumpi\n      0x00\n      dup1\n      revert\n    tag_1:\n      pop\n      jumpi(tag_2, lt(calldatasize, 0x04))\n      shr(0xe0, calldataload(0x00))\n      dup1\n      0x7b0a47ee\n      gt\n      tag_33\n      jumpi\n      dup1\n      0xc8f33c91\n      gt\n      tag_34\n      jumpi\n      dup1\n      0xdf136d65\n      gt\n      tag_35\n      jumpi\n      dup1\n      0xdf136d65\n      eq\n      tag_29\n      jumpi\n      dup1\n      0xe9fad8ee\n      eq\n      tag_30\n      jumpi\n      dup1\n      0xebe2b12b\n      eq\n      tag_31\n      jumpi\n      dup1\n      0xf2fde38b\n      eq\n      tag_32\n      jumpi\n      0x00\n      dup1\n      revert\n    tag_35:\n      dup1\n      0xc8f33c91\n      eq\n      tag_25\n      jumpi\n      dup1\n      0xcc1a378f\n      eq\n      tag_26\n      jumpi\n      dup1\n      0xcd3daf9d\n      eq\n      tag_27\n      jumpi\n      dup1\n      0xd1af0c7d\n      eq\n      tag_28\n      jumpi\n      0x00\n      dup1\n      revert\n    tag_34:\n      dup1\n      0x8b876347\n      gt\n      tag_36\n      jumpi\n      dup1\n      0x8b876347\n      eq\n      tag_21\n      jumpi\n      dup1\n      0x8da5cb5b\n      eq\n      tag_22\n      jumpi\n      dup1\n      0x91b4ded9\n      eq\n      tag_23\n      jumpi\n      dup1\n      0xa694fc3a\n      eq\n      tag_24\n      jumpi\n      0x00\n      dup1\n      revert\n    tag_36:\n      dup1\n      0x7b0a47ee\n      eq\n      tag_18\n      jumpi\n      dup1\n      0x80faa57d\n      eq\n      tag_19\n      jumpi\n      dup1\n      0x8980f11f\n      eq\n      tag_20\n      jumpi\n      0x00\n      dup1\n      revert\n    tag_33:\n      dup1\n      0x386a9525\n      gt\n      tag_37\n      jumpi\n      dup1\n      0x5c975abb\n      gt\n      tag_38\n      jumpi\n      dup1\n      0x5c975abb\n      eq\n      tag_14\n      jumpi\n      dup1\n      0x70a08231\n      eq\n      tag_15\n      jumpi\n      dup1\n      0x715018a6\n      eq\n      tag_16\n      jumpi\n      dup1\n      0x72f702f3\n      eq\n      tag_17\n      jumpi\n      0x00\n      dup1\n      revert\n    tag_38:\n      dup1\n      0x386a9525\n      eq\n      tag_10\n      jumpi\n      dup1\n      0x3c6b16ab\n      eq\n      tag_11\n      jumpi\n      dup1\n      0x3d18b912\n      eq\n      tag_12\n      jumpi\n      dup1\n      0x3fc6df6e\n      eq\n      tag_13\n      jumpi\n      0x00\n      dup1\n      revert\n    tag_37:\n      dup1\n      0x18160ddd\n      gt\n      tag_39\n      jumpi\n      dup1\n      0x18160ddd\n      eq\n      tag_6\n      jumpi\n      dup1\n      0x19762143\n      eq\n      tag_7\n      jumpi\n      dup1\n      0x1c1f78eb\n      eq\n      tag_8\n      jumpi\n      dup1\n      0x2e1a7d4d\n      eq\n      tag_9\n      jumpi\n      0x00\n      dup1\n      revert\n    tag_39:\n      dup1\n      0x8cc262\n      eq\n      tag_3\n      jumpi\n      dup1\n      0x0700037d\n      eq\n      tag_4\n      jumpi\n      dup1\n      0x16c38b3c\n      eq\n      tag_5\n      jumpi\n    tag_2:\n      0x00\n      dup1\n      revert\n        /* \"contracts/Zero2HeroWeek2StakingRewards.sol\":2528:2724  function earned(address account) public view returns (uint256) {... */\n    tag_3:\n      tag_40\n      tag_41\n      calldatasize\n      0x04\n      tag_42\n      jump\t// in\n    tag_41:\n      tag_43\n      jump\t// in\n    tag_40:\n      mload(0x40)\n        /* \"#utility.yul\":529:554   */\n      swap1\n      dup2\n      mstore\n        /* \"#utility.yul\":517:519   */\n      0x20\n        /* \"#utility.yul\":502:520   */\n      add\n        /* \"contracts/Zero2HeroWeek2StakingRewards.sol\":2528:2724  function earned(address account) public view returns (uint256) {... */\n    tag_44:\n      mload(0x40)\n      dup1\n      swap2\n      sub\n      swap1\n      return\n        /* \"contracts/Zero2HeroWeek2StakingRewards.sol\":1314:1356  mapping(address => uint256) public rewards */\n    tag_4:\n      tag_40\n      tag_47\n      calldatasize\n      0x04\n      tag_42\n      jump\t// in\n    tag_47:\n      mstore(0x20, 0x0b)\n      0x00\n      swap1\n      dup2\n      mstore\n      0x40\n      swap1\n      keccak256\n      sload\n      dup2\n      jump\n        /* \"contracts/Zero2HeroWeek2StakingRewards.sol\":7312:7796  function setPaused(bool _paused) external onlyOwner {... */\n    tag_5:\n      tag_50\n      tag_51\n      calldatasize\n      0x04\n      tag_52\n      jump\t// in\n    tag_51:\n      tag_53\n      jump\t// in\n    tag_50:\n      stop\n        /* \"contracts/Zero2HeroWeek2StakingRewards.sol\":1828:1919  function totalSupply() external view returns (uint256) {... */\n    tag_6:\n        /* \"contracts/Zero2HeroWeek2StakingRewards.sol\":1900:1912  _totalSupply */\n      sload(0x0c)\n        /* \"contracts/Zero2HeroWeek2StakingRewards.sol\":1828:1919  function totalSupply() external view returns (uint256) {... */\n      jump(tag_40)\n        /* \"contracts/Zero2HeroWeek2StakingRewards.sol\":6933:7073  function setRewardsDistribution(address _rewardsDistribution) external onlyOwner {... */\n    tag_7:\n      tag_50\n      tag_58\n      calldatasize\n      0x04\n      tag_42\n      jump\t// in\n    tag_58:\n      tag_59\n      jump\t// in\n        /* \"contracts/Zero2HeroWeek2StakingRewards.sol\":2730:2849  function getRewardForDuration() external view returns (uint256) {... */\n    tag_8:\n      tag_40\n      tag_61\n      jump\t// in\n        /* \"contracts/Zero2HeroWeek2StakingRewards.sol\":3294:3653  function withdraw(uint256 amount) public nonReentrant updateReward(msg.sender) {... */\n    tag_9:\n      tag_50\n      tag_64\n      calldatasize\n      0x04\n      tag_65\n      jump\t// in\n    tag_64:\n      tag_66\n      jump\t// in\n        /* \"contracts/Zero2HeroWeek2StakingRewards.sol\":1089:1128  uint256 public rewardsDuration = 7 days */\n    tag_10:\n      tag_40\n      sload(0x06)\n      dup2\n      jump\n        /* \"contracts/Zero2HeroWeek2StakingRewards.sol\":4127:5199  function notifyRewardAmount(uint256 reward) external onlyRewardsDistribution updateReward(address(0)) {... */\n    tag_11:\n      tag_50\n      tag_71\n      calldatasize\n      0x04\n      tag_65\n      jump\t// in\n    tag_71:\n      tag_72\n      jump\t// in\n        /* \"contracts/Zero2HeroWeek2StakingRewards.sol\":3659:3967  function getReward() public nonReentrant updateReward(msg.sender) {... */\n    tag_12:\n      tag_50\n      tag_74\n      jump\t// in\n        /* \"contracts/Zero2HeroWeek2StakingRewards.sol\":1210:1244  address public rewardsDistribution */\n    tag_13:\n      sload(0x09)\n      tag_75\n      swap1\n      sub(shl(0xa0, 0x01), 0x01)\n      and\n      dup2\n      jump\n    tag_75:\n      mload(0x40)\n      sub(shl(0xa0, 0x01), 0x01)\n        /* \"#utility.yul\":1283:1315   */\n      swap1\n      swap2\n      and\n        /* \"#utility.yul\":1265:1316   */\n      dup2\n      mstore\n        /* \"#utility.yul\":1253:1255   */\n      0x20\n        /* \"#utility.yul\":1238:1256   */\n      add\n        /* \"contracts/Zero2HeroWeek2StakingRewards.sol\":1210:1244  address public rewardsDistribution */\n      tag_44\n        /* \"#utility.yul\":1119:1322   */\n      jump\n        /* \"contracts/Zero2HeroWeek2StakingRewards.sol\":7165:7183  bool public paused */\n    tag_14:\n      sload(0x0f)\n      tag_79\n      swap1\n      0xff\n      and\n      dup2\n      jump\n    tag_79:\n      mload(0x40)\n        /* \"#utility.yul\":1492:1506   */\n      swap1\n      iszero\n        /* \"#utility.yul\":1485:1507   */\n      iszero\n        /* \"#utility.yul\":1467:1508   */\n      dup2\n      mstore\n        /* \"#utility.yul\":1455:1457   */\n      0x20\n        /* \"#utility.yul\":1440:1458   */\n      add\n        /* \"contracts/Zero2HeroWeek2StakingRewards.sol\":7165:7183  bool public paused */\n      tag_44\n        /* \"#utility.yul\":1327:1514   */\n      jump\n        /* \"contracts/Zero2HeroWeek2StakingRewards.sol\":1925:2035  function balanceOf(address account) external view returns (uint256) {... */\n    tag_15:\n      tag_40\n      tag_84\n      calldatasize\n      0x04\n      tag_42\n      jump\t// in\n    tag_84:\n      sub(shl(0xa0, 0x01), 0x01)\n        /* \"contracts/Zero2HeroWeek2StakingRewards.sol\":2010:2028  _balances[account] */\n      and\n        /* \"contracts/Zero2HeroWeek2StakingRewards.sol\":1984:1991  uint256 */\n      0x00\n        /* \"contracts/Zero2HeroWeek2StakingRewards.sol\":2010:2028  _balances[account] */\n      swap1\n      dup2\n      mstore\n        /* \"contracts/Zero2HeroWeek2StakingRewards.sol\":2010:2019  _balances */\n      0x0d\n        /* \"contracts/Zero2HeroWeek2StakingRewards.sol\":2010:2028  _balances[account] */\n      0x20\n      mstore\n      0x40\n      swap1\n      keccak256\n      sload\n      swap1\n        /* \"contracts/Zero2HeroWeek2StakingRewards.sol\":1925:2035  function balanceOf(address account) external view returns (uint256) {... */\n      jump\n        /* \"@openzeppelin/contracts/access/Ownable.sol\":1831:1932  function renounceOwnership() public virtual onlyOwner {... */\n    tag_16:\n      tag_50\n      tag_88\n      jump\t// in\n        /* \"contracts/Zero2HeroWeek2StakingRewards.sol\":984:1011  address public stakingToken */\n    tag_17:\n      sload(0x03)\n      tag_75\n      swap1\n      sub(shl(0xa0, 0x01), 0x01)\n      and\n      dup2\n      jump\n        /* \"contracts/Zero2HeroWeek2StakingRewards.sol\":1054:1083  uint256 public rewardRate = 0 */\n    tag_18:\n      tag_40\n      sload(0x05)\n      dup2\n      jump\n        /* \"contracts/Zero2HeroWeek2StakingRewards.sol\":2041:2194  function lastTimeRewardApplicable() public view returns (uint256) {... */\n    tag_19:\n      tag_40\n      tag_96\n      jump\t// in\n        /* \"contracts/Zero2HeroWeek2StakingRewards.sol\":5311:5602  function recoverERC20(address tokenAddress, uint256 tokenAmount) external onlyOwner {... */\n    tag_20:\n      tag_50\n      tag_99\n      calldatasize\n      0x04\n      tag_100\n      jump\t// in\n    tag_99:\n      tag_101\n      jump\t// in\n        /* \"contracts/Zero2HeroWeek2StakingRewards.sol\":1251:1308  mapping(address => uint256) public userRewardPerTokenPaid */\n    tag_21:\n      tag_40\n      tag_103\n      calldatasize\n      0x04\n      tag_42\n      jump\t// in\n    tag_103:\n      mstore(0x20, 0x0a)\n      0x00\n      swap1\n      dup2\n      mstore\n      0x40\n      swap1\n      keccak256\n      sload\n      dup2\n      jump\n        /* \"@openzeppelin/contracts/access/Ownable.sol\":1201:1286  function owner() public view virtual returns (address) {... */\n    tag_22:\n        /* \"@openzeppelin/contracts/access/Ownable.sol\":1273:1279  _owner */\n      and(sub(shl(0xa0, 0x01), 0x01), sload(0x01))\n        /* \"@openzeppelin/contracts/access/Ownable.sol\":1201:1286  function owner() public view virtual returns (address) {... */\n      jump(tag_75)\n        /* \"contracts/Zero2HeroWeek2StakingRewards.sol\":7134:7159  uint public lastPauseTime */\n    tag_23:\n      tag_40\n      sload(0x0e)\n      dup2\n      jump\n        /* \"contracts/Zero2HeroWeek2StakingRewards.sol\":2907:3288  function stake(uint256 amount) external nonReentrant notPaused updateReward(msg.sender) {... */\n    tag_24:\n      tag_50\n      tag_113\n      calldatasize\n      0x04\n      tag_65\n      jump\t// in\n    tag_113:\n      tag_114\n      jump\t// in\n        /* \"contracts/Zero2HeroWeek2StakingRewards.sol\":1134:1163  uint256 public lastUpdateTime */\n    tag_25:\n      tag_40\n      sload(0x07)\n      dup2\n      jump\n        /* \"contracts/Zero2HeroWeek2StakingRewards.sol\":5608:5961  function setRewardsDuration(uint256 _rewardsDuration) external onlyOwner {... */\n    tag_26:\n      tag_50\n      tag_119\n      calldatasize\n      0x04\n      tag_65\n      jump\t// in\n    tag_119:\n      tag_120\n      jump\t// in\n        /* \"contracts/Zero2HeroWeek2StakingRewards.sol\":2200:2522  function rewardPerToken() public view returns (uint256) {... */\n    tag_27:\n      tag_40\n      tag_122\n      jump\t// in\n        /* \"contracts/Zero2HeroWeek2StakingRewards.sol\":951:978  address public rewardsToken */\n    tag_28:\n      sload(0x02)\n      tag_75\n      swap1\n      sub(shl(0xa0, 0x01), 0x01)\n      and\n      dup2\n      jump\n        /* \"contracts/Zero2HeroWeek2StakingRewards.sol\":1169:1204  uint256 public rewardPerTokenStored */\n    tag_29:\n      tag_40\n      sload(0x08)\n      dup2\n      jump\n        /* \"contracts/Zero2HeroWeek2StakingRewards.sol\":3973:4067  function exit() external {... */\n    tag_30:\n      tag_50\n      tag_131\n      jump\t// in\n        /* \"contracts/Zero2HeroWeek2StakingRewards.sol\":1017:1048  uint256 public periodFinish = 0 */\n    tag_31:\n      tag_40\n      sload(0x04)\n      dup2\n      jump\n        /* \"@openzeppelin/contracts/access/Ownable.sol\":2081:2279  function transferOwnership(address newOwner) public virtual onlyOwner {... */\n    tag_32:\n      tag_50\n      tag_136\n      calldatasize\n      0x04\n      tag_42\n      jump\t// in\n    tag_136:\n      tag_137\n      jump\t// in\n        /* \"contracts/Zero2HeroWeek2StakingRewards.sol\":2528:2724  function earned(address account) public view returns (uint256) {... */\n    tag_43:\n      sub(shl(0xa0, 0x01), 0x01)\n        /* \"contracts/Zero2HeroWeek2StakingRewards.sol\":2700:2716  rewards[account] */\n      dup2\n      and\n        /* \"contracts/Zero2HeroWeek2StakingRewards.sol\":2582:2589  uint256 */\n      0x00\n        /* \"contracts/Zero2HeroWeek2StakingRewards.sol\":2700:2716  rewards[account] */\n      swap1\n      dup2\n      mstore\n        /* \"contracts/Zero2HeroWeek2StakingRewards.sol\":2700:2707  rewards */\n      0x0b\n        /* \"contracts/Zero2HeroWeek2StakingRewards.sol\":2700:2716  rewards[account] */\n      0x20\n      swap1\n      dup2\n      mstore\n      0x40\n      dup1\n      dup4\n      keccak256\n      sload\n        /* \"contracts/Zero2HeroWeek2StakingRewards.sol\":2652:2674  userRewardPerTokenPaid */\n      0x0a\n        /* \"contracts/Zero2HeroWeek2StakingRewards.sol\":2652:2683  userRewardPerTokenPaid[account] */\n      swap1\n      swap3\n      mstore\n      dup3\n      keccak256\n      sload\n        /* \"contracts/Zero2HeroWeek2StakingRewards.sol\":2608:2717  _balances[account].mul(rewardPerToken().sub(userRewardPerTokenPaid[account])).div(1e18).add(rewards[account]) */\n      tag_139\n      swap2\n        /* \"contracts/Zero2HeroWeek2StakingRewards.sol\":2700:2716  rewards[account] */\n      swap1\n        /* \"contracts/Zero2HeroWeek2StakingRewards.sol\":2608:2695  _balances[account].mul(rewardPerToken().sub(userRewardPerTokenPaid[account])).div(1e18) */\n      tag_140\n      swap1\n        /* \"contracts/Zero2HeroWeek2StakingRewards.sol\":2690:2694  1e18 */\n      0x0de0b6b3a7640000\n      swap1\n        /* \"contracts/Zero2HeroWeek2StakingRewards.sol\":2608:2685  _balances[account].mul(rewardPerToken().sub(userRewardPerTokenPaid[account])) */\n      tag_141\n      swap1\n        /* \"contracts/Zero2HeroWeek2StakingRewards.sol\":2631:2684  rewardPerToken().sub(userRewardPerTokenPaid[account]) */\n      tag_142\n      swap1\n        /* \"contracts/Zero2HeroWeek2StakingRewards.sol\":2631:2647  rewardPerToken() */\n      tag_143\n        /* \"contracts/Zero2HeroWeek2StakingRewards.sol\":2631:2645  rewardPerToken */\n      tag_122\n        /* \"contracts/Zero2HeroWeek2StakingRewards.sol\":2631:2647  rewardPerToken() */\n      jump\t// in\n    tag_143:\n        /* \"contracts/Zero2HeroWeek2StakingRewards.sol\":2631:2651  rewardPerToken().sub */\n      swap1\n      tag_144\n        /* \"contracts/Zero2HeroWeek2StakingRewards.sol\":2631:2684  rewardPerToken().sub(userRewardPerTokenPaid[account]) */\n      jump\t// in\n    tag_142:\n      sub(shl(0xa0, 0x01), 0x01)\n        /* \"contracts/Zero2HeroWeek2StakingRewards.sol\":2608:2626  _balances[account] */\n      dup9\n      and\n      0x00\n      swap1\n      dup2\n      mstore\n        /* \"contracts/Zero2HeroWeek2StakingRewards.sol\":2608:2617  _balances */\n      0x0d\n        /* \"contracts/Zero2HeroWeek2StakingRewards.sol\":2608:2626  _balances[account] */\n      0x20\n      mstore\n      0x40\n      swap1\n      keccak256\n      sload\n      swap1\n        /* \"contracts/Zero2HeroWeek2StakingRewards.sol\":2608:2630  _balances[account].mul */\n      tag_145\n        /* \"contracts/Zero2HeroWeek2StakingRewards.sol\":2608:2685  _balances[account].mul(rewardPerToken().sub(userRewardPerTokenPaid[account])) */\n      jump\t// in\n    tag_141:\n        /* \"contracts/Zero2HeroWeek2StakingRewards.sol\":2608:2689  _balances[account].mul(rewardPerToken().sub(userRewardPerTokenPaid[account])).div */\n      swap1\n      tag_146\n        /* \"contracts/Zero2HeroWeek2StakingRewards.sol\":2608:2695  _balances[account].mul(rewardPerToken().sub(userRewardPerTokenPaid[account])).div(1e18) */\n      jump\t// in\n    tag_140:\n        /* \"contracts/Zero2HeroWeek2StakingRewards.sol\":2608:2699  _balances[account].mul(rewardPerToken().sub(userRewardPerTokenPaid[account])).div(1e18).add */\n      swap1\n      tag_147\n        /* \"contracts/Zero2HeroWeek2StakingRewards.sol\":2608:2717  _balances[account].mul(rewardPerToken().sub(userRewardPerTokenPaid[account])).div(1e18).add(rewards[account]) */\n      jump\t// in\n    tag_139:\n        /* \"contracts/Zero2HeroWeek2StakingRewards.sol\":2601:2717  return _balances[account].mul(rewardPerToken().sub(userRewardPerTokenPaid[account])).div(1e18).add(rewards[account]) */\n      swap3\n        /* \"contracts/Zero2HeroWeek2StakingRewards.sol\":2528:2724  function earned(address account) public view returns (uint256) {... */\n      swap2\n      pop\n      pop\n      jump\t// out\n        /* \"contracts/Zero2HeroWeek2StakingRewards.sol\":7312:7796  function setPaused(bool _paused) external onlyOwner {... */\n    tag_53:\n        /* \"@openzeppelin/contracts/access/Ownable.sol\":1094:1107  _checkOwner() */\n      tag_149\n        /* \"@openzeppelin/contracts/access/Ownable.sol\":1094:1105  _checkOwner */\n      tag_150\n        /* \"@openzeppelin/contracts/access/Ownable.sol\":1094:1107  _checkOwner() */\n      jump\t// in\n    tag_149:\n        /* \"contracts/Zero2HeroWeek2StakingRewards.sol\":7463:7469  paused */\n      and(0xff, sload(0x0f))\n        /* \"contracts/Zero2HeroWeek2StakingRewards.sol\":7452:7469  _paused == paused */\n      iszero\n      iszero\n      dup2\n      iszero\n      iszero\n        /* \"contracts/Zero2HeroWeek2StakingRewards.sol\":7448:7502  if (_paused == paused) {... */\n      eq\n        /* \"contracts/Zero2HeroWeek2StakingRewards.sol\":7485:7492  return; */\n      tag_151\n        /* \"contracts/Zero2HeroWeek2StakingRewards.sol\":7448:7502  if (_paused == paused) {... */\n      jumpi\n        /* \"contracts/Zero2HeroWeek2StakingRewards.sol\":7545:7551  paused */\n      0x0f\n        /* \"contracts/Zero2HeroWeek2StakingRewards.sol\":7545:7561  paused = _paused */\n      dup1\n      sload\n      not(0xff)\n      and\n      dup3\n      iszero\n      iszero\n      swap1\n      dup2\n      or\n      swap1\n      swap2\n      sstore\n      0xff\n        /* \"contracts/Zero2HeroWeek2StakingRewards.sol\":7627:7633  paused */\n      and\n        /* \"contracts/Zero2HeroWeek2StakingRewards.sol\":7623:7691  if (paused) {... */\n      iszero\n      tag_153\n      jumpi\n        /* \"contracts/Zero2HeroWeek2StakingRewards.sol\":7665:7680  block.timestamp */\n      timestamp\n        /* \"contracts/Zero2HeroWeek2StakingRewards.sol\":7649:7662  lastPauseTime */\n      0x0e\n        /* \"contracts/Zero2HeroWeek2StakingRewards.sol\":7649:7680  lastPauseTime = block.timestamp */\n      sstore\n        /* \"contracts/Zero2HeroWeek2StakingRewards.sol\":7623:7691  if (paused) {... */\n    tag_153:\n        /* \"contracts/Zero2HeroWeek2StakingRewards.sol\":7782:7788  paused */\n      sload(0x0f)\n        /* \"contracts/Zero2HeroWeek2StakingRewards.sol\":7769:7789  PauseChanged(paused) */\n      mload(0x40)\n        /* \"contracts/Zero2HeroWeek2StakingRewards.sol\":7782:7788  paused */\n      0xff\n      swap1\n      swap2\n      and\n        /* \"#utility.yul\":1492:1506   */\n      iszero\n        /* \"#utility.yul\":1485:1507   */\n      iszero\n        /* \"#utility.yul\":1467:1508   */\n      dup2\n      mstore\n        /* \"contracts/Zero2HeroWeek2StakingRewards.sol\":7769:7789  PauseChanged(paused) */\n      0x8fb6c181ee25a520cf3dd6565006ef91229fcfe5a989566c2a3b8c115570cec5\n      swap1\n        /* \"#utility.yul\":1455:1457   */\n      0x20\n        /* \"#utility.yul\":1440:1458   */\n      add\n        /* \"contracts/Zero2HeroWeek2StakingRewards.sol\":7769:7789  PauseChanged(paused) */\n    tag_154:\n      mload(0x40)\n      dup1\n      swap2\n      sub\n      swap1\n      log1\n        /* \"@openzeppelin/contracts/access/Ownable.sol\":1117:1118  _ */\n    tag_151:\n        /* \"contracts/Zero2HeroWeek2StakingRewards.sol\":7312:7796  function setPaused(bool _paused) external onlyOwner {... */\n      pop\n      jump\t// out\n        /* \"contracts/Zero2HeroWeek2StakingRewards.sol\":6933:7073  function setRewardsDistribution(address _rewardsDistribution) external onlyOwner {... */\n    tag_59:\n        /* \"@openzeppelin/contracts/access/Ownable.sol\":1094:1107  _checkOwner() */\n      tag_157\n        /* \"@openzeppelin/contracts/access/Ownable.sol\":1094:1105  _checkOwner */\n      tag_150\n        /* \"@openzeppelin/contracts/access/Ownable.sol\":1094:1107  _checkOwner() */\n      jump\t// in\n    tag_157:\n        /* \"contracts/Zero2HeroWeek2StakingRewards.sol\":7024:7043  rewardsDistribution */\n      0x09\n        /* \"contracts/Zero2HeroWeek2StakingRewards.sol\":7024:7066  rewardsDistribution = _rewardsDistribution */\n      dup1\n      sload\n      not(sub(shl(0xa0, 0x01), 0x01))\n      and\n      sub(shl(0xa0, 0x01), 0x01)\n      swap3\n      swap1\n      swap3\n      and\n      swap2\n      swap1\n      swap2\n      or\n      swap1\n      sstore\n        /* \"contracts/Zero2HeroWeek2StakingRewards.sol\":6933:7073  function setRewardsDistribution(address _rewardsDistribution) external onlyOwner {... */\n      jump\t// out\n        /* \"contracts/Zero2HeroWeek2StakingRewards.sol\":2730:2849  function getRewardForDuration() external view returns (uint256) {... */\n    tag_61:\n        /* \"contracts/Zero2HeroWeek2StakingRewards.sol\":2785:2792  uint256 */\n      0x00\n        /* \"contracts/Zero2HeroWeek2StakingRewards.sol\":2811:2842  rewardRate.mul(rewardsDuration) */\n      tag_160\n        /* \"contracts/Zero2HeroWeek2StakingRewards.sol\":2826:2841  rewardsDuration */\n      sload(0x06)\n        /* \"contracts/Zero2HeroWeek2StakingRewards.sol\":2811:2821  rewardRate */\n      sload(0x05)\n        /* \"contracts/Zero2HeroWeek2StakingRewards.sol\":2811:2825  rewardRate.mul */\n      tag_145\n      swap1\n        /* \"contracts/Zero2HeroWeek2StakingRewards.sol\":2811:2842  rewardRate.mul(rewardsDuration) */\n      swap2\n      swap1\n      0xffffffff\n      and\n      jump\t// in\n    tag_160:\n        /* \"contracts/Zero2HeroWeek2StakingRewards.sol\":2804:2842  return rewardRate.mul(rewardsDuration) */\n      swap1\n      pop\n        /* \"contracts/Zero2HeroWeek2StakingRewards.sol\":2730:2849  function getRewardForDuration() external view returns (uint256) {... */\n      swap1\n      jump\t// out\n        /* \"contracts/Zero2HeroWeek2StakingRewards.sol\":3294:3653  function withdraw(uint256 amount) public nonReentrant updateReward(msg.sender) {... */\n    tag_66:\n        /* \"@openzeppelin/contracts/security/ReentrancyGuard.sol\":2261:2282  _nonReentrantBefore() */\n      tag_162\n        /* \"@openzeppelin/contracts/security/ReentrancyGuard.sol\":2261:2280  _nonReentrantBefore */\n      tag_163\n        /* \"@openzeppelin/contracts/security/ReentrancyGuard.sol\":2261:2282  _nonReentrantBefore() */\n      jump\t// in\n    tag_162:\n        /* \"contracts/Zero2HeroWeek2StakingRewards.sol\":3361:3371  msg.sender */\n      caller\n        /* \"contracts/Zero2HeroWeek2StakingRewards.sol\":6082:6098  rewardPerToken() */\n      tag_165\n        /* \"contracts/Zero2HeroWeek2StakingRewards.sol\":6082:6096  rewardPerToken */\n      tag_122\n        /* \"contracts/Zero2HeroWeek2StakingRewards.sol\":6082:6098  rewardPerToken() */\n      jump\t// in\n    tag_165:\n        /* \"contracts/Zero2HeroWeek2StakingRewards.sol\":6059:6079  rewardPerTokenStored */\n      0x08\n        /* \"contracts/Zero2HeroWeek2StakingRewards.sol\":6059:6098  rewardPerTokenStored = rewardPerToken() */\n      sstore\n        /* \"contracts/Zero2HeroWeek2StakingRewards.sol\":6125:6151  lastTimeRewardApplicable() */\n      tag_166\n        /* \"contracts/Zero2HeroWeek2StakingRewards.sol\":6125:6149  lastTimeRewardApplicable */\n      tag_96\n        /* \"contracts/Zero2HeroWeek2StakingRewards.sol\":6125:6151  lastTimeRewardApplicable() */\n      jump\t// in\n    tag_166:\n        /* \"contracts/Zero2HeroWeek2StakingRewards.sol\":6108:6122  lastUpdateTime */\n      0x07\n        /* \"contracts/Zero2HeroWeek2StakingRewards.sol\":6108:6151  lastUpdateTime = lastTimeRewardApplicable() */\n      sstore\n      sub(shl(0xa0, 0x01), 0x01)\n        /* \"contracts/Zero2HeroWeek2StakingRewards.sol\":6165:6186  account != address(0) */\n      dup2\n      and\n      iszero\n        /* \"contracts/Zero2HeroWeek2StakingRewards.sol\":6161:6315  if (account != address(0)) {... */\n      tag_167\n      jumpi\n        /* \"contracts/Zero2HeroWeek2StakingRewards.sol\":6221:6236  earned(account) */\n      tag_168\n        /* \"contracts/Zero2HeroWeek2StakingRewards.sol\":6228:6235  account */\n      dup2\n        /* \"contracts/Zero2HeroWeek2StakingRewards.sol\":6221:6227  earned */\n      tag_43\n        /* \"contracts/Zero2HeroWeek2StakingRewards.sol\":6221:6236  earned(account) */\n      jump\t// in\n    tag_168:\n      sub(shl(0xa0, 0x01), 0x01)\n        /* \"contracts/Zero2HeroWeek2StakingRewards.sol\":6202:6218  rewards[account] */\n      dup3\n      and\n      0x00\n      swap1\n      dup2\n      mstore\n        /* \"contracts/Zero2HeroWeek2StakingRewards.sol\":6202:6209  rewards */\n      0x0b\n        /* \"contracts/Zero2HeroWeek2StakingRewards.sol\":6202:6218  rewards[account] */\n      0x20\n      swap1\n      dup2\n      mstore\n      0x40\n      dup1\n      dup4\n      keccak256\n        /* \"contracts/Zero2HeroWeek2StakingRewards.sol\":6202:6236  rewards[account] = earned(account) */\n      swap4\n      swap1\n      swap4\n      sstore\n        /* \"contracts/Zero2HeroWeek2StakingRewards.sol\":6284:6304  rewardPerTokenStored */\n      sload(0x08)\n        /* \"contracts/Zero2HeroWeek2StakingRewards.sol\":6250:6272  userRewardPerTokenPaid */\n      0x0a\n        /* \"contracts/Zero2HeroWeek2StakingRewards.sol\":6250:6281  userRewardPerTokenPaid[account] */\n      swap1\n      swap2\n      mstore\n      swap2\n      swap1\n      keccak256\n        /* \"contracts/Zero2HeroWeek2StakingRewards.sol\":6250:6304  userRewardPerTokenPaid[account] = rewardPerTokenStored */\n      sstore\n        /* \"contracts/Zero2HeroWeek2StakingRewards.sol\":6161:6315  if (account != address(0)) {... */\n    tag_167:\n        /* \"contracts/Zero2HeroWeek2StakingRewards.sol\":3400:3401  0 */\n      0x00\n        /* \"contracts/Zero2HeroWeek2StakingRewards.sol\":3391:3397  amount */\n      dup3\n        /* \"contracts/Zero2HeroWeek2StakingRewards.sol\":3391:3401  amount > 0 */\n      gt\n        /* \"contracts/Zero2HeroWeek2StakingRewards.sol\":3383:3423  require(amount > 0, \"Cannot withdraw 0\") */\n      tag_170\n      jumpi\n      mload(0x40)\n      shl(0xe5, 0x461bcd)\n      dup2\n      mstore\n        /* \"#utility.yul\":1980:1982   */\n      0x20\n        /* \"contracts/Zero2HeroWeek2StakingRewards.sol\":3383:3423  require(amount > 0, \"Cannot withdraw 0\") */\n      0x04\n      dup3\n      add\n        /* \"#utility.yul\":1962:1983   */\n      mstore\n        /* \"#utility.yul\":2019:2021   */\n      0x11\n        /* \"#utility.yul\":1999:2017   */\n      0x24\n      dup3\n      add\n        /* \"#utility.yul\":1992:2022   */\n      mstore\n      shl(0x7c, 0x043616e6e6f74207769746864726177203)\n        /* \"#utility.yul\":2038:2056   */\n      0x44\n      dup3\n      add\n        /* \"#utility.yul\":2031:2078   */\n      mstore\n        /* \"#utility.yul\":2095:2113   */\n      0x64\n      add\n        /* \"contracts/Zero2HeroWeek2StakingRewards.sol\":3383:3423  require(amount > 0, \"Cannot withdraw 0\") */\n    tag_171:\n      mload(0x40)\n      dup1\n      swap2\n      sub\n      swap1\n      revert\n    tag_170:\n        /* \"contracts/Zero2HeroWeek2StakingRewards.sol\":3448:3460  _totalSupply */\n      sload(0x0c)\n        /* \"contracts/Zero2HeroWeek2StakingRewards.sol\":3448:3472  _totalSupply.sub(amount) */\n      tag_173\n      swap1\n        /* \"contracts/Zero2HeroWeek2StakingRewards.sol\":3465:3471  amount */\n      dup4\n        /* \"contracts/Zero2HeroWeek2StakingRewards.sol\":3448:3464  _totalSupply.sub */\n      tag_144\n        /* \"contracts/Zero2HeroWeek2StakingRewards.sol\":3448:3472  _totalSupply.sub(amount) */\n      jump\t// in\n    tag_173:\n        /* \"contracts/Zero2HeroWeek2StakingRewards.sol\":3433:3445  _totalSupply */\n      0x0c\n        /* \"contracts/Zero2HeroWeek2StakingRewards.sol\":3433:3472  _totalSupply = _totalSupply.sub(amount) */\n      sstore\n        /* \"contracts/Zero2HeroWeek2StakingRewards.sol\":3516:3526  msg.sender */\n      caller\n        /* \"contracts/Zero2HeroWeek2StakingRewards.sol\":3506:3527  _balances[msg.sender] */\n      0x00\n      swap1\n      dup2\n      mstore\n        /* \"contracts/Zero2HeroWeek2StakingRewards.sol\":3506:3515  _balances */\n      0x0d\n        /* \"contracts/Zero2HeroWeek2StakingRewards.sol\":3506:3527  _balances[msg.sender] */\n      0x20\n      mstore\n      0x40\n      swap1\n      keccak256\n      sload\n        /* \"contracts/Zero2HeroWeek2StakingRewards.sol\":3506:3539  _balances[msg.sender].sub(amount) */\n      tag_174\n      swap1\n        /* \"contracts/Zero2HeroWeek2StakingRewards.sol\":3532:3538  amount */\n      dup4\n        /* \"contracts/Zero2HeroWeek2StakingRewards.sol\":3506:3531  _balances[msg.sender].sub */\n      tag_144\n        /* \"contracts/Zero2HeroWeek2StakingRewards.sol\":3506:3539  _balances[msg.sender].sub(amount) */\n      jump\t// in\n    tag_174:\n        /* \"contracts/Zero2HeroWeek2StakingRewards.sol\":3492:3502  msg.sender */\n      caller\n        /* \"contracts/Zero2HeroWeek2StakingRewards.sol\":3482:3503  _balances[msg.sender] */\n      0x00\n      dup2\n      dup2\n      mstore\n        /* \"contracts/Zero2HeroWeek2StakingRewards.sol\":3482:3491  _balances */\n      0x0d\n        /* \"contracts/Zero2HeroWeek2StakingRewards.sol\":3482:3503  _balances[msg.sender] */\n      0x20\n      mstore\n      0x40\n      swap1\n      keccak256\n        /* \"contracts/Zero2HeroWeek2StakingRewards.sol\":3482:3539  _balances[msg.sender] = _balances[msg.sender].sub(amount) */\n      swap2\n      swap1\n      swap2\n      sstore\n        /* \"contracts/Zero2HeroWeek2StakingRewards.sol\":3556:3568  stakingToken */\n      sload(0x03)\n        /* \"contracts/Zero2HeroWeek2StakingRewards.sol\":3549:3602  IERC20(stakingToken).safeTransfer(msg.sender, amount) */\n      tag_175\n      swap2\n      sub(shl(0xa0, 0x01), 0x01)\n        /* \"contracts/Zero2HeroWeek2StakingRewards.sol\":3556:3568  stakingToken */\n      swap1\n      swap2\n      and\n      swap1\n        /* \"contracts/Zero2HeroWeek2StakingRewards.sol\":3595:3601  amount */\n      dup5\n        /* \"contracts/Zero2HeroWeek2StakingRewards.sol\":3549:3582  IERC20(stakingToken).safeTransfer */\n      tag_176\n        /* \"contracts/Zero2HeroWeek2StakingRewards.sol\":3549:3602  IERC20(stakingToken).safeTransfer(msg.sender, amount) */\n      jump\t// in\n    tag_175:\n        /* \"contracts/Zero2HeroWeek2StakingRewards.sol\":3617:3646  Withdrawn(msg.sender, amount) */\n      mload(0x40)\n        /* \"#utility.yul\":529:554   */\n      dup3\n      dup2\n      mstore\n        /* \"contracts/Zero2HeroWeek2StakingRewards.sol\":3627:3637  msg.sender */\n      caller\n      swap1\n        /* \"contracts/Zero2HeroWeek2StakingRewards.sol\":3617:3646  Withdrawn(msg.sender, amount) */\n      0x7084f5476618d8e60b11ef0d7d3f06914655adb8793e28ff7f018d4c76d505d5\n      swap1\n        /* \"#utility.yul\":517:519   */\n      0x20\n        /* \"#utility.yul\":502:520   */\n      add\n        /* \"contracts/Zero2HeroWeek2StakingRewards.sol\":3617:3646  Withdrawn(msg.sender, amount) */\n    tag_177:\n      mload(0x40)\n      dup1\n      swap2\n      sub\n      swap1\n      log2\n        /* \"@openzeppelin/contracts/security/ReentrancyGuard.sol\":2292:2293  _ */\n      pop\n        /* \"@openzeppelin/contracts/security/ReentrancyGuard.sol\":2303:2323  _nonReentrantAfter() */\n      tag_151\n        /* \"@openzeppelin/contracts/security/ReentrancyGuard.sol\":1716:1717  1 */\n      0x01\n        /* \"@openzeppelin/contracts/security/ReentrancyGuard.sol\":2809:2816  _status */\n      0x00\n        /* \"@openzeppelin/contracts/security/ReentrancyGuard.sol\":2809:2831  _status = _NOT_ENTERED */\n      sstore\n        /* \"@openzeppelin/contracts/security/ReentrancyGuard.sol\":2629:2838  function _nonReentrantAfter() private {... */\n      jump\n        /* \"contracts/Zero2HeroWeek2StakingRewards.sol\":4127:5199  function notifyRewardAmount(uint256 reward) external onlyRewardsDistribution updateReward(address(0)) {... */\n    tag_72:\n        /* \"contracts/Zero2HeroWeek2StakingRewards.sol\":6843:6862  rewardsDistribution */\n      and(sub(shl(0xa0, 0x01), 0x01), sload(0x09))\n        /* \"contracts/Zero2HeroWeek2StakingRewards.sol\":6829:6839  msg.sender */\n      caller\n        /* \"contracts/Zero2HeroWeek2StakingRewards.sol\":6829:6862  msg.sender == rewardsDistribution */\n      eq\n        /* \"contracts/Zero2HeroWeek2StakingRewards.sol\":6821:6909  require(msg.sender == rewardsDistribution, \"Caller is not RewardsDistribution contract\") */\n      tag_181\n      jumpi\n      mload(0x40)\n      shl(0xe5, 0x461bcd)\n      dup2\n      mstore\n        /* \"#utility.yul\":2326:2328   */\n      0x20\n        /* \"contracts/Zero2HeroWeek2StakingRewards.sol\":6821:6909  require(msg.sender == rewardsDistribution, \"Caller is not RewardsDistribution contract\") */\n      0x04\n      dup3\n      add\n        /* \"#utility.yul\":2308:2329   */\n      mstore\n        /* \"#utility.yul\":2365:2367   */\n      0x2a\n        /* \"#utility.yul\":2345:2363   */\n      0x24\n      dup3\n      add\n        /* \"#utility.yul\":2338:2368   */\n      mstore\n        /* \"#utility.yul\":2404:2438   */\n      0x43616c6c6572206973206e6f742052657761726473446973747269627574696f\n        /* \"#utility.yul\":2384:2402   */\n      0x44\n      dup3\n      add\n        /* \"#utility.yul\":2377:2439   */\n      mstore\n      shl(0xb2, 0x1b8818dbdb9d1c9858dd)\n        /* \"#utility.yul\":2455:2473   */\n      0x64\n      dup3\n      add\n        /* \"#utility.yul\":2448:2488   */\n      mstore\n        /* \"#utility.yul\":2505:2524   */\n      0x84\n      add\n        /* \"contracts/Zero2HeroWeek2StakingRewards.sol\":6821:6909  require(msg.sender == rewardsDistribution, \"Caller is not RewardsDistribution contract\") */\n      tag_171\n        /* \"#utility.yul\":2124:2530   */\n      jump\n        /* \"contracts/Zero2HeroWeek2StakingRewards.sol\":6821:6909  require(msg.sender == rewardsDistribution, \"Caller is not RewardsDistribution contract\") */\n    tag_181:\n        /* \"contracts/Zero2HeroWeek2StakingRewards.sol\":4225:4226  0 */\n      0x00\n        /* \"contracts/Zero2HeroWeek2StakingRewards.sol\":6082:6098  rewardPerToken() */\n      tag_185\n        /* \"contracts/Zero2HeroWeek2StakingRewards.sol\":6082:6096  rewardPerToken */\n      tag_122\n        /* \"contracts/Zero2HeroWeek2StakingRewards.sol\":6082:6098  rewardPerToken() */\n      jump\t// in\n    tag_185:\n        /* \"contracts/Zero2HeroWeek2StakingRewards.sol\":6059:6079  rewardPerTokenStored */\n      0x08\n        /* \"contracts/Zero2HeroWeek2StakingRewards.sol\":6059:6098  rewardPerTokenStored = rewardPerToken() */\n      sstore\n        /* \"contracts/Zero2HeroWeek2StakingRewards.sol\":6125:6151  lastTimeRewardApplicable() */\n      tag_186\n        /* \"contracts/Zero2HeroWeek2StakingRewards.sol\":6125:6149  lastTimeRewardApplicable */\n      tag_96\n        /* \"contracts/Zero2HeroWeek2StakingRewards.sol\":6125:6151  lastTimeRewardApplicable() */\n      jump\t// in\n    tag_186:\n        /* \"contracts/Zero2HeroWeek2StakingRewards.sol\":6108:6122  lastUpdateTime */\n      0x07\n        /* \"contracts/Zero2HeroWeek2StakingRewards.sol\":6108:6151  lastUpdateTime = lastTimeRewardApplicable() */\n      sstore\n      sub(shl(0xa0, 0x01), 0x01)\n        /* \"contracts/Zero2HeroWeek2StakingRewards.sol\":6165:6186  account != address(0) */\n      dup2\n      and\n      iszero\n        /* \"contracts/Zero2HeroWeek2StakingRewards.sol\":6161:6315  if (account != address(0)) {... */\n      tag_187\n      jumpi\n        /* \"contracts/Zero2HeroWeek2StakingRewards.sol\":6221:6236  earned(account) */\n      tag_188\n        /* \"contracts/Zero2HeroWeek2StakingRewards.sol\":6228:6235  account */\n      dup2\n        /* \"contracts/Zero2HeroWeek2StakingRewards.sol\":6221:6227  earned */\n      tag_43\n        /* \"contracts/Zero2HeroWeek2StakingRewards.sol\":6221:6236  earned(account) */\n      jump\t// in\n    tag_188:\n      sub(shl(0xa0, 0x01), 0x01)\n        /* \"contracts/Zero2HeroWeek2StakingRewards.sol\":6202:6218  rewards[account] */\n      dup3\n      and\n      0x00\n      swap1\n      dup2\n      mstore\n        /* \"contracts/Zero2HeroWeek2StakingRewards.sol\":6202:6209  rewards */\n      0x0b\n        /* \"contracts/Zero2HeroWeek2StakingRewards.sol\":6202:6218  rewards[account] */\n      0x20\n      swap1\n      dup2\n      mstore\n      0x40\n      dup1\n      dup4\n      keccak256\n        /* \"contracts/Zero2HeroWeek2StakingRewards.sol\":6202:6236  rewards[account] = earned(account) */\n      swap4\n      swap1\n      swap4\n      sstore\n        /* \"contracts/Zero2HeroWeek2StakingRewards.sol\":6284:6304  rewardPerTokenStored */\n      sload(0x08)\n        /* \"contracts/Zero2HeroWeek2StakingRewards.sol\":6250:6272  userRewardPerTokenPaid */\n      0x0a\n        /* \"contracts/Zero2HeroWeek2StakingRewards.sol\":6250:6281  userRewardPerTokenPaid[account] */\n      swap1\n      swap2\n      mstore\n      swap2\n      swap1\n      keccak256\n        /* \"contracts/Zero2HeroWeek2StakingRewards.sol\":6250:6304  userRewardPerTokenPaid[account] = rewardPerTokenStored */\n      sstore\n        /* \"contracts/Zero2HeroWeek2StakingRewards.sol\":6161:6315  if (account != address(0)) {... */\n    tag_187:\n        /* \"contracts/Zero2HeroWeek2StakingRewards.sol\":4262:4274  periodFinish */\n      sload(0x04)\n        /* \"contracts/Zero2HeroWeek2StakingRewards.sol\":4243:4258  block.timestamp */\n      timestamp\n        /* \"contracts/Zero2HeroWeek2StakingRewards.sol\":4243:4274  block.timestamp >= periodFinish */\n      lt\n        /* \"contracts/Zero2HeroWeek2StakingRewards.sol\":4239:4551  if (block.timestamp >= periodFinish) {... */\n      tag_190\n      jumpi\n        /* \"contracts/Zero2HeroWeek2StakingRewards.sol\":4314:4329  rewardsDuration */\n      sload(0x06)\n        /* \"contracts/Zero2HeroWeek2StakingRewards.sol\":4303:4330  reward.div(rewardsDuration) */\n      tag_191\n      swap1\n        /* \"contracts/Zero2HeroWeek2StakingRewards.sol\":4303:4309  reward */\n      dup4\n      swap1\n        /* \"contracts/Zero2HeroWeek2StakingRewards.sol\":4303:4313  reward.div */\n      tag_146\n        /* \"contracts/Zero2HeroWeek2StakingRewards.sol\":4303:4330  reward.div(rewardsDuration) */\n      jump\t// in\n    tag_191:\n        /* \"contracts/Zero2HeroWeek2StakingRewards.sol\":4290:4300  rewardRate */\n      0x05\n        /* \"contracts/Zero2HeroWeek2StakingRewards.sol\":4290:4330  rewardRate = reward.div(rewardsDuration) */\n      sstore\n        /* \"contracts/Zero2HeroWeek2StakingRewards.sol\":4239:4551  if (block.timestamp >= periodFinish) {... */\n      jump(tag_192)\n    tag_190:\n        /* \"contracts/Zero2HeroWeek2StakingRewards.sol\":4381:4393  periodFinish */\n      sload(0x04)\n        /* \"contracts/Zero2HeroWeek2StakingRewards.sol\":4361:4378  uint256 remaining */\n      0x00\n      swap1\n        /* \"contracts/Zero2HeroWeek2StakingRewards.sol\":4381:4414  periodFinish.sub(block.timestamp) */\n      tag_193\n      swap1\n        /* \"contracts/Zero2HeroWeek2StakingRewards.sol\":4398:4413  block.timestamp */\n      timestamp\n        /* \"contracts/Zero2HeroWeek2StakingRewards.sol\":4381:4397  periodFinish.sub */\n      tag_144\n        /* \"contracts/Zero2HeroWeek2StakingRewards.sol\":4381:4414  periodFinish.sub(block.timestamp) */\n      jump\t// in\n    tag_193:\n        /* \"contracts/Zero2HeroWeek2StakingRewards.sol\":4361:4414  uint256 remaining = periodFinish.sub(block.timestamp) */\n      swap1\n      pop\n        /* \"contracts/Zero2HeroWeek2StakingRewards.sol\":4428:4444  uint256 leftover */\n      0x00\n        /* \"contracts/Zero2HeroWeek2StakingRewards.sol\":4447:4472  remaining.mul(rewardRate) */\n      tag_194\n        /* \"contracts/Zero2HeroWeek2StakingRewards.sol\":4461:4471  rewardRate */\n      sload(0x05)\n        /* \"contracts/Zero2HeroWeek2StakingRewards.sol\":4447:4456  remaining */\n      dup4\n        /* \"contracts/Zero2HeroWeek2StakingRewards.sol\":4447:4460  remaining.mul */\n      tag_145\n      swap1\n        /* \"contracts/Zero2HeroWeek2StakingRewards.sol\":4447:4472  remaining.mul(rewardRate) */\n      swap2\n      swap1\n      0xffffffff\n      and\n      jump\t// in\n    tag_194:\n        /* \"contracts/Zero2HeroWeek2StakingRewards.sol\":4524:4539  rewardsDuration */\n      sload(0x06)\n        /* \"contracts/Zero2HeroWeek2StakingRewards.sol\":4428:4472  uint256 leftover = remaining.mul(rewardRate) */\n      swap1\n      swap2\n      pop\n        /* \"contracts/Zero2HeroWeek2StakingRewards.sol\":4499:4540  reward.add(leftover).div(rewardsDuration) */\n      tag_195\n      swap1\n        /* \"contracts/Zero2HeroWeek2StakingRewards.sol\":4499:4519  reward.add(leftover) */\n      tag_141\n        /* \"contracts/Zero2HeroWeek2StakingRewards.sol\":4499:4505  reward */\n      dup7\n        /* \"contracts/Zero2HeroWeek2StakingRewards.sol\":4428:4472  uint256 leftover = remaining.mul(rewardRate) */\n      dup5\n        /* \"contracts/Zero2HeroWeek2StakingRewards.sol\":4499:4509  reward.add */\n      tag_147\n        /* \"contracts/Zero2HeroWeek2StakingRewards.sol\":4499:4519  reward.add(leftover) */\n      jump\t// in\n        /* \"contracts/Zero2HeroWeek2StakingRewards.sol\":4499:4540  reward.add(leftover).div(rewardsDuration) */\n    tag_195:\n        /* \"contracts/Zero2HeroWeek2StakingRewards.sol\":4486:4496  rewardRate */\n      0x05\n        /* \"contracts/Zero2HeroWeek2StakingRewards.sol\":4486:4540  rewardRate = reward.add(leftover).div(rewardsDuration) */\n      sstore\n      pop\n      pop\n        /* \"contracts/Zero2HeroWeek2StakingRewards.sol\":4239:4551  if (block.timestamp >= periodFinish) {... */\n    tag_192:\n        /* \"contracts/Zero2HeroWeek2StakingRewards.sol\":4927:4939  rewardsToken */\n      sload(0x02)\n        /* \"contracts/Zero2HeroWeek2StakingRewards.sol\":4920:4965  IERC20(rewardsToken).balanceOf(address(this)) */\n      mload(0x40)\n      shl(0xe0, 0x70a08231)\n      dup2\n      mstore\n        /* \"contracts/Zero2HeroWeek2StakingRewards.sol\":4959:4963  this */\n      address\n        /* \"contracts/Zero2HeroWeek2StakingRewards.sol\":4920:4965  IERC20(rewardsToken).balanceOf(address(this)) */\n      0x04\n      dup3\n      add\n        /* \"#utility.yul\":1265:1316   */\n      mstore\n        /* \"contracts/Zero2HeroWeek2StakingRewards.sol\":4905:4917  uint balance */\n      0x00\n      swap2\n      sub(shl(0xa0, 0x01), 0x01)\n        /* \"contracts/Zero2HeroWeek2StakingRewards.sol\":4927:4939  rewardsToken */\n      and\n      swap1\n        /* \"contracts/Zero2HeroWeek2StakingRewards.sol\":4920:4950  IERC20(rewardsToken).balanceOf */\n      0x70a08231\n      swap1\n        /* \"#utility.yul\":1238:1256   */\n      0x24\n      add\n        /* \"contracts/Zero2HeroWeek2StakingRewards.sol\":4920:4965  IERC20(rewardsToken).balanceOf(address(this)) */\n      0x20\n      mload(0x40)\n      dup1\n      dup4\n      sub\n      dup2\n      dup7\n      gas\n      staticcall\n      iszero\n      dup1\n      iszero\n      tag_199\n      jumpi\n      returndatasize\n      0x00\n      dup1\n      returndatacopy\n      revert(0x00, returndatasize)\n    tag_199:\n      pop\n      pop\n      pop\n      pop\n      mload(0x40)\n      returndatasize\n      not(0x1f)\n      0x1f\n      dup3\n      add\n      and\n      dup3\n      add\n      dup1\n      0x40\n      mstore\n      pop\n      dup2\n      add\n      swap1\n      tag_200\n      swap2\n      swap1\n      tag_201\n      jump\t// in\n    tag_200:\n        /* \"contracts/Zero2HeroWeek2StakingRewards.sol\":4905:4965  uint balance = IERC20(rewardsToken).balanceOf(address(this)) */\n      swap1\n      pop\n        /* \"contracts/Zero2HeroWeek2StakingRewards.sol\":4997:5025  balance.div(rewardsDuration) */\n      tag_202\n        /* \"contracts/Zero2HeroWeek2StakingRewards.sol\":5009:5024  rewardsDuration */\n      sload(0x06)\n        /* \"contracts/Zero2HeroWeek2StakingRewards.sol\":4997:5004  balance */\n      dup3\n        /* \"contracts/Zero2HeroWeek2StakingRewards.sol\":4997:5008  balance.div */\n      tag_146\n      swap1\n        /* \"contracts/Zero2HeroWeek2StakingRewards.sol\":4997:5025  balance.div(rewardsDuration) */\n      swap2\n      swap1\n      0xffffffff\n      and\n      jump\t// in\n    tag_202:\n        /* \"contracts/Zero2HeroWeek2StakingRewards.sol\":4983:4993  rewardRate */\n      sload(0x05)\n        /* \"contracts/Zero2HeroWeek2StakingRewards.sol\":4983:5025  rewardRate <= balance.div(rewardsDuration) */\n      gt\n      iszero\n        /* \"contracts/Zero2HeroWeek2StakingRewards.sol\":4975:5054  require(rewardRate <= balance.div(rewardsDuration), \"Provided reward too high\") */\n      tag_203\n      jumpi\n      mload(0x40)\n      shl(0xe5, 0x461bcd)\n      dup2\n      mstore\n        /* \"#utility.yul\":2926:2928   */\n      0x20\n        /* \"contracts/Zero2HeroWeek2StakingRewards.sol\":4975:5054  require(rewardRate <= balance.div(rewardsDuration), \"Provided reward too high\") */\n      0x04\n      dup3\n      add\n        /* \"#utility.yul\":2908:2929   */\n      mstore\n        /* \"#utility.yul\":2965:2967   */\n      0x18\n        /* \"#utility.yul\":2945:2963   */\n      0x24\n      dup3\n      add\n        /* \"#utility.yul\":2938:2968   */\n      mstore\n        /* \"#utility.yul\":3004:3030   */\n      0x50726f76696465642072657761726420746f6f20686967680000000000000000\n        /* \"#utility.yul\":2984:3002   */\n      0x44\n      dup3\n      add\n        /* \"#utility.yul\":2977:3031   */\n      mstore\n        /* \"#utility.yul\":3048:3066   */\n      0x64\n      add\n        /* \"contracts/Zero2HeroWeek2StakingRewards.sol\":4975:5054  require(rewardRate <= balance.div(rewardsDuration), \"Provided reward too high\") */\n      tag_171\n        /* \"#utility.yul\":2724:3072   */\n      jump\n        /* \"contracts/Zero2HeroWeek2StakingRewards.sol\":4975:5054  require(rewardRate <= balance.div(rewardsDuration), \"Provided reward too high\") */\n    tag_203:\n        /* \"contracts/Zero2HeroWeek2StakingRewards.sol\":5082:5097  block.timestamp */\n      timestamp\n        /* \"contracts/Zero2HeroWeek2StakingRewards.sol\":5065:5079  lastUpdateTime */\n      0x07\n        /* \"contracts/Zero2HeroWeek2StakingRewards.sol\":5065:5097  lastUpdateTime = block.timestamp */\n      dup2\n      swap1\n      sstore\n        /* \"contracts/Zero2HeroWeek2StakingRewards.sol\":5142:5157  rewardsDuration */\n      sload(0x06)\n        /* \"contracts/Zero2HeroWeek2StakingRewards.sol\":5122:5158  block.timestamp.add(rewardsDuration) */\n      tag_206\n      swap2\n        /* \"contracts/Zero2HeroWeek2StakingRewards.sol\":5082:5097  block.timestamp */\n      swap1\n        /* \"contracts/Zero2HeroWeek2StakingRewards.sol\":5122:5141  block.timestamp.add */\n      tag_147\n        /* \"contracts/Zero2HeroWeek2StakingRewards.sol\":5122:5158  block.timestamp.add(rewardsDuration) */\n      jump\t// in\n    tag_206:\n        /* \"contracts/Zero2HeroWeek2StakingRewards.sol\":5107:5119  periodFinish */\n      0x04\n        /* \"contracts/Zero2HeroWeek2StakingRewards.sol\":5107:5158  periodFinish = block.timestamp.add(rewardsDuration) */\n      sstore\n        /* \"contracts/Zero2HeroWeek2StakingRewards.sol\":5173:5192  RewardAdded(reward) */\n      mload(0x40)\n        /* \"#utility.yul\":529:554   */\n      dup4\n      dup2\n      mstore\n        /* \"contracts/Zero2HeroWeek2StakingRewards.sol\":5173:5192  RewardAdded(reward) */\n      0xde88a922e0d3b88b24e9623efeb464919c6bf9f66857a65e2bfcf2ce87a9433d\n      swap1\n        /* \"#utility.yul\":517:519   */\n      0x20\n        /* \"#utility.yul\":502:520   */\n      add\n        /* \"contracts/Zero2HeroWeek2StakingRewards.sol\":5173:5192  RewardAdded(reward) */\n      mload(0x40)\n      dup1\n      swap2\n      sub\n      swap1\n      log1\n        /* \"contracts/Zero2HeroWeek2StakingRewards.sol\":4229:5199  {... */\n      pop\n        /* \"contracts/Zero2HeroWeek2StakingRewards.sol\":6919:6920  _ */\n      pop\n        /* \"contracts/Zero2HeroWeek2StakingRewards.sol\":4127:5199  function notifyRewardAmount(uint256 reward) external onlyRewardsDistribution updateReward(address(0)) {... */\n      pop\n      jump\t// out\n        /* \"contracts/Zero2HeroWeek2StakingRewards.sol\":3659:3967  function getReward() public nonReentrant updateReward(msg.sender) {... */\n    tag_74:\n        /* \"@openzeppelin/contracts/security/ReentrancyGuard.sol\":2261:2282  _nonReentrantBefore() */\n      tag_209\n        /* \"@openzeppelin/contracts/security/ReentrancyGuard.sol\":2261:2280  _nonReentrantBefore */\n      tag_163\n        /* \"@openzeppelin/contracts/security/ReentrancyGuard.sol\":2261:2282  _nonReentrantBefore() */\n      jump\t// in\n    tag_209:\n        /* \"contracts/Zero2HeroWeek2StakingRewards.sol\":3713:3723  msg.sender */\n      caller\n        /* \"contracts/Zero2HeroWeek2StakingRewards.sol\":6082:6098  rewardPerToken() */\n      tag_211\n        /* \"contracts/Zero2HeroWeek2StakingRewards.sol\":6082:6096  rewardPerToken */\n      tag_122\n        /* \"contracts/Zero2HeroWeek2StakingRewards.sol\":6082:6098  rewardPerToken() */\n      jump\t// in\n    tag_211:\n        /* \"contracts/Zero2HeroWeek2StakingRewards.sol\":6059:6079  rewardPerTokenStored */\n      0x08\n        /* \"contracts/Zero2HeroWeek2StakingRewards.sol\":6059:6098  rewardPerTokenStored = rewardPerToken() */\n      sstore\n        /* \"contracts/Zero2HeroWeek2StakingRewards.sol\":6125:6151  lastTimeRewardApplicable() */\n      tag_212\n        /* \"contracts/Zero2HeroWeek2StakingRewards.sol\":6125:6149  lastTimeRewardApplicable */\n      tag_96\n        /* \"contracts/Zero2HeroWeek2StakingRewards.sol\":6125:6151  lastTimeRewardApplicable() */\n      jump\t// in\n    tag_212:\n        /* \"contracts/Zero2HeroWeek2StakingRewards.sol\":6108:6122  lastUpdateTime */\n      0x07\n        /* \"contracts/Zero2HeroWeek2StakingRewards.sol\":6108:6151  lastUpdateTime = lastTimeRewardApplicable() */\n      sstore\n      sub(shl(0xa0, 0x01), 0x01)\n        /* \"contracts/Zero2HeroWeek2StakingRewards.sol\":6165:6186  account != address(0) */\n      dup2\n      and\n      iszero\n        /* \"contracts/Zero2HeroWeek2StakingRewards.sol\":6161:6315  if (account != address(0)) {... */\n      tag_213\n      jumpi\n        /* \"contracts/Zero2HeroWeek2StakingRewards.sol\":6221:6236  earned(account) */\n      tag_214\n        /* \"contracts/Zero2HeroWeek2StakingRewards.sol\":6228:6235  account */\n      dup2\n        /* \"contracts/Zero2HeroWeek2StakingRewards.sol\":6221:6227  earned */\n      tag_43\n        /* \"contracts/Zero2HeroWeek2StakingRewards.sol\":6221:6236  earned(account) */\n      jump\t// in\n    tag_214:\n      sub(shl(0xa0, 0x01), 0x01)\n        /* \"contracts/Zero2HeroWeek2StakingRewards.sol\":6202:6218  rewards[account] */\n      dup3\n      and\n      0x00\n      swap1\n      dup2\n      mstore\n        /* \"contracts/Zero2HeroWeek2StakingRewards.sol\":6202:6209  rewards */\n      0x0b\n        /* \"contracts/Zero2HeroWeek2StakingRewards.sol\":6202:6218  rewards[account] */\n      0x20\n      swap1\n      dup2\n      mstore\n      0x40\n      dup1\n      dup4\n      keccak256\n        /* \"contracts/Zero2HeroWeek2StakingRewards.sol\":6202:6236  rewards[account] = earned(account) */\n      swap4\n      swap1\n      swap4\n      sstore\n        /* \"contracts/Zero2HeroWeek2StakingRewards.sol\":6284:6304  rewardPerTokenStored */\n      sload(0x08)\n        /* \"contracts/Zero2HeroWeek2StakingRewards.sol\":6250:6272  userRewardPerTokenPaid */\n      0x0a\n        /* \"contracts/Zero2HeroWeek2StakingRewards.sol\":6250:6281  userRewardPerTokenPaid[account] */\n      swap1\n      swap2\n      mstore\n      swap2\n      swap1\n      keccak256\n        /* \"contracts/Zero2HeroWeek2StakingRewards.sol\":6250:6304  userRewardPerTokenPaid[account] = rewardPerTokenStored */\n      sstore\n        /* \"contracts/Zero2HeroWeek2StakingRewards.sol\":6161:6315  if (account != address(0)) {... */\n    tag_213:\n        /* \"contracts/Zero2HeroWeek2StakingRewards.sol\":3760:3770  msg.sender */\n      caller\n        /* \"contracts/Zero2HeroWeek2StakingRewards.sol\":3735:3749  uint256 reward */\n      0x00\n        /* \"contracts/Zero2HeroWeek2StakingRewards.sol\":3752:3771  rewards[msg.sender] */\n      swap1\n      dup2\n      mstore\n        /* \"contracts/Zero2HeroWeek2StakingRewards.sol\":3752:3759  rewards */\n      0x0b\n        /* \"contracts/Zero2HeroWeek2StakingRewards.sol\":3752:3771  rewards[msg.sender] */\n      0x20\n      mstore\n      0x40\n      swap1\n      keccak256\n      sload\n        /* \"contracts/Zero2HeroWeek2StakingRewards.sol\":3785:3795  reward > 0 */\n      dup1\n      iszero\n        /* \"contracts/Zero2HeroWeek2StakingRewards.sol\":3781:3961  if (reward > 0) {... */\n      tag_216\n      jumpi\n        /* \"contracts/Zero2HeroWeek2StakingRewards.sol\":3819:3829  msg.sender */\n      caller\n        /* \"contracts/Zero2HeroWeek2StakingRewards.sol\":3833:3834  0 */\n      0x00\n        /* \"contracts/Zero2HeroWeek2StakingRewards.sol\":3811:3830  rewards[msg.sender] */\n      dup2\n      dup2\n      mstore\n        /* \"contracts/Zero2HeroWeek2StakingRewards.sol\":3811:3818  rewards */\n      0x0b\n        /* \"contracts/Zero2HeroWeek2StakingRewards.sol\":3811:3830  rewards[msg.sender] */\n      0x20\n      mstore\n      0x40\n      dup2\n      keccak256\n        /* \"contracts/Zero2HeroWeek2StakingRewards.sol\":3811:3834  rewards[msg.sender] = 0 */\n      sstore\n        /* \"contracts/Zero2HeroWeek2StakingRewards.sol\":3855:3867  rewardsToken */\n      sload(0x02)\n        /* \"contracts/Zero2HeroWeek2StakingRewards.sol\":3848:3901  IERC20(rewardsToken).safeTransfer(msg.sender, reward) */\n      tag_217\n      swap2\n      sub(shl(0xa0, 0x01), 0x01)\n        /* \"contracts/Zero2HeroWeek2StakingRewards.sol\":3855:3867  rewardsToken */\n      swap1\n      swap2\n      and\n      swap1\n        /* \"contracts/Zero2HeroWeek2StakingRewards.sol\":3894:3900  reward */\n      dup4\n        /* \"contracts/Zero2HeroWeek2StakingRewards.sol\":3848:3881  IERC20(rewardsToken).safeTransfer */\n      tag_176\n        /* \"contracts/Zero2HeroWeek2StakingRewards.sol\":3848:3901  IERC20(rewardsToken).safeTransfer(msg.sender, reward) */\n      jump\t// in\n    tag_217:\n        /* \"contracts/Zero2HeroWeek2StakingRewards.sol\":3920:3950  RewardPaid(msg.sender, reward) */\n      mload(0x40)\n        /* \"#utility.yul\":529:554   */\n      dup2\n      dup2\n      mstore\n        /* \"contracts/Zero2HeroWeek2StakingRewards.sol\":3931:3941  msg.sender */\n      caller\n      swap1\n        /* \"contracts/Zero2HeroWeek2StakingRewards.sol\":3920:3950  RewardPaid(msg.sender, reward) */\n      0xe2403640ba68fed3a2f88b7557551d1993f84b99bb10ff833f0cf8db0c5e0486\n      swap1\n        /* \"#utility.yul\":517:519   */\n      0x20\n        /* \"#utility.yul\":502:520   */\n      add\n        /* \"contracts/Zero2HeroWeek2StakingRewards.sol\":3920:3950  RewardPaid(msg.sender, reward) */\n      mload(0x40)\n      dup1\n      swap2\n      sub\n      swap1\n      log2\n        /* \"contracts/Zero2HeroWeek2StakingRewards.sol\":3781:3961  if (reward > 0) {... */\n    tag_216:\n        /* \"contracts/Zero2HeroWeek2StakingRewards.sol\":3725:3967  {... */\n      pop\n        /* \"@openzeppelin/contracts/security/ReentrancyGuard.sol\":2292:2293  _ */\n      pop\n        /* \"@openzeppelin/contracts/security/ReentrancyGuard.sol\":2303:2323  _nonReentrantAfter() */\n      tag_219\n        /* \"@openzeppelin/contracts/security/ReentrancyGuard.sol\":1716:1717  1 */\n      0x01\n        /* \"@openzeppelin/contracts/security/ReentrancyGuard.sol\":2809:2816  _status */\n      0x00\n        /* \"@openzeppelin/contracts/security/ReentrancyGuard.sol\":2809:2831  _status = _NOT_ENTERED */\n      sstore\n        /* \"@openzeppelin/contracts/security/ReentrancyGuard.sol\":2629:2838  function _nonReentrantAfter() private {... */\n      jump\n        /* \"@openzeppelin/contracts/security/ReentrancyGuard.sol\":2303:2323  _nonReentrantAfter() */\n    tag_219:\n        /* \"contracts/Zero2HeroWeek2StakingRewards.sol\":3659:3967  function getReward() public nonReentrant updateReward(msg.sender) {... */\n      jump\t// out\n        /* \"@openzeppelin/contracts/access/Ownable.sol\":1831:1932  function renounceOwnership() public virtual onlyOwner {... */\n    tag_88:\n        /* \"@openzeppelin/contracts/access/Ownable.sol\":1094:1107  _checkOwner() */\n      tag_222\n        /* \"@openzeppelin/contracts/access/Ownable.sol\":1094:1105  _checkOwner */\n      tag_150\n        /* \"@openzeppelin/contracts/access/Ownable.sol\":1094:1107  _checkOwner() */\n      jump\t// in\n    tag_222:\n        /* \"@openzeppelin/contracts/access/Ownable.sol\":1895:1925  _transferOwnership(address(0)) */\n      tag_219\n        /* \"@openzeppelin/contracts/access/Ownable.sol\":1922:1923  0 */\n      0x00\n        /* \"@openzeppelin/contracts/access/Ownable.sol\":1895:1913  _transferOwnership */\n      tag_225\n        /* \"@openzeppelin/contracts/access/Ownable.sol\":1895:1925  _transferOwnership(address(0)) */\n      jump\t// in\n        /* \"contracts/Zero2HeroWeek2StakingRewards.sol\":2041:2194  function lastTimeRewardApplicable() public view returns (uint256) {... */\n    tag_96:\n        /* \"contracts/Zero2HeroWeek2StakingRewards.sol\":2098:2105  uint256 */\n      0x00\n        /* \"contracts/Zero2HeroWeek2StakingRewards.sol\":2142:2154  periodFinish */\n      sload(0x04)\n        /* \"contracts/Zero2HeroWeek2StakingRewards.sol\":2124:2139  block.timestamp */\n      timestamp\n        /* \"contracts/Zero2HeroWeek2StakingRewards.sol\":2124:2154  block.timestamp < periodFinish */\n      lt\n        /* \"contracts/Zero2HeroWeek2StakingRewards.sol\":2124:2187  block.timestamp < periodFinish ? block.timestamp : periodFinish */\n      tag_227\n      jumpi\n      pop\n        /* \"contracts/Zero2HeroWeek2StakingRewards.sol\":2175:2187  periodFinish */\n      sload(0x04)\n      swap1\n        /* \"contracts/Zero2HeroWeek2StakingRewards.sol\":2730:2849  function getRewardForDuration() external view returns (uint256) {... */\n      jump\t// out\n        /* \"contracts/Zero2HeroWeek2StakingRewards.sol\":2124:2187  block.timestamp < periodFinish ? block.timestamp : periodFinish */\n    tag_227:\n      pop\n        /* \"contracts/Zero2HeroWeek2StakingRewards.sol\":2157:2172  block.timestamp */\n      timestamp\n      swap1\n        /* \"contracts/Zero2HeroWeek2StakingRewards.sol\":2041:2194  function lastTimeRewardApplicable() public view returns (uint256) {... */\n      jump\t// out\n        /* \"contracts/Zero2HeroWeek2StakingRewards.sol\":5311:5602  function recoverERC20(address tokenAddress, uint256 tokenAmount) external onlyOwner {... */\n    tag_101:\n        /* \"@openzeppelin/contracts/access/Ownable.sol\":1094:1107  _checkOwner() */\n      tag_230\n        /* \"@openzeppelin/contracts/access/Ownable.sol\":1094:1105  _checkOwner */\n      tag_150\n        /* \"@openzeppelin/contracts/access/Ownable.sol\":1094:1107  _checkOwner() */\n      jump\t// in\n    tag_230:\n        /* \"contracts/Zero2HeroWeek2StakingRewards.sol\":5429:5441  stakingToken */\n      sload(0x03)\n      sub(shl(0xa0, 0x01), 0x01)\n      swap1\n      dup2\n      and\n        /* \"contracts/Zero2HeroWeek2StakingRewards.sol\":5413:5441  tokenAddress != stakingToken */\n      swap1\n      dup4\n      and\n      sub\n        /* \"contracts/Zero2HeroWeek2StakingRewards.sol\":5405:5479  require(tokenAddress != stakingToken, \"Cannot withdraw the staking token\") */\n      tag_232\n      jumpi\n      mload(0x40)\n      shl(0xe5, 0x461bcd)\n      dup2\n      mstore\n        /* \"#utility.yul\":3279:3281   */\n      0x20\n        /* \"contracts/Zero2HeroWeek2StakingRewards.sol\":5405:5479  require(tokenAddress != stakingToken, \"Cannot withdraw the staking token\") */\n      0x04\n      dup3\n      add\n        /* \"#utility.yul\":3261:3282   */\n      mstore\n        /* \"#utility.yul\":3318:3320   */\n      0x21\n        /* \"#utility.yul\":3298:3316   */\n      0x24\n      dup3\n      add\n        /* \"#utility.yul\":3291:3321   */\n      mstore\n        /* \"#utility.yul\":3357:3391   */\n      0x43616e6e6f7420776974686472617720746865207374616b696e6720746f6b65\n        /* \"#utility.yul\":3337:3355   */\n      0x44\n      dup3\n      add\n        /* \"#utility.yul\":3330:3392   */\n      mstore\n      shl(0xf9, 0x37)\n        /* \"#utility.yul\":3408:3426   */\n      0x64\n      dup3\n      add\n        /* \"#utility.yul\":3401:3432   */\n      mstore\n        /* \"#utility.yul\":3449:3468   */\n      0x84\n      add\n        /* \"contracts/Zero2HeroWeek2StakingRewards.sol\":5405:5479  require(tokenAddress != stakingToken, \"Cannot withdraw the staking token\") */\n      tag_171\n        /* \"#utility.yul\":3077:3474   */\n      jump\n        /* \"contracts/Zero2HeroWeek2StakingRewards.sol\":5405:5479  require(tokenAddress != stakingToken, \"Cannot withdraw the staking token\") */\n    tag_232:\n        /* \"contracts/Zero2HeroWeek2StakingRewards.sol\":5489:5544  IERC20(tokenAddress).safeTransfer(owner(), tokenAmount) */\n      tag_235\n        /* \"contracts/Zero2HeroWeek2StakingRewards.sol\":5523:5530  owner() */\n      tag_236\n        /* \"@openzeppelin/contracts/access/Ownable.sol\":1273:1279  _owner */\n      and(sub(shl(0xa0, 0x01), 0x01), sload(0x01))\n      swap1\n        /* \"@openzeppelin/contracts/access/Ownable.sol\":1201:1286  function owner() public view virtual returns (address) {... */\n      jump\n        /* \"contracts/Zero2HeroWeek2StakingRewards.sol\":5523:5530  owner() */\n    tag_236:\n      sub(shl(0xa0, 0x01), 0x01)\n        /* \"contracts/Zero2HeroWeek2StakingRewards.sol\":5489:5522  IERC20(tokenAddress).safeTransfer */\n      dup5\n      and\n      swap1\n        /* \"contracts/Zero2HeroWeek2StakingRewards.sol\":5532:5543  tokenAmount */\n      dup4\n        /* \"contracts/Zero2HeroWeek2StakingRewards.sol\":5489:5522  IERC20(tokenAddress).safeTransfer */\n      tag_176\n        /* \"contracts/Zero2HeroWeek2StakingRewards.sol\":5489:5544  IERC20(tokenAddress).safeTransfer(owner(), tokenAmount) */\n      jump\t// in\n    tag_235:\n        /* \"contracts/Zero2HeroWeek2StakingRewards.sol\":5559:5595  Recovered(tokenAddress, tokenAmount) */\n      0x40\n      dup1\n      mload\n      sub(shl(0xa0, 0x01), 0x01)\n        /* \"#utility.yul\":3671:3703   */\n      dup5\n      and\n        /* \"#utility.yul\":3653:3704   */\n      dup2\n      mstore\n        /* \"#utility.yul\":3735:3737   */\n      0x20\n        /* \"#utility.yul\":3720:3738   */\n      dup2\n      add\n        /* \"#utility.yul\":3713:3747   */\n      dup4\n      swap1\n      mstore\n        /* \"contracts/Zero2HeroWeek2StakingRewards.sol\":5559:5595  Recovered(tokenAddress, tokenAmount) */\n      0x8c1256b8896378cd5044f80c202f9772b9d77dc85c8a6eb51967210b09bfaa28\n      swap2\n        /* \"#utility.yul\":3626:3644   */\n      add\n        /* \"contracts/Zero2HeroWeek2StakingRewards.sol\":5559:5595  Recovered(tokenAddress, tokenAmount) */\n      mload(0x40)\n      dup1\n      swap2\n      sub\n      swap1\n      log1\n        /* \"contracts/Zero2HeroWeek2StakingRewards.sol\":5311:5602  function recoverERC20(address tokenAddress, uint256 tokenAmount) external onlyOwner {... */\n      pop\n      pop\n      jump\t// out\n        /* \"contracts/Zero2HeroWeek2StakingRewards.sol\":2907:3288  function stake(uint256 amount) external nonReentrant notPaused updateReward(msg.sender) {... */\n    tag_114:\n        /* \"@openzeppelin/contracts/security/ReentrancyGuard.sol\":2261:2282  _nonReentrantBefore() */\n      tag_241\n        /* \"@openzeppelin/contracts/security/ReentrancyGuard.sol\":2261:2280  _nonReentrantBefore */\n      tag_163\n        /* \"@openzeppelin/contracts/security/ReentrancyGuard.sol\":2261:2282  _nonReentrantBefore() */\n      jump\t// in\n    tag_241:\n        /* \"contracts/Zero2HeroWeek2StakingRewards.sol\":7880:7886  paused */\n      and(0xff, sload(0x0f))\n        /* \"contracts/Zero2HeroWeek2StakingRewards.sol\":7879:7886  !paused */\n      iszero\n        /* \"contracts/Zero2HeroWeek2StakingRewards.sol\":7871:7951  require(!paused, \"This action cannot be performed while the contract is paused\") */\n      tag_243\n      jumpi\n      mload(0x40)\n      shl(0xe5, 0x461bcd)\n      dup2\n      mstore\n        /* \"#utility.yul\":3960:3962   */\n      0x20\n        /* \"contracts/Zero2HeroWeek2StakingRewards.sol\":7871:7951  require(!paused, \"This action cannot be performed while the contract is paused\") */\n      0x04\n      dup3\n      add\n        /* \"#utility.yul\":3942:3963   */\n      mstore\n        /* \"#utility.yul\":3999:4001   */\n      0x3c\n        /* \"#utility.yul\":3979:3997   */\n      0x24\n      dup3\n      add\n        /* \"#utility.yul\":3972:4002   */\n      mstore\n        /* \"#utility.yul\":4038:4072   */\n      0x5468697320616374696f6e2063616e6e6f7420626520706572666f726d656420\n        /* \"#utility.yul\":4018:4036   */\n      0x44\n      dup3\n      add\n        /* \"#utility.yul\":4011:4073   */\n      mstore\n        /* \"#utility.yul\":4109:4139   */\n      0x7768696c652074686520636f6e74726163742069732070617573656400000000\n        /* \"#utility.yul\":4089:4107   */\n      0x64\n      dup3\n      add\n        /* \"#utility.yul\":4082:4140   */\n      mstore\n        /* \"#utility.yul\":4157:4176   */\n      0x84\n      add\n        /* \"contracts/Zero2HeroWeek2StakingRewards.sol\":7871:7951  require(!paused, \"This action cannot be performed while the contract is paused\") */\n      tag_171\n        /* \"#utility.yul\":3758:4182   */\n      jump\n        /* \"contracts/Zero2HeroWeek2StakingRewards.sol\":7871:7951  require(!paused, \"This action cannot be performed while the contract is paused\") */\n    tag_243:\n        /* \"contracts/Zero2HeroWeek2StakingRewards.sol\":2983:2993  msg.sender */\n      caller\n        /* \"contracts/Zero2HeroWeek2StakingRewards.sol\":6082:6098  rewardPerToken() */\n      tag_247\n        /* \"contracts/Zero2HeroWeek2StakingRewards.sol\":6082:6096  rewardPerToken */\n      tag_122\n        /* \"contracts/Zero2HeroWeek2StakingRewards.sol\":6082:6098  rewardPerToken() */\n      jump\t// in\n    tag_247:\n        /* \"contracts/Zero2HeroWeek2StakingRewards.sol\":6059:6079  rewardPerTokenStored */\n      0x08\n        /* \"contracts/Zero2HeroWeek2StakingRewards.sol\":6059:6098  rewardPerTokenStored = rewardPerToken() */\n      sstore\n        /* \"contracts/Zero2HeroWeek2StakingRewards.sol\":6125:6151  lastTimeRewardApplicable() */\n      tag_248\n        /* \"contracts/Zero2HeroWeek2StakingRewards.sol\":6125:6149  lastTimeRewardApplicable */\n      tag_96\n        /* \"contracts/Zero2HeroWeek2StakingRewards.sol\":6125:6151  lastTimeRewardApplicable() */\n      jump\t// in\n    tag_248:\n        /* \"contracts/Zero2HeroWeek2StakingRewards.sol\":6108:6122  lastUpdateTime */\n      0x07\n        /* \"contracts/Zero2HeroWeek2StakingRewards.sol\":6108:6151  lastUpdateTime = lastTimeRewardApplicable() */\n      sstore\n      sub(shl(0xa0, 0x01), 0x01)\n        /* \"contracts/Zero2HeroWeek2StakingRewards.sol\":6165:6186  account != address(0) */\n      dup2\n      and\n      iszero\n        /* \"contracts/Zero2HeroWeek2StakingRewards.sol\":6161:6315  if (account != address(0)) {... */\n      tag_249\n      jumpi\n        /* \"contracts/Zero2HeroWeek2StakingRewards.sol\":6221:6236  earned(account) */\n      tag_250\n        /* \"contracts/Zero2HeroWeek2StakingRewards.sol\":6228:6235  account */\n      dup2\n        /* \"contracts/Zero2HeroWeek2StakingRewards.sol\":6221:6227  earned */\n      tag_43\n        /* \"contracts/Zero2HeroWeek2StakingRewards.sol\":6221:6236  earned(account) */\n      jump\t// in\n    tag_250:\n      sub(shl(0xa0, 0x01), 0x01)\n        /* \"contracts/Zero2HeroWeek2StakingRewards.sol\":6202:6218  rewards[account] */\n      dup3\n      and\n      0x00\n      swap1\n      dup2\n      mstore\n        /* \"contracts/Zero2HeroWeek2StakingRewards.sol\":6202:6209  rewards */\n      0x0b\n        /* \"contracts/Zero2HeroWeek2StakingRewards.sol\":6202:6218  rewards[account] */\n      0x20\n      swap1\n      dup2\n      mstore\n      0x40\n      dup1\n      dup4\n      keccak256\n        /* \"contracts/Zero2HeroWeek2StakingRewards.sol\":6202:6236  rewards[account] = earned(account) */\n      swap4\n      swap1\n      swap4\n      sstore\n        /* \"contracts/Zero2HeroWeek2StakingRewards.sol\":6284:6304  rewardPerTokenStored */\n      sload(0x08)\n        /* \"contracts/Zero2HeroWeek2StakingRewards.sol\":6250:6272  userRewardPerTokenPaid */\n      0x0a\n        /* \"contracts/Zero2HeroWeek2StakingRewards.sol\":6250:6281  userRewardPerTokenPaid[account] */\n      swap1\n      swap2\n      mstore\n      swap2\n      swap1\n      keccak256\n        /* \"contracts/Zero2HeroWeek2StakingRewards.sol\":6250:6304  userRewardPerTokenPaid[account] = rewardPerTokenStored */\n      sstore\n        /* \"contracts/Zero2HeroWeek2StakingRewards.sol\":6161:6315  if (account != address(0)) {... */\n    tag_249:\n        /* \"contracts/Zero2HeroWeek2StakingRewards.sol\":3022:3023  0 */\n      0x00\n        /* \"contracts/Zero2HeroWeek2StakingRewards.sol\":3013:3019  amount */\n      dup3\n        /* \"contracts/Zero2HeroWeek2StakingRewards.sol\":3013:3023  amount > 0 */\n      gt\n        /* \"contracts/Zero2HeroWeek2StakingRewards.sol\":3005:3042  require(amount > 0, \"Cannot stake 0\") */\n      tag_252\n      jumpi\n      mload(0x40)\n      shl(0xe5, 0x461bcd)\n      dup2\n      mstore\n        /* \"#utility.yul\":4389:4391   */\n      0x20\n        /* \"contracts/Zero2HeroWeek2StakingRewards.sol\":3005:3042  require(amount > 0, \"Cannot stake 0\") */\n      0x04\n      dup3\n      add\n        /* \"#utility.yul\":4371:4392   */\n      mstore\n        /* \"#utility.yul\":4428:4430   */\n      0x0e\n        /* \"#utility.yul\":4408:4426   */\n      0x24\n      dup3\n      add\n        /* \"#utility.yul\":4401:4431   */\n      mstore\n      shl(0x94, 0x043616e6e6f74207374616b65203)\n        /* \"#utility.yul\":4447:4465   */\n      0x44\n      dup3\n      add\n        /* \"#utility.yul\":4440:4484   */\n      mstore\n        /* \"#utility.yul\":4501:4519   */\n      0x64\n      add\n        /* \"contracts/Zero2HeroWeek2StakingRewards.sol\":3005:3042  require(amount > 0, \"Cannot stake 0\") */\n      tag_171\n        /* \"#utility.yul\":4187:4525   */\n      jump\n        /* \"contracts/Zero2HeroWeek2StakingRewards.sol\":3005:3042  require(amount > 0, \"Cannot stake 0\") */\n    tag_252:\n        /* \"contracts/Zero2HeroWeek2StakingRewards.sol\":3067:3079  _totalSupply */\n      sload(0x0c)\n        /* \"contracts/Zero2HeroWeek2StakingRewards.sol\":3067:3091  _totalSupply.add(amount) */\n      tag_255\n      swap1\n        /* \"contracts/Zero2HeroWeek2StakingRewards.sol\":3084:3090  amount */\n      dup4\n        /* \"contracts/Zero2HeroWeek2StakingRewards.sol\":3067:3083  _totalSupply.add */\n      tag_147\n        /* \"contracts/Zero2HeroWeek2StakingRewards.sol\":3067:3091  _totalSupply.add(amount) */\n      jump\t// in\n    tag_255:\n        /* \"contracts/Zero2HeroWeek2StakingRewards.sol\":3052:3064  _totalSupply */\n      0x0c\n        /* \"contracts/Zero2HeroWeek2StakingRewards.sol\":3052:3091  _totalSupply = _totalSupply.add(amount) */\n      sstore\n        /* \"contracts/Zero2HeroWeek2StakingRewards.sol\":3135:3145  msg.sender */\n      caller\n        /* \"contracts/Zero2HeroWeek2StakingRewards.sol\":3125:3146  _balances[msg.sender] */\n      0x00\n      swap1\n      dup2\n      mstore\n        /* \"contracts/Zero2HeroWeek2StakingRewards.sol\":3125:3134  _balances */\n      0x0d\n        /* \"contracts/Zero2HeroWeek2StakingRewards.sol\":3125:3146  _balances[msg.sender] */\n      0x20\n      mstore\n      0x40\n      swap1\n      keccak256\n      sload\n        /* \"contracts/Zero2HeroWeek2StakingRewards.sol\":3125:3158  _balances[msg.sender].add(amount) */\n      tag_256\n      swap1\n        /* \"contracts/Zero2HeroWeek2StakingRewards.sol\":3151:3157  amount */\n      dup4\n        /* \"contracts/Zero2HeroWeek2StakingRewards.sol\":3125:3150  _balances[msg.sender].add */\n      tag_147\n        /* \"contracts/Zero2HeroWeek2StakingRewards.sol\":3125:3158  _balances[msg.sender].add(amount) */\n      jump\t// in\n    tag_256:\n        /* \"contracts/Zero2HeroWeek2StakingRewards.sol\":3111:3121  msg.sender */\n      caller\n        /* \"contracts/Zero2HeroWeek2StakingRewards.sol\":3101:3122  _balances[msg.sender] */\n      0x00\n      dup2\n      dup2\n      mstore\n        /* \"contracts/Zero2HeroWeek2StakingRewards.sol\":3101:3110  _balances */\n      0x0d\n        /* \"contracts/Zero2HeroWeek2StakingRewards.sol\":3101:3122  _balances[msg.sender] */\n      0x20\n      mstore\n      0x40\n      swap1\n      keccak256\n        /* \"contracts/Zero2HeroWeek2StakingRewards.sol\":3101:3158  _balances[msg.sender] = _balances[msg.sender].add(amount) */\n      swap2\n      swap1\n      swap2\n      sstore\n        /* \"contracts/Zero2HeroWeek2StakingRewards.sol\":3175:3187  stakingToken */\n      sload(0x03)\n        /* \"contracts/Zero2HeroWeek2StakingRewards.sol\":3168:3240  IERC20(stakingToken).safeTransferFrom(msg.sender, address(this), amount) */\n      tag_257\n      swap2\n      sub(shl(0xa0, 0x01), 0x01)\n        /* \"contracts/Zero2HeroWeek2StakingRewards.sol\":3175:3187  stakingToken */\n      swap1\n      swap2\n      and\n      swap1\n        /* \"contracts/Zero2HeroWeek2StakingRewards.sol\":3226:3230  this */\n      address\n        /* \"contracts/Zero2HeroWeek2StakingRewards.sol\":3233:3239  amount */\n      dup6\n        /* \"contracts/Zero2HeroWeek2StakingRewards.sol\":3168:3205  IERC20(stakingToken).safeTransferFrom */\n      tag_258\n        /* \"contracts/Zero2HeroWeek2StakingRewards.sol\":3168:3240  IERC20(stakingToken).safeTransferFrom(msg.sender, address(this), amount) */\n      jump\t// in\n    tag_257:\n        /* \"contracts/Zero2HeroWeek2StakingRewards.sol\":3255:3281  Staked(msg.sender, amount) */\n      mload(0x40)\n        /* \"#utility.yul\":529:554   */\n      dup3\n      dup2\n      mstore\n        /* \"contracts/Zero2HeroWeek2StakingRewards.sol\":3262:3272  msg.sender */\n      caller\n      swap1\n        /* \"contracts/Zero2HeroWeek2StakingRewards.sol\":3255:3281  Staked(msg.sender, amount) */\n      0x9e71bc8eea02a63969f509818f2dafb9254532904319f9dbda79b67bd34a5f3d\n      swap1\n        /* \"#utility.yul\":517:519   */\n      0x20\n        /* \"#utility.yul\":502:520   */\n      add\n        /* \"contracts/Zero2HeroWeek2StakingRewards.sol\":3255:3281  Staked(msg.sender, amount) */\n      tag_177\n        /* \"#utility.yul\":383:560   */\n      jump\n        /* \"contracts/Zero2HeroWeek2StakingRewards.sol\":5608:5961  function setRewardsDuration(uint256 _rewardsDuration) external onlyOwner {... */\n    tag_120:\n        /* \"@openzeppelin/contracts/access/Ownable.sol\":1094:1107  _checkOwner() */\n      tag_262\n        /* \"@openzeppelin/contracts/access/Ownable.sol\":1094:1105  _checkOwner */\n      tag_150\n        /* \"@openzeppelin/contracts/access/Ownable.sol\":1094:1107  _checkOwner() */\n      jump\t// in\n    tag_262:\n        /* \"contracts/Zero2HeroWeek2StakingRewards.sol\":5730:5742  periodFinish */\n      sload(0x04)\n        /* \"contracts/Zero2HeroWeek2StakingRewards.sol\":5712:5727  block.timestamp */\n      timestamp\n        /* \"contracts/Zero2HeroWeek2StakingRewards.sol\":5712:5742  block.timestamp > periodFinish */\n      gt\n        /* \"contracts/Zero2HeroWeek2StakingRewards.sol\":5691:5856  require(... */\n      tag_264\n      jumpi\n      mload(0x40)\n      shl(0xe5, 0x461bcd)\n      dup2\n      mstore\n        /* \"#utility.yul\":4732:4734   */\n      0x20\n        /* \"contracts/Zero2HeroWeek2StakingRewards.sol\":5691:5856  require(... */\n      0x04\n      dup3\n      add\n        /* \"#utility.yul\":4714:4735   */\n      mstore\n        /* \"#utility.yul\":4771:4773   */\n      0x58\n        /* \"#utility.yul\":4751:4769   */\n      0x24\n      dup3\n      add\n        /* \"#utility.yul\":4744:4774   */\n      mstore\n        /* \"#utility.yul\":4810:4844   */\n      0x50726576696f7573207265776172647320706572696f64206d75737420626520\n        /* \"#utility.yul\":4790:4808   */\n      0x44\n      dup3\n      add\n        /* \"#utility.yul\":4783:4845   */\n      mstore\n        /* \"#utility.yul\":4881:4915   */\n      0x636f6d706c657465206265666f7265206368616e67696e672074686520647572\n        /* \"#utility.yul\":4861:4879   */\n      0x64\n      dup3\n      add\n        /* \"#utility.yul\":4854:4916   */\n      mstore\n        /* \"#utility.yul\":4953:4979   */\n      0x6174696f6e20666f7220746865206e657720706572696f640000000000000000\n        /* \"#utility.yul\":4932:4951   */\n      0x84\n      dup3\n      add\n        /* \"#utility.yul\":4925:4980   */\n      mstore\n        /* \"#utility.yul\":4997:5016   */\n      0xa4\n      add\n        /* \"contracts/Zero2HeroWeek2StakingRewards.sol\":5691:5856  require(... */\n      tag_171\n        /* \"#utility.yul\":4530:5022   */\n      jump\n        /* \"contracts/Zero2HeroWeek2StakingRewards.sol\":5691:5856  require(... */\n    tag_264:\n        /* \"contracts/Zero2HeroWeek2StakingRewards.sol\":5866:5881  rewardsDuration */\n      0x06\n        /* \"contracts/Zero2HeroWeek2StakingRewards.sol\":5866:5900  rewardsDuration = _rewardsDuration */\n      dup2\n      swap1\n      sstore\n        /* \"contracts/Zero2HeroWeek2StakingRewards.sol\":5915:5954  RewardsDurationUpdated(rewardsDuration) */\n      mload(0x40)\n        /* \"#utility.yul\":529:554   */\n      dup2\n      dup2\n      mstore\n        /* \"contracts/Zero2HeroWeek2StakingRewards.sol\":5915:5954  RewardsDurationUpdated(rewardsDuration) */\n      0xfb46ca5a5e06d4540d6387b930a7c978bce0db5f449ec6b3f5d07c6e1d44f2d3\n      swap1\n        /* \"#utility.yul\":517:519   */\n      0x20\n        /* \"#utility.yul\":502:520   */\n      add\n        /* \"contracts/Zero2HeroWeek2StakingRewards.sol\":5915:5954  RewardsDurationUpdated(rewardsDuration) */\n      tag_154\n        /* \"#utility.yul\":383:560   */\n      jump\n        /* \"contracts/Zero2HeroWeek2StakingRewards.sol\":2200:2522  function rewardPerToken() public view returns (uint256) {... */\n    tag_122:\n        /* \"contracts/Zero2HeroWeek2StakingRewards.sol\":2247:2254  uint256 */\n      0x00\n        /* \"contracts/Zero2HeroWeek2StakingRewards.sol\":2270:2282  _totalSupply */\n      sload(0x0c)\n        /* \"contracts/Zero2HeroWeek2StakingRewards.sol\":2286:2287  0 */\n      0x00\n        /* \"contracts/Zero2HeroWeek2StakingRewards.sol\":2270:2287  _totalSupply == 0 */\n      sub\n        /* \"contracts/Zero2HeroWeek2StakingRewards.sol\":2266:2341  if (_totalSupply == 0) {... */\n      tag_269\n      jumpi\n      pop\n        /* \"contracts/Zero2HeroWeek2StakingRewards.sol\":2310:2330  rewardPerTokenStored */\n      sload(0x08)\n      swap1\n        /* \"contracts/Zero2HeroWeek2StakingRewards.sol\":2200:2522  function rewardPerToken() public view returns (uint256) {... */\n      jump\t// out\n        /* \"contracts/Zero2HeroWeek2StakingRewards.sol\":2266:2341  if (_totalSupply == 0) {... */\n    tag_269:\n        /* \"contracts/Zero2HeroWeek2StakingRewards.sol\":2369:2515  rewardPerTokenStored.add(... */\n      tag_160\n        /* \"contracts/Zero2HeroWeek2StakingRewards.sol\":2411:2501  lastTimeRewardApplicable().sub(lastUpdateTime).mul(rewardRate).mul(1e18).div(_totalSupply) */\n      tag_271\n        /* \"contracts/Zero2HeroWeek2StakingRewards.sol\":2488:2500  _totalSupply */\n      sload(0x0c)\n        /* \"contracts/Zero2HeroWeek2StakingRewards.sol\":2411:2483  lastTimeRewardApplicable().sub(lastUpdateTime).mul(rewardRate).mul(1e18) */\n      tag_141\n        /* \"contracts/Zero2HeroWeek2StakingRewards.sol\":2478:2482  1e18 */\n      0x0de0b6b3a7640000\n        /* \"contracts/Zero2HeroWeek2StakingRewards.sol\":2411:2473  lastTimeRewardApplicable().sub(lastUpdateTime).mul(rewardRate) */\n      tag_274\n        /* \"contracts/Zero2HeroWeek2StakingRewards.sol\":2462:2472  rewardRate */\n      sload(0x05)\n        /* \"contracts/Zero2HeroWeek2StakingRewards.sol\":2411:2457  lastTimeRewardApplicable().sub(lastUpdateTime) */\n      tag_274\n        /* \"contracts/Zero2HeroWeek2StakingRewards.sol\":2442:2456  lastUpdateTime */\n      sload(0x07)\n        /* \"contracts/Zero2HeroWeek2StakingRewards.sol\":2411:2437  lastTimeRewardApplicable() */\n      tag_143\n        /* \"contracts/Zero2HeroWeek2StakingRewards.sol\":2411:2435  lastTimeRewardApplicable */\n      tag_96\n        /* \"contracts/Zero2HeroWeek2StakingRewards.sol\":2411:2437  lastTimeRewardApplicable() */\n      jump\t// in\n        /* \"contracts/Zero2HeroWeek2StakingRewards.sol\":2411:2457  lastTimeRewardApplicable().sub(lastUpdateTime) */\n    tag_274:\n        /* \"contracts/Zero2HeroWeek2StakingRewards.sol\":2411:2461  lastTimeRewardApplicable().sub(lastUpdateTime).mul */\n      swap1\n      tag_145\n        /* \"contracts/Zero2HeroWeek2StakingRewards.sol\":2411:2473  lastTimeRewardApplicable().sub(lastUpdateTime).mul(rewardRate) */\n      jump\t// in\n        /* \"contracts/Zero2HeroWeek2StakingRewards.sol\":2411:2501  lastTimeRewardApplicable().sub(lastUpdateTime).mul(rewardRate).mul(1e18).div(_totalSupply) */\n    tag_271:\n        /* \"contracts/Zero2HeroWeek2StakingRewards.sol\":2369:2389  rewardPerTokenStored */\n      sload(0x08)\n      swap1\n        /* \"contracts/Zero2HeroWeek2StakingRewards.sol\":2369:2393  rewardPerTokenStored.add */\n      tag_147\n        /* \"contracts/Zero2HeroWeek2StakingRewards.sol\":2369:2515  rewardPerTokenStored.add(... */\n      jump\t// in\n        /* \"contracts/Zero2HeroWeek2StakingRewards.sol\":3973:4067  function exit() external {... */\n    tag_131:\n        /* \"contracts/Zero2HeroWeek2StakingRewards.sol\":4027:4037  msg.sender */\n      caller\n        /* \"contracts/Zero2HeroWeek2StakingRewards.sol\":4017:4038  _balances[msg.sender] */\n      0x00\n      swap1\n      dup2\n      mstore\n        /* \"contracts/Zero2HeroWeek2StakingRewards.sol\":4017:4026  _balances */\n      0x0d\n        /* \"contracts/Zero2HeroWeek2StakingRewards.sol\":4017:4038  _balances[msg.sender] */\n      0x20\n      mstore\n      0x40\n      swap1\n      keccak256\n      sload\n        /* \"contracts/Zero2HeroWeek2StakingRewards.sol\":4008:4039  withdraw(_balances[msg.sender]) */\n      tag_277\n      swap1\n        /* \"contracts/Zero2HeroWeek2StakingRewards.sol\":4008:4016  withdraw */\n      tag_66\n        /* \"contracts/Zero2HeroWeek2StakingRewards.sol\":4008:4039  withdraw(_balances[msg.sender]) */\n      jump\t// in\n    tag_277:\n        /* \"contracts/Zero2HeroWeek2StakingRewards.sol\":4049:4060  getReward() */\n      tag_219\n        /* \"contracts/Zero2HeroWeek2StakingRewards.sol\":4049:4058  getReward */\n      tag_74\n        /* \"contracts/Zero2HeroWeek2StakingRewards.sol\":4049:4060  getReward() */\n      jump\t// in\n        /* \"@openzeppelin/contracts/access/Ownable.sol\":2081:2279  function transferOwnership(address newOwner) public virtual onlyOwner {... */\n    tag_137:\n        /* \"@openzeppelin/contracts/access/Ownable.sol\":1094:1107  _checkOwner() */\n      tag_280\n        /* \"@openzeppelin/contracts/access/Ownable.sol\":1094:1105  _checkOwner */\n      tag_150\n        /* \"@openzeppelin/contracts/access/Ownable.sol\":1094:1107  _checkOwner() */\n      jump\t// in\n    tag_280:\n      sub(shl(0xa0, 0x01), 0x01)\n        /* \"@openzeppelin/contracts/access/Ownable.sol\":2169:2191  newOwner != address(0) */\n      dup2\n      and\n        /* \"@openzeppelin/contracts/access/Ownable.sol\":2161:2234  require(newOwner != address(0), \"Ownable: new owner is the zero address\") */\n      tag_282\n      jumpi\n      mload(0x40)\n      shl(0xe5, 0x461bcd)\n      dup2\n      mstore\n        /* \"#utility.yul\":5229:5231   */\n      0x20\n        /* \"@openzeppelin/contracts/access/Ownable.sol\":2161:2234  require(newOwner != address(0), \"Ownable: new owner is the zero address\") */\n      0x04\n      dup3\n      add\n        /* \"#utility.yul\":5211:5232   */\n      mstore\n        /* \"#utility.yul\":5268:5270   */\n      0x26\n        /* \"#utility.yul\":5248:5266   */\n      0x24\n      dup3\n      add\n        /* \"#utility.yul\":5241:5271   */\n      mstore\n        /* \"#utility.yul\":5307:5341   */\n      0x4f776e61626c653a206e6577206f776e657220697320746865207a65726f2061\n        /* \"#utility.yul\":5287:5305   */\n      0x44\n      dup3\n      add\n        /* \"#utility.yul\":5280:5342   */\n      mstore\n      shl(0xd0, 0x646472657373)\n        /* \"#utility.yul\":5358:5376   */\n      0x64\n      dup3\n      add\n        /* \"#utility.yul\":5351:5387   */\n      mstore\n        /* \"#utility.yul\":5404:5423   */\n      0x84\n      add\n        /* \"@openzeppelin/contracts/access/Ownable.sol\":2161:2234  require(newOwner != address(0), \"Ownable: new owner is the zero address\") */\n      tag_171\n        /* \"#utility.yul\":5027:5429   */\n      jump\n        /* \"@openzeppelin/contracts/access/Ownable.sol\":2161:2234  require(newOwner != address(0), \"Ownable: new owner is the zero address\") */\n    tag_282:\n        /* \"@openzeppelin/contracts/access/Ownable.sol\":2244:2272  _transferOwnership(newOwner) */\n      tag_151\n        /* \"@openzeppelin/contracts/access/Ownable.sol\":2263:2271  newOwner */\n      dup2\n        /* \"@openzeppelin/contracts/access/Ownable.sol\":2244:2262  _transferOwnership */\n      tag_225\n        /* \"@openzeppelin/contracts/access/Ownable.sol\":2244:2272  _transferOwnership(newOwner) */\n      jump\t// in\n        /* \"@openzeppelin/contracts/utils/math/SafeMath.sol\":3122:3218  function sub(uint256 a, uint256 b) internal pure returns (uint256) {... */\n    tag_144:\n        /* \"@openzeppelin/contracts/utils/math/SafeMath.sol\":3180:3187  uint256 */\n      0x00\n        /* \"@openzeppelin/contracts/utils/math/SafeMath.sol\":3206:3211  a - b */\n      tag_287\n        /* \"@openzeppelin/contracts/utils/math/SafeMath.sol\":3210:3211  b */\n      dup3\n        /* \"@openzeppelin/contracts/utils/math/SafeMath.sol\":3206:3207  a */\n      dup5\n        /* \"@openzeppelin/contracts/utils/math/SafeMath.sol\":3206:3211  a - b */\n      tag_288\n      jump\t// in\n    tag_287:\n        /* \"@openzeppelin/contracts/utils/math/SafeMath.sol\":3199:3211  return a - b */\n      swap4\n        /* \"@openzeppelin/contracts/utils/math/SafeMath.sol\":3122:3218  function sub(uint256 a, uint256 b) internal pure returns (uint256) {... */\n      swap3\n      pop\n      pop\n      pop\n      jump\t// out\n        /* \"@openzeppelin/contracts/utils/math/SafeMath.sol\":3465:3561  function mul(uint256 a, uint256 b) internal pure returns (uint256) {... */\n    tag_145:\n        /* \"@openzeppelin/contracts/utils/math/SafeMath.sol\":3523:3530  uint256 */\n      0x00\n        /* \"@openzeppelin/contracts/utils/math/SafeMath.sol\":3549:3554  a * b */\n      tag_287\n        /* \"@openzeppelin/contracts/utils/math/SafeMath.sol\":3553:3554  b */\n      dup3\n        /* \"@openzeppelin/contracts/utils/math/SafeMath.sol\":3549:3550  a */\n      dup5\n        /* \"@openzeppelin/contracts/utils/math/SafeMath.sol\":3549:3554  a * b */\n      tag_291\n      jump\t// in\n        /* \"@openzeppelin/contracts/utils/math/SafeMath.sol\":3850:3946  function div(uint256 a, uint256 b) internal pure returns (uint256) {... */\n    tag_146:\n        /* \"@openzeppelin/contracts/utils/math/SafeMath.sol\":3908:3915  uint256 */\n      0x00\n        /* \"@openzeppelin/contracts/utils/math/SafeMath.sol\":3934:3939  a / b */\n      tag_287\n        /* \"@openzeppelin/contracts/utils/math/SafeMath.sol\":3938:3939  b */\n      dup3\n        /* \"@openzeppelin/contracts/utils/math/SafeMath.sol\":3934:3935  a */\n      dup5\n        /* \"@openzeppelin/contracts/utils/math/SafeMath.sol\":3934:3939  a / b */\n      tag_294\n      jump\t// in\n        /* \"@openzeppelin/contracts/utils/math/SafeMath.sol\":2755:2851  function add(uint256 a, uint256 b) internal pure returns (uint256) {... */\n    tag_147:\n        /* \"@openzeppelin/contracts/utils/math/SafeMath.sol\":2813:2820  uint256 */\n      0x00\n        /* \"@openzeppelin/contracts/utils/math/SafeMath.sol\":2839:2844  a + b */\n      tag_287\n        /* \"@openzeppelin/contracts/utils/math/SafeMath.sol\":2843:2844  b */\n      dup3\n        /* \"@openzeppelin/contracts/utils/math/SafeMath.sol\":2839:2840  a */\n      dup5\n        /* \"@openzeppelin/contracts/utils/math/SafeMath.sol\":2839:2844  a + b */\n      tag_297\n      jump\t// in\n        /* \"@openzeppelin/contracts/access/Ownable.sol\":1359:1489  function _checkOwner() internal view virtual {... */\n    tag_150:\n        /* \"@openzeppelin/contracts/access/Ownable.sol\":1273:1279  _owner */\n      and(sub(shl(0xa0, 0x01), 0x01), sload(0x01))\n        /* \"@openzeppelin/contracts/utils/Context.sol\":719:729  msg.sender */\n      caller\n        /* \"@openzeppelin/contracts/access/Ownable.sol\":1422:1445  owner() == _msgSender() */\n      eq\n        /* \"@openzeppelin/contracts/access/Ownable.sol\":1414:1482  require(owner() == _msgSender(), \"Ownable: caller is not the owner\") */\n      tag_219\n      jumpi\n      mload(0x40)\n      shl(0xe5, 0x461bcd)\n      dup2\n      mstore\n        /* \"#utility.yul\":6426:6428   */\n      0x20\n        /* \"@openzeppelin/contracts/access/Ownable.sol\":1414:1482  require(owner() == _msgSender(), \"Ownable: caller is not the owner\") */\n      0x04\n      dup3\n      add\n        /* \"#utility.yul\":6408:6429   */\n      dup2\n      swap1\n      mstore\n        /* \"#utility.yul\":6445:6463   */\n      0x24\n      dup3\n      add\n        /* \"#utility.yul\":6438:6468   */\n      mstore\n        /* \"#utility.yul\":6504:6538   */\n      0x4f776e61626c653a2063616c6c6572206973206e6f7420746865206f776e6572\n        /* \"#utility.yul\":6484:6502   */\n      0x44\n      dup3\n      add\n        /* \"#utility.yul\":6477:6539   */\n      mstore\n        /* \"#utility.yul\":6556:6574   */\n      0x64\n      add\n        /* \"@openzeppelin/contracts/access/Ownable.sol\":1414:1482  require(owner() == _msgSender(), \"Ownable: caller is not the owner\") */\n      tag_171\n        /* \"#utility.yul\":6224:6580   */\n      jump\n        /* \"@openzeppelin/contracts/security/ReentrancyGuard.sol\":2336:2623  function _nonReentrantBefore() private {... */\n    tag_163:\n        /* \"@openzeppelin/contracts/security/ReentrancyGuard.sol\":1759:1760  2 */\n      0x02\n        /* \"@openzeppelin/contracts/security/ReentrancyGuard.sol\":2468:2475  _status */\n      sload(0x00)\n        /* \"@openzeppelin/contracts/security/ReentrancyGuard.sol\":2468:2487  _status != _ENTERED */\n      sub\n        /* \"@openzeppelin/contracts/security/ReentrancyGuard.sol\":2460:2523  require(_status != _ENTERED, \"ReentrancyGuard: reentrant call\") */\n      tag_306\n      jumpi\n      mload(0x40)\n      shl(0xe5, 0x461bcd)\n      dup2\n      mstore\n        /* \"#utility.yul\":6787:6789   */\n      0x20\n        /* \"@openzeppelin/contracts/security/ReentrancyGuard.sol\":2460:2523  require(_status != _ENTERED, \"ReentrancyGuard: reentrant call\") */\n      0x04\n      dup3\n      add\n        /* \"#utility.yul\":6769:6790   */\n      mstore\n        /* \"#utility.yul\":6826:6828   */\n      0x1f\n        /* \"#utility.yul\":6806:6824   */\n      0x24\n      dup3\n      add\n        /* \"#utility.yul\":6799:6829   */\n      mstore\n        /* \"#utility.yul\":6865:6898   */\n      0x5265656e7472616e637947756172643a207265656e7472616e742063616c6c00\n        /* \"#utility.yul\":6845:6863   */\n      0x44\n      dup3\n      add\n        /* \"#utility.yul\":6838:6899   */\n      mstore\n        /* \"#utility.yul\":6916:6934   */\n      0x64\n      add\n        /* \"@openzeppelin/contracts/security/ReentrancyGuard.sol\":2460:2523  require(_status != _ENTERED, \"ReentrancyGuard: reentrant call\") */\n      tag_171\n        /* \"#utility.yul\":6585:6940   */\n      jump\n        /* \"@openzeppelin/contracts/security/ReentrancyGuard.sol\":2460:2523  require(_status != _ENTERED, \"ReentrancyGuard: reentrant call\") */\n    tag_306:\n        /* \"@openzeppelin/contracts/security/ReentrancyGuard.sol\":1759:1760  2 */\n      0x02\n        /* \"@openzeppelin/contracts/security/ReentrancyGuard.sol\":2598:2605  _status */\n      0x00\n        /* \"@openzeppelin/contracts/security/ReentrancyGuard.sol\":2598:2616  _status = _ENTERED */\n      sstore\n        /* \"@openzeppelin/contracts/security/ReentrancyGuard.sol\":2336:2623  function _nonReentrantBefore() private {... */\n      jump\t// out\n        /* \"@openzeppelin/contracts/token/ERC20/utils/SafeERC20.sol\":763:968  function safeTransfer(... */\n    tag_176:\n        /* \"@openzeppelin/contracts/token/ERC20/utils/SafeERC20.sol\":902:960  abi.encodeWithSelector(token.transfer.selector, to, value) */\n      mload(0x40)\n      sub(shl(0xa0, 0x01), 0x01)\n        /* \"#utility.yul\":3671:3703   */\n      dup4\n      and\n        /* \"@openzeppelin/contracts/token/ERC20/utils/SafeERC20.sol\":902:960  abi.encodeWithSelector(token.transfer.selector, to, value) */\n      0x24\n      dup3\n      add\n        /* \"#utility.yul\":3653:3704   */\n      mstore\n        /* \"#utility.yul\":3720:3738   */\n      0x44\n      dup2\n      add\n        /* \"#utility.yul\":3713:3747   */\n      dup3\n      swap1\n      mstore\n        /* \"@openzeppelin/contracts/token/ERC20/utils/SafeERC20.sol\":875:961  _callOptionalReturn(token, abi.encodeWithSelector(token.transfer.selector, to, value)) */\n      tag_310\n      swap1\n        /* \"@openzeppelin/contracts/token/ERC20/utils/SafeERC20.sol\":895:900  token */\n      dup5\n      swap1\n      shl(0xe0, 0xa9059cbb)\n        /* \"@openzeppelin/contracts/token/ERC20/utils/SafeERC20.sol\":925:948  token.transfer.selector */\n      swap1\n        /* \"#utility.yul\":3626:3644   */\n      0x64\n      add\n        /* \"@openzeppelin/contracts/token/ERC20/utils/SafeERC20.sol\":902:960  abi.encodeWithSelector(token.transfer.selector, to, value) */\n    tag_311:\n      0x40\n      dup1\n      mload\n      not(0x1f)\n      dup2\n      dup5\n      sub\n      add\n      dup2\n      mstore\n      swap2\n      swap1\n      mstore\n      0x20\n      dup2\n      add\n      dup1\n      mload\n      sub(shl(0xe0, 0x01), 0x01)\n      and\n      not(sub(shl(0xe0, 0x01), 0x01))\n      swap1\n      swap4\n      and\n      swap3\n      swap1\n      swap3\n      or\n      swap1\n      swap2\n      mstore\n        /* \"@openzeppelin/contracts/token/ERC20/utils/SafeERC20.sol\":875:894  _callOptionalReturn */\n      tag_312\n        /* \"@openzeppelin/contracts/token/ERC20/utils/SafeERC20.sol\":875:961  _callOptionalReturn(token, abi.encodeWithSelector(token.transfer.selector, to, value)) */\n      jump\t// in\n    tag_310:\n        /* \"@openzeppelin/contracts/token/ERC20/utils/SafeERC20.sol\":763:968  function safeTransfer(... */\n      pop\n      pop\n      pop\n      jump\t// out\n        /* \"@openzeppelin/contracts/access/Ownable.sol\":2433:2620  function _transferOwnership(address newOwner) internal virtual {... */\n    tag_225:\n        /* \"@openzeppelin/contracts/access/Ownable.sol\":2525:2531  _owner */\n      0x01\n      dup1\n      sload\n      sub(shl(0xa0, 0x01), 0x01)\n        /* \"@openzeppelin/contracts/access/Ownable.sol\":2541:2558  _owner = newOwner */\n      dup4\n      dup2\n      and\n      not(sub(shl(0xa0, 0x01), 0x01))\n      dup4\n      and\n      dup2\n      or\n      swap1\n      swap4\n      sstore\n        /* \"@openzeppelin/contracts/access/Ownable.sol\":2573:2613  OwnershipTransferred(oldOwner, newOwner) */\n      mload(0x40)\n        /* \"@openzeppelin/contracts/access/Ownable.sol\":2525:2531  _owner */\n      swap2\n      and\n      swap2\n        /* \"@openzeppelin/contracts/access/Ownable.sol\":2541:2558  _owner = newOwner */\n      swap1\n        /* \"@openzeppelin/contracts/access/Ownable.sol\":2525:2531  _owner */\n      dup3\n      swap1\n        /* \"@openzeppelin/contracts/access/Ownable.sol\":2573:2613  OwnershipTransferred(oldOwner, newOwner) */\n      0x8be0079c531659141344cd1fd0a4f28419497f9722a3daafe3b4186f6b6457e0\n      swap1\n        /* \"@openzeppelin/contracts/access/Ownable.sol\":2506:2522  address oldOwner */\n      0x00\n      swap1\n        /* \"@openzeppelin/contracts/access/Ownable.sol\":2573:2613  OwnershipTransferred(oldOwner, newOwner) */\n      log3\n        /* \"@openzeppelin/contracts/access/Ownable.sol\":2496:2620  {... */\n      pop\n        /* \"@openzeppelin/contracts/access/Ownable.sol\":2433:2620  function _transferOwnership(address newOwner) internal virtual {... */\n      pop\n      jump\t// out\n        /* \"@openzeppelin/contracts/token/ERC20/utils/SafeERC20.sol\":974:1215  function safeTransferFrom(... */\n    tag_258:\n        /* \"@openzeppelin/contracts/token/ERC20/utils/SafeERC20.sol\":1139:1207  abi.encodeWithSelector(token.transferFrom.selector, from, to, value) */\n      mload(0x40)\n      sub(shl(0xa0, 0x01), 0x01)\n        /* \"#utility.yul\":7203:7218   */\n      dup1\n      dup6\n      and\n        /* \"@openzeppelin/contracts/token/ERC20/utils/SafeERC20.sol\":1139:1207  abi.encodeWithSelector(token.transferFrom.selector, from, to, value) */\n      0x24\n      dup4\n      add\n        /* \"#utility.yul\":7185:7219   */\n      mstore\n        /* \"#utility.yul\":7255:7270   */\n      dup4\n      and\n        /* \"#utility.yul\":7235:7253   */\n      0x44\n      dup3\n      add\n        /* \"#utility.yul\":7228:7271   */\n      mstore\n        /* \"#utility.yul\":7287:7305   */\n      0x64\n      dup2\n      add\n        /* \"#utility.yul\":7280:7314   */\n      dup3\n      swap1\n      mstore\n        /* \"@openzeppelin/contracts/token/ERC20/utils/SafeERC20.sol\":1112:1208  _callOptionalReturn(token, abi.encodeWithSelector(token.transferFrom.selector, from, to, value)) */\n      tag_316\n      swap1\n        /* \"@openzeppelin/contracts/token/ERC20/utils/SafeERC20.sol\":1132:1137  token */\n      dup6\n      swap1\n      shl(0xe0, 0x23b872dd)\n        /* \"@openzeppelin/contracts/token/ERC20/utils/SafeERC20.sol\":1162:1189  token.transferFrom.selector */\n      swap1\n        /* \"#utility.yul\":7120:7138   */\n      0x84\n      add\n        /* \"@openzeppelin/contracts/token/ERC20/utils/SafeERC20.sol\":1139:1207  abi.encodeWithSelector(token.transferFrom.selector, from, to, value) */\n      tag_311\n        /* \"#utility.yul\":6945:7320   */\n      jump\n        /* \"@openzeppelin/contracts/token/ERC20/utils/SafeERC20.sol\":1112:1208  _callOptionalReturn(token, abi.encodeWithSelector(token.transferFrom.selector, from, to, value)) */\n    tag_316:\n        /* \"@openzeppelin/contracts/token/ERC20/utils/SafeERC20.sol\":974:1215  function safeTransferFrom(... */\n      pop\n      pop\n      pop\n      pop\n      jump\t// out\n        /* \"@openzeppelin/contracts/token/ERC20/utils/SafeERC20.sol\":3747:4453  function _callOptionalReturn(IERC20 token, bytes memory data) private {... */\n    tag_312:\n        /* \"@openzeppelin/contracts/token/ERC20/utils/SafeERC20.sol\":4166:4189  bytes memory returndata */\n      0x00\n        /* \"@openzeppelin/contracts/token/ERC20/utils/SafeERC20.sol\":4192:4261  address(token).functionCall(data, \"SafeERC20: low-level call failed\") */\n      tag_321\n        /* \"@openzeppelin/contracts/token/ERC20/utils/SafeERC20.sol\":4220:4224  data */\n      dup3\n        /* \"@openzeppelin/contracts/token/ERC20/utils/SafeERC20.sol\":4192:4261  address(token).functionCall(data, \"SafeERC20: low-level call failed\") */\n      mload(0x40)\n      dup1\n      0x40\n      add\n      0x40\n      mstore\n      dup1\n      0x20\n      dup2\n      mstore\n      0x20\n      add\n      0x5361666545524332303a206c6f772d6c6576656c2063616c6c206661696c6564\n      dup2\n      mstore\n      pop\n        /* \"@openzeppelin/contracts/token/ERC20/utils/SafeERC20.sol\":4200:4205  token */\n      dup6\n      sub(shl(0xa0, 0x01), 0x01)\n        /* \"@openzeppelin/contracts/token/ERC20/utils/SafeERC20.sol\":4192:4219  address(token).functionCall */\n      and\n      tag_322\n      swap1\n        /* \"@openzeppelin/contracts/token/ERC20/utils/SafeERC20.sol\":4192:4261  address(token).functionCall(data, \"SafeERC20: low-level call failed\") */\n      swap3\n      swap2\n      swap1\n      0xffffffff\n      and\n      jump\t// in\n    tag_321:\n        /* \"@openzeppelin/contracts/token/ERC20/utils/SafeERC20.sol\":4275:4292  returndata.length */\n      dup1\n      mload\n        /* \"@openzeppelin/contracts/token/ERC20/utils/SafeERC20.sol\":4166:4261  bytes memory returndata = address(token).functionCall(data, \"SafeERC20: low-level call failed\") */\n      swap1\n      swap2\n      pop\n        /* \"@openzeppelin/contracts/token/ERC20/utils/SafeERC20.sol\":4275:4296  returndata.length > 0 */\n      iszero\n        /* \"@openzeppelin/contracts/token/ERC20/utils/SafeERC20.sol\":4271:4447  if (returndata.length > 0) {... */\n      tag_310\n      jumpi\n        /* \"@openzeppelin/contracts/token/ERC20/utils/SafeERC20.sol\":4370:4380  returndata */\n      dup1\n        /* \"@openzeppelin/contracts/token/ERC20/utils/SafeERC20.sol\":4359:4389  abi.decode(returndata, (bool)) */\n      dup1\n      0x20\n      add\n      swap1\n      mload\n      dup2\n      add\n      swap1\n      tag_324\n      swap2\n      swap1\n      tag_325\n      jump\t// in\n    tag_324:\n        /* \"@openzeppelin/contracts/token/ERC20/utils/SafeERC20.sol\":4351:4436  require(abi.decode(returndata, (bool)), \"SafeERC20: ERC20 operation did not succeed\") */\n      tag_310\n      jumpi\n      mload(0x40)\n      shl(0xe5, 0x461bcd)\n      dup2\n      mstore\n        /* \"#utility.yul\":7777:7779   */\n      0x20\n        /* \"@openzeppelin/contracts/token/ERC20/utils/SafeERC20.sol\":4351:4436  require(abi.decode(returndata, (bool)), \"SafeERC20: ERC20 operation did not succeed\") */\n      0x04\n      dup3\n      add\n        /* \"#utility.yul\":7759:7780   */\n      mstore\n        /* \"#utility.yul\":7816:7818   */\n      0x2a\n        /* \"#utility.yul\":7796:7814   */\n      0x24\n      dup3\n      add\n        /* \"#utility.yul\":7789:7819   */\n      mstore\n        /* \"#utility.yul\":7855:7889   */\n      0x5361666545524332303a204552433230206f7065726174696f6e20646964206e\n        /* \"#utility.yul\":7835:7853   */\n      0x44\n      dup3\n      add\n        /* \"#utility.yul\":7828:7890   */\n      mstore\n      shl(0xb2, 0x1bdd081cdd58d8d95959)\n        /* \"#utility.yul\":7906:7924   */\n      0x64\n      dup3\n      add\n        /* \"#utility.yul\":7899:7939   */\n      mstore\n        /* \"#utility.yul\":7956:7975   */\n      0x84\n      add\n        /* \"@openzeppelin/contracts/token/ERC20/utils/SafeERC20.sol\":4351:4436  require(abi.decode(returndata, (bool)), \"SafeERC20: ERC20 operation did not succeed\") */\n      tag_171\n        /* \"#utility.yul\":7575:7981   */\n      jump\n        /* \"@openzeppelin/contracts/utils/Address.sol\":3873:4096  function functionCall(... */\n    tag_322:\n        /* \"@openzeppelin/contracts/utils/Address.sol\":4006:4018  bytes memory */\n      0x60\n        /* \"@openzeppelin/contracts/utils/Address.sol\":4037:4089  functionCallWithValue(target, data, 0, errorMessage) */\n      tag_330\n        /* \"@openzeppelin/contracts/utils/Address.sol\":4059:4065  target */\n      dup5\n        /* \"@openzeppelin/contracts/utils/Address.sol\":4067:4071  data */\n      dup5\n        /* \"@openzeppelin/contracts/utils/Address.sol\":4073:4074  0 */\n      0x00\n        /* \"@openzeppelin/contracts/utils/Address.sol\":4076:4088  errorMessage */\n      dup6\n        /* \"@openzeppelin/contracts/utils/Address.sol\":4037:4058  functionCallWithValue */\n      tag_331\n        /* \"@openzeppelin/contracts/utils/Address.sol\":4037:4089  functionCallWithValue(target, data, 0, errorMessage) */\n      jump\t// in\n    tag_330:\n        /* \"@openzeppelin/contracts/utils/Address.sol\":4030:4089  return functionCallWithValue(target, data, 0, errorMessage) */\n      swap5\n        /* \"@openzeppelin/contracts/utils/Address.sol\":3873:4096  function functionCall(... */\n      swap4\n      pop\n      pop\n      pop\n      pop\n      jump\t// out\n        /* \"@openzeppelin/contracts/utils/Address.sol\":4960:5406  function functionCallWithValue(... */\n    tag_331:\n        /* \"@openzeppelin/contracts/utils/Address.sol\":5125:5137  bytes memory */\n      0x60\n        /* \"@openzeppelin/contracts/utils/Address.sol\":5182:5187  value */\n      dup3\n        /* \"@openzeppelin/contracts/utils/Address.sol\":5157:5178  address(this).balance */\n      selfbalance\n        /* \"@openzeppelin/contracts/utils/Address.sol\":5157:5187  address(this).balance >= value */\n      lt\n      iszero\n        /* \"@openzeppelin/contracts/utils/Address.sol\":5149:5230  require(address(this).balance >= value, \"Address: insufficient balance for call\") */\n      tag_333\n      jumpi\n      mload(0x40)\n      shl(0xe5, 0x461bcd)\n      dup2\n      mstore\n        /* \"#utility.yul\":8188:8190   */\n      0x20\n        /* \"@openzeppelin/contracts/utils/Address.sol\":5149:5230  require(address(this).balance >= value, \"Address: insufficient balance for call\") */\n      0x04\n      dup3\n      add\n        /* \"#utility.yul\":8170:8191   */\n      mstore\n        /* \"#utility.yul\":8227:8229   */\n      0x26\n        /* \"#utility.yul\":8207:8225   */\n      0x24\n      dup3\n      add\n        /* \"#utility.yul\":8200:8230   */\n      mstore\n        /* \"#utility.yul\":8266:8300   */\n      0x416464726573733a20696e73756666696369656e742062616c616e636520666f\n        /* \"#utility.yul\":8246:8264   */\n      0x44\n      dup3\n      add\n        /* \"#utility.yul\":8239:8301   */\n      mstore\n      shl(0xd2, 0x1c8818d85b1b)\n        /* \"#utility.yul\":8317:8335   */\n      0x64\n      dup3\n      add\n        /* \"#utility.yul\":8310:8346   */\n      mstore\n        /* \"#utility.yul\":8363:8382   */\n      0x84\n      add\n        /* \"@openzeppelin/contracts/utils/Address.sol\":5149:5230  require(address(this).balance >= value, \"Address: insufficient balance for call\") */\n      tag_171\n        /* \"#utility.yul\":7986:8388   */\n      jump\n        /* \"@openzeppelin/contracts/utils/Address.sol\":5149:5230  require(address(this).balance >= value, \"Address: insufficient balance for call\") */\n    tag_333:\n        /* \"@openzeppelin/contracts/utils/Address.sol\":5241:5253  bool success */\n      0x00\n        /* \"@openzeppelin/contracts/utils/Address.sol\":5255:5278  bytes memory returndata */\n      dup1\n        /* \"@openzeppelin/contracts/utils/Address.sol\":5282:5288  target */\n      dup7\n      sub(shl(0xa0, 0x01), 0x01)\n        /* \"@openzeppelin/contracts/utils/Address.sol\":5282:5293  target.call */\n      and\n        /* \"@openzeppelin/contracts/utils/Address.sol\":5301:5306  value */\n      dup6\n        /* \"@openzeppelin/contracts/utils/Address.sol\":5308:5312  data */\n      dup8\n        /* \"@openzeppelin/contracts/utils/Address.sol\":5282:5313  target.call{value: value}(data) */\n      mload(0x40)\n      tag_336\n      swap2\n      swap1\n      tag_337\n      jump\t// in\n    tag_336:\n      0x00\n      mload(0x40)\n      dup1\n      dup4\n      sub\n      dup2\n      dup6\n      dup8\n      gas\n      call\n      swap3\n      pop\n      pop\n      pop\n      returndatasize\n      dup1\n      0x00\n      dup2\n      eq\n      tag_340\n      jumpi\n      mload(0x40)\n      swap2\n      pop\n      and(add(returndatasize, 0x3f), not(0x1f))\n      dup3\n      add\n      0x40\n      mstore\n      returndatasize\n      dup3\n      mstore\n      returndatasize\n      0x00\n      0x20\n      dup5\n      add\n      returndatacopy\n      jump(tag_339)\n    tag_340:\n      0x60\n      swap2\n      pop\n    tag_339:\n      pop\n        /* \"@openzeppelin/contracts/utils/Address.sol\":5240:5313  (bool success, bytes memory returndata) = target.call{value: value}(data) */\n      swap2\n      pop\n      swap2\n      pop\n        /* \"@openzeppelin/contracts/utils/Address.sol\":5330:5399  verifyCallResultFromTarget(target, success, returndata, errorMessage) */\n      tag_341\n        /* \"@openzeppelin/contracts/utils/Address.sol\":5357:5363  target */\n      dup8\n        /* \"@openzeppelin/contracts/utils/Address.sol\":5365:5372  success */\n      dup4\n        /* \"@openzeppelin/contracts/utils/Address.sol\":5374:5384  returndata */\n      dup4\n        /* \"@openzeppelin/contracts/utils/Address.sol\":5386:5398  errorMessage */\n      dup8\n        /* \"@openzeppelin/contracts/utils/Address.sol\":5330:5356  verifyCallResultFromTarget */\n      tag_342\n        /* \"@openzeppelin/contracts/utils/Address.sol\":5330:5399  verifyCallResultFromTarget(target, success, returndata, errorMessage) */\n      jump\t// in\n    tag_341:\n        /* \"@openzeppelin/contracts/utils/Address.sol\":5323:5399  return verifyCallResultFromTarget(target, success, returndata, errorMessage) */\n      swap8\n        /* \"@openzeppelin/contracts/utils/Address.sol\":4960:5406  function functionCallWithValue(... */\n      swap7\n      pop\n      pop\n      pop\n      pop\n      pop\n      pop\n      pop\n      jump\t// out\n        /* \"@openzeppelin/contracts/utils/Address.sol\":7466:8094  function verifyCallResultFromTarget(... */\n    tag_342:\n        /* \"@openzeppelin/contracts/utils/Address.sol\":7646:7658  bytes memory */\n      0x60\n        /* \"@openzeppelin/contracts/utils/Address.sol\":7674:7681  success */\n      dup4\n        /* \"@openzeppelin/contracts/utils/Address.sol\":7670:8088  if (success) {... */\n      iszero\n      tag_344\n      jumpi\n        /* \"@openzeppelin/contracts/utils/Address.sol\":7701:7711  returndata */\n      dup3\n        /* \"@openzeppelin/contracts/utils/Address.sol\":7701:7718  returndata.length */\n      mload\n        /* \"@openzeppelin/contracts/utils/Address.sol\":7722:7723  0 */\n      0x00\n        /* \"@openzeppelin/contracts/utils/Address.sol\":7701:7723  returndata.length == 0 */\n      sub\n        /* \"@openzeppelin/contracts/utils/Address.sol\":7697:7983  if (returndata.length == 0) {... */\n      tag_348\n      jumpi\n      sub(shl(0xa0, 0x01), 0x01)\n        /* \"@openzeppelin/contracts/utils/Address.sol\":1465:1484  account.code.length */\n      dup6\n      and\n      extcodesize\n        /* \"@openzeppelin/contracts/utils/Address.sol\":7908:7968  require(isContract(target), \"Address: call to non-contract\") */\n      tag_348\n      jumpi\n      mload(0x40)\n      shl(0xe5, 0x461bcd)\n      dup2\n      mstore\n        /* \"#utility.yul\":9142:9144   */\n      0x20\n        /* \"@openzeppelin/contracts/utils/Address.sol\":7908:7968  require(isContract(target), \"Address: call to non-contract\") */\n      0x04\n      dup3\n      add\n        /* \"#utility.yul\":9124:9145   */\n      mstore\n        /* \"#utility.yul\":9181:9183   */\n      0x1d\n        /* \"#utility.yul\":9161:9179   */\n      0x24\n      dup3\n      add\n        /* \"#utility.yul\":9154:9184   */\n      mstore\n        /* \"#utility.yul\":9220:9251   */\n      0x416464726573733a2063616c6c20746f206e6f6e2d636f6e7472616374000000\n        /* \"#utility.yul\":9200:9218   */\n      0x44\n      dup3\n      add\n        /* \"#utility.yul\":9193:9252   */\n      mstore\n        /* \"#utility.yul\":9269:9287   */\n      0x64\n      add\n        /* \"@openzeppelin/contracts/utils/Address.sol\":7908:7968  require(isContract(target), \"Address: call to non-contract\") */\n      tag_171\n        /* \"#utility.yul\":8940:9293   */\n      jump\n        /* \"@openzeppelin/contracts/utils/Address.sol\":7908:7968  require(isContract(target), \"Address: call to non-contract\") */\n    tag_348:\n      pop\n        /* \"@openzeppelin/contracts/utils/Address.sol\":8003:8013  returndata */\n      dup2\n        /* \"@openzeppelin/contracts/utils/Address.sol\":7996:8013  return returndata */\n      jump(tag_330)\n        /* \"@openzeppelin/contracts/utils/Address.sol\":7670:8088  if (success) {... */\n    tag_344:\n        /* \"@openzeppelin/contracts/utils/Address.sol\":8044:8077  _revert(returndata, errorMessage) */\n      tag_330\n        /* \"@openzeppelin/contracts/utils/Address.sol\":8052:8062  returndata */\n      dup4\n        /* \"@openzeppelin/contracts/utils/Address.sol\":8064:8076  errorMessage */\n      dup4\n        /* \"@openzeppelin/contracts/utils/Address.sol\":8775:8792  returndata.length */\n      dup2\n      mload\n        /* \"@openzeppelin/contracts/utils/Address.sol\":8775:8796  returndata.length > 0 */\n      iszero\n        /* \"@openzeppelin/contracts/utils/Address.sol\":8771:9150  if (returndata.length > 0) {... */\n      tag_356\n      jumpi\n        /* \"@openzeppelin/contracts/utils/Address.sol\":9003:9013  returndata */\n      dup2\n        /* \"@openzeppelin/contracts/utils/Address.sol\":8997:9014  mload(returndata) */\n      mload\n        /* \"@openzeppelin/contracts/utils/Address.sol\":9059:9074  returndata_size */\n      dup1\n        /* \"@openzeppelin/contracts/utils/Address.sol\":9046:9056  returndata */\n      dup4\n        /* \"@openzeppelin/contracts/utils/Address.sol\":9042:9044  32 */\n      0x20\n        /* \"@openzeppelin/contracts/utils/Address.sol\":9038:9057  add(32, returndata) */\n      add\n        /* \"@openzeppelin/contracts/utils/Address.sol\":9031:9075  revert(add(32, returndata), returndata_size) */\n      revert\n        /* \"@openzeppelin/contracts/utils/Address.sol\":8771:9150  if (returndata.length > 0) {... */\n    tag_356:\n        /* \"@openzeppelin/contracts/utils/Address.sol\":9126:9138  errorMessage */\n      dup1\n        /* \"@openzeppelin/contracts/utils/Address.sol\":9119:9139  revert(errorMessage) */\n      mload(0x40)\n      shl(0xe5, 0x461bcd)\n      dup2\n      mstore\n      0x04\n      add\n      tag_171\n      swap2\n      swap1\n      tag_359\n      jump\t// in\n        /* \"#utility.yul\":14:187   */\n    tag_360:\n        /* \"#utility.yul\":82:102   */\n      dup1\n      calldataload\n      sub(shl(0xa0, 0x01), 0x01)\n        /* \"#utility.yul\":131:162   */\n      dup2\n      and\n        /* \"#utility.yul\":121:163   */\n      dup2\n      eq\n        /* \"#utility.yul\":111:181   */\n      tag_366\n      jumpi\n        /* \"#utility.yul\":177:178   */\n      0x00\n        /* \"#utility.yul\":174:175   */\n      dup1\n        /* \"#utility.yul\":167:179   */\n      revert\n        /* \"#utility.yul\":111:181   */\n    tag_366:\n        /* \"#utility.yul\":14:187   */\n      swap2\n      swap1\n      pop\n      jump\t// out\n        /* \"#utility.yul\":192:378   */\n    tag_42:\n        /* \"#utility.yul\":251:257   */\n      0x00\n        /* \"#utility.yul\":304:306   */\n      0x20\n        /* \"#utility.yul\":292:301   */\n      dup3\n        /* \"#utility.yul\":283:290   */\n      dup5\n        /* \"#utility.yul\":279:302   */\n      sub\n        /* \"#utility.yul\":275:307   */\n      slt\n        /* \"#utility.yul\":272:324   */\n      iszero\n      tag_368\n      jumpi\n        /* \"#utility.yul\":320:321   */\n      0x00\n        /* \"#utility.yul\":317:318   */\n      dup1\n        /* \"#utility.yul\":310:322   */\n      revert\n        /* \"#utility.yul\":272:324   */\n    tag_368:\n        /* \"#utility.yul\":343:372   */\n      tag_287\n        /* \"#utility.yul\":362:371   */\n      dup3\n        /* \"#utility.yul\":343:372   */\n      tag_360\n      jump\t// in\n        /* \"#utility.yul\":565:683   */\n    tag_361:\n        /* \"#utility.yul\":651:656   */\n      dup1\n        /* \"#utility.yul\":644:657   */\n      iszero\n        /* \"#utility.yul\":637:658   */\n      iszero\n        /* \"#utility.yul\":630:635   */\n      dup2\n        /* \"#utility.yul\":627:659   */\n      eq\n        /* \"#utility.yul\":617:677   */\n      tag_151\n      jumpi\n        /* \"#utility.yul\":673:674   */\n      0x00\n        /* \"#utility.yul\":670:671   */\n      dup1\n        /* \"#utility.yul\":663:675   */\n      revert\n        /* \"#utility.yul\":688:929   */\n    tag_52:\n        /* \"#utility.yul\":744:750   */\n      0x00\n        /* \"#utility.yul\":797:799   */\n      0x20\n        /* \"#utility.yul\":785:794   */\n      dup3\n        /* \"#utility.yul\":776:783   */\n      dup5\n        /* \"#utility.yul\":772:795   */\n      sub\n        /* \"#utility.yul\":768:800   */\n      slt\n        /* \"#utility.yul\":765:817   */\n      iszero\n      tag_374\n      jumpi\n        /* \"#utility.yul\":813:814   */\n      0x00\n        /* \"#utility.yul\":810:811   */\n      dup1\n        /* \"#utility.yul\":803:815   */\n      revert\n        /* \"#utility.yul\":765:817   */\n    tag_374:\n        /* \"#utility.yul\":852:861   */\n      dup2\n        /* \"#utility.yul\":839:862   */\n      calldataload\n        /* \"#utility.yul\":871:899   */\n      tag_287\n        /* \"#utility.yul\":893:898   */\n      dup2\n        /* \"#utility.yul\":871:899   */\n      tag_361\n      jump\t// in\n        /* \"#utility.yul\":934:1114   */\n    tag_65:\n        /* \"#utility.yul\":993:999   */\n      0x00\n        /* \"#utility.yul\":1046:1048   */\n      0x20\n        /* \"#utility.yul\":1034:1043   */\n      dup3\n        /* \"#utility.yul\":1025:1032   */\n      dup5\n        /* \"#utility.yul\":1021:1044   */\n      sub\n        /* \"#utility.yul\":1017:1049   */\n      slt\n        /* \"#utility.yul\":1014:1066   */\n      iszero\n      tag_377\n      jumpi\n        /* \"#utility.yul\":1062:1063   */\n      0x00\n        /* \"#utility.yul\":1059:1060   */\n      dup1\n        /* \"#utility.yul\":1052:1064   */\n      revert\n        /* \"#utility.yul\":1014:1066   */\n    tag_377:\n      pop\n        /* \"#utility.yul\":1085:1108   */\n      calldataload\n      swap2\n        /* \"#utility.yul\":934:1114   */\n      swap1\n      pop\n      jump\t// out\n        /* \"#utility.yul\":1519:1773   */\n    tag_100:\n        /* \"#utility.yul\":1587:1593   */\n      0x00\n        /* \"#utility.yul\":1595:1601   */\n      dup1\n        /* \"#utility.yul\":1648:1650   */\n      0x40\n        /* \"#utility.yul\":1636:1645   */\n      dup4\n        /* \"#utility.yul\":1627:1634   */\n      dup6\n        /* \"#utility.yul\":1623:1646   */\n      sub\n        /* \"#utility.yul\":1619:1651   */\n      slt\n        /* \"#utility.yul\":1616:1668   */\n      iszero\n      tag_381\n      jumpi\n        /* \"#utility.yul\":1664:1665   */\n      0x00\n        /* \"#utility.yul\":1661:1662   */\n      dup1\n        /* \"#utility.yul\":1654:1666   */\n      revert\n        /* \"#utility.yul\":1616:1668   */\n    tag_381:\n        /* \"#utility.yul\":1687:1716   */\n      tag_382\n        /* \"#utility.yul\":1706:1715   */\n      dup4\n        /* \"#utility.yul\":1687:1716   */\n      tag_360\n      jump\t// in\n    tag_382:\n        /* \"#utility.yul\":1677:1716   */\n      swap5\n        /* \"#utility.yul\":1763:1765   */\n      0x20\n        /* \"#utility.yul\":1748:1766   */\n      swap4\n      swap1\n      swap4\n      add\n        /* \"#utility.yul\":1735:1767   */\n      calldataload\n      swap4\n      pop\n      pop\n      pop\n        /* \"#utility.yul\":1519:1773   */\n      jump\t// out\n        /* \"#utility.yul\":2535:2719   */\n    tag_201:\n        /* \"#utility.yul\":2605:2611   */\n      0x00\n        /* \"#utility.yul\":2658:2660   */\n      0x20\n        /* \"#utility.yul\":2646:2655   */\n      dup3\n        /* \"#utility.yul\":2637:2644   */\n      dup5\n        /* \"#utility.yul\":2633:2656   */\n      sub\n        /* \"#utility.yul\":2629:2661   */\n      slt\n        /* \"#utility.yul\":2626:2678   */\n      iszero\n      tag_386\n      jumpi\n        /* \"#utility.yul\":2674:2675   */\n      0x00\n        /* \"#utility.yul\":2671:2672   */\n      dup1\n        /* \"#utility.yul\":2664:2676   */\n      revert\n        /* \"#utility.yul\":2626:2678   */\n    tag_386:\n      pop\n        /* \"#utility.yul\":2697:2713   */\n      mload\n      swap2\n        /* \"#utility.yul\":2535:2719   */\n      swap1\n      pop\n      jump\t// out\n        /* \"#utility.yul\":5434:5561   */\n    tag_362:\n        /* \"#utility.yul\":5495:5505   */\n      0x4e487b71\n        /* \"#utility.yul\":5490:5493   */\n      0xe0\n        /* \"#utility.yul\":5486:5506   */\n      shl\n        /* \"#utility.yul\":5483:5484   */\n      0x00\n        /* \"#utility.yul\":5476:5507   */\n      mstore\n        /* \"#utility.yul\":5526:5530   */\n      0x11\n        /* \"#utility.yul\":5523:5524   */\n      0x04\n        /* \"#utility.yul\":5516:5531   */\n      mstore\n        /* \"#utility.yul\":5550:5554   */\n      0x24\n        /* \"#utility.yul\":5547:5548   */\n      0x00\n        /* \"#utility.yul\":5540:5555   */\n      revert\n        /* \"#utility.yul\":5566:5694   */\n    tag_288:\n        /* \"#utility.yul\":5633:5642   */\n      dup2\n      dup2\n      sub\n        /* \"#utility.yul\":5654:5665   */\n      dup2\n      dup2\n      gt\n        /* \"#utility.yul\":5651:5688   */\n      iszero\n      tag_139\n      jumpi\n        /* \"#utility.yul\":5668:5686   */\n      tag_139\n      tag_362\n      jump\t// in\n        /* \"#utility.yul\":5699:5867   */\n    tag_291:\n        /* \"#utility.yul\":5772:5781   */\n      dup1\n      dup3\n      mul\n        /* \"#utility.yul\":5803:5812   */\n      dup2\n      iszero\n        /* \"#utility.yul\":5820:5835   */\n      dup3\n      dup3\n      div\n        /* \"#utility.yul\":5814:5836   */\n      dup5\n      eq\n        /* \"#utility.yul\":5800:5837   */\n      or\n        /* \"#utility.yul\":5790:5861   */\n      tag_139\n      jumpi\n        /* \"#utility.yul\":5841:5859   */\n      tag_139\n      tag_362\n      jump\t// in\n        /* \"#utility.yul\":5872:6089   */\n    tag_294:\n        /* \"#utility.yul\":5912:5913   */\n      0x00\n        /* \"#utility.yul\":5938:5939   */\n      dup3\n        /* \"#utility.yul\":5928:6060   */\n      tag_402\n      jumpi\n        /* \"#utility.yul\":5982:5992   */\n      0x4e487b71\n        /* \"#utility.yul\":5977:5980   */\n      0xe0\n        /* \"#utility.yul\":5973:5993   */\n      shl\n        /* \"#utility.yul\":5970:5971   */\n      0x00\n        /* \"#utility.yul\":5963:5994   */\n      mstore\n        /* \"#utility.yul\":6017:6021   */\n      0x12\n        /* \"#utility.yul\":6014:6015   */\n      0x04\n        /* \"#utility.yul\":6007:6022   */\n      mstore\n        /* \"#utility.yul\":6045:6049   */\n      0x24\n        /* \"#utility.yul\":6042:6043   */\n      0x00\n        /* \"#utility.yul\":6035:6050   */\n      revert\n        /* \"#utility.yul\":5928:6060   */\n    tag_402:\n      pop\n        /* \"#utility.yul\":6074:6083   */\n      div\n      swap1\n        /* \"#utility.yul\":5872:6089   */\n      jump\t// out\n        /* \"#utility.yul\":6094:6219   */\n    tag_297:\n        /* \"#utility.yul\":6159:6168   */\n      dup1\n      dup3\n      add\n        /* \"#utility.yul\":6180:6190   */\n      dup1\n      dup3\n      gt\n        /* \"#utility.yul\":6177:6213   */\n      iszero\n      tag_139\n      jumpi\n        /* \"#utility.yul\":6193:6211   */\n      tag_139\n      tag_362\n      jump\t// in\n        /* \"#utility.yul\":7325:7570   */\n    tag_325:\n        /* \"#utility.yul\":7392:7398   */\n      0x00\n        /* \"#utility.yul\":7445:7447   */\n      0x20\n        /* \"#utility.yul\":7433:7442   */\n      dup3\n        /* \"#utility.yul\":7424:7431   */\n      dup5\n        /* \"#utility.yul\":7420:7443   */\n      sub\n        /* \"#utility.yul\":7416:7448   */\n      slt\n        /* \"#utility.yul\":7413:7465   */\n      iszero\n      tag_410\n      jumpi\n        /* \"#utility.yul\":7461:7462   */\n      0x00\n        /* \"#utility.yul\":7458:7459   */\n      dup1\n        /* \"#utility.yul\":7451:7463   */\n      revert\n        /* \"#utility.yul\":7413:7465   */\n    tag_410:\n        /* \"#utility.yul\":7493:7502   */\n      dup2\n        /* \"#utility.yul\":7487:7503   */\n      mload\n        /* \"#utility.yul\":7512:7540   */\n      tag_287\n        /* \"#utility.yul\":7534:7539   */\n      dup2\n        /* \"#utility.yul\":7512:7540   */\n      tag_361\n      jump\t// in\n        /* \"#utility.yul\":8393:8643   */\n    tag_363:\n        /* \"#utility.yul\":8478:8479   */\n      0x00\n        /* \"#utility.yul\":8488:8601   */\n    tag_415:\n        /* \"#utility.yul\":8502:8508   */\n      dup4\n        /* \"#utility.yul\":8499:8500   */\n      dup2\n        /* \"#utility.yul\":8496:8509   */\n      lt\n        /* \"#utility.yul\":8488:8601   */\n      iszero\n      tag_417\n      jumpi\n        /* \"#utility.yul\":8578:8589   */\n      dup2\n      dup2\n      add\n        /* \"#utility.yul\":8572:8590   */\n      mload\n        /* \"#utility.yul\":8559:8570   */\n      dup4\n      dup3\n      add\n        /* \"#utility.yul\":8552:8591   */\n      mstore\n        /* \"#utility.yul\":8524:8526   */\n      0x20\n        /* \"#utility.yul\":8517:8527   */\n      add\n        /* \"#utility.yul\":8488:8601   */\n      jump(tag_415)\n    tag_417:\n      pop\n      pop\n        /* \"#utility.yul\":8635:8636   */\n      0x00\n        /* \"#utility.yul\":8617:8633   */\n      swap2\n      add\n        /* \"#utility.yul\":8610:8637   */\n      mstore\n        /* \"#utility.yul\":8393:8643   */\n      jump\t// out\n        /* \"#utility.yul\":8648:8935   */\n    tag_337:\n        /* \"#utility.yul\":8777:8780   */\n      0x00\n        /* \"#utility.yul\":8815:8821   */\n      dup3\n        /* \"#utility.yul\":8809:8822   */\n      mload\n        /* \"#utility.yul\":8831:8897   */\n      tag_419\n        /* \"#utility.yul\":8890:8896   */\n      dup2\n        /* \"#utility.yul\":8885:8888   */\n      dup5\n        /* \"#utility.yul\":8878:8882   */\n      0x20\n        /* \"#utility.yul\":8870:8876   */\n      dup8\n        /* \"#utility.yul\":8866:8883   */\n      add\n        /* \"#utility.yul\":8831:8897   */\n      tag_363\n      jump\t// in\n    tag_419:\n        /* \"#utility.yul\":8913:8929   */\n      swap2\n      swap1\n      swap2\n      add\n      swap3\n        /* \"#utility.yul\":8648:8935   */\n      swap2\n      pop\n      pop\n      jump\t// out\n        /* \"#utility.yul\":9298:9694   */\n    tag_359:\n        /* \"#utility.yul\":9447:9449   */\n      0x20\n        /* \"#utility.yul\":9436:9445   */\n      dup2\n        /* \"#utility.yul\":9429:9450   */\n      mstore\n        /* \"#utility.yul\":9410:9414   */\n      0x00\n        /* \"#utility.yul\":9479:9485   */\n      dup3\n        /* \"#utility.yul\":9473:9486   */\n      mload\n        /* \"#utility.yul\":9522:9528   */\n      dup1\n        /* \"#utility.yul\":9517:9519   */\n      0x20\n        /* \"#utility.yul\":9506:9515   */\n      dup5\n        /* \"#utility.yul\":9502:9520   */\n      add\n        /* \"#utility.yul\":9495:9529   */\n      mstore\n        /* \"#utility.yul\":9538:9617   */\n      tag_422\n        /* \"#utility.yul\":9610:9616   */\n      dup2\n        /* \"#utility.yul\":9605:9607   */\n      0x40\n        /* \"#utility.yul\":9594:9603   */\n      dup6\n        /* \"#utility.yul\":9590:9608   */\n      add\n        /* \"#utility.yul\":9585:9587   */\n      0x20\n        /* \"#utility.yul\":9577:9583   */\n      dup8\n        /* \"#utility.yul\":9573:9588   */\n      add\n        /* \"#utility.yul\":9538:9617   */\n      tag_363\n      jump\t// in\n    tag_422:\n        /* \"#utility.yul\":9678:9680   */\n      0x1f\n        /* \"#utility.yul\":9657:9672   */\n      add\n      not(0x1f)\n        /* \"#utility.yul\":9653:9682   */\n      and\n        /* \"#utility.yul\":9638:9683   */\n      swap2\n      swap1\n      swap2\n      add\n        /* \"#utility.yul\":9685:9687   */\n      0x40\n        /* \"#utility.yul\":9634:9688   */\n      add\n      swap3\n        /* \"#utility.yul\":9298:9694   */\n      swap2\n      pop\n      pop\n      jump\t// out\n\n    auxdata: 0xa2646970667358221220cc3c4486f15c843dd1b7b7cb4910c5692ca750d9a3f4d871a7bcd9814534737164736f6c63430008120033\n}\n",
				"bytecode": {
					"linkReferences": {},
					"object": "60806040526000600455600060055562093a806006553480156200002257600080fd5b50604051620015b0380380620015b083398101604081905262000045916200010a565b600160005562000055336200009b565b600280546001600160a01b039384166001600160a01b03199182161790915560038054928416928216929092179091556009805493909216921691909117905562000154565b600180546001600160a01b038381166001600160a01b0319831681179093556040519116919082907f8be0079c531659141344cd1fd0a4f28419497f9722a3daafe3b4186f6b6457e090600090a35050565b80516001600160a01b03811681146200010557600080fd5b919050565b6000806000606084860312156200012057600080fd5b6200012b84620000ed565b92506200013b60208501620000ed565b91506200014b60408501620000ed565b90509250925092565b61144c80620001646000396000f3fe608060405234801561001057600080fd5b50600436106101d95760003560e01c80637b0a47ee11610104578063c8f33c91116100a2578063df136d6511610071578063df136d65146103c7578063e9fad8ee146103d0578063ebe2b12b146103d8578063f2fde38b146103e157600080fd5b8063c8f33c9114610390578063cc1a378f14610399578063cd3daf9d146103ac578063d1af0c7d146103b457600080fd5b80638b876347116100de5780638b876347146103435780638da5cb5b1461036357806391b4ded914610374578063a694fc3a1461037d57600080fd5b80637b0a47ee1461031f57806380faa57d146103285780638980f11f1461033057600080fd5b8063386a95251161017c5780635c975abb1161014b5780635c975abb146102be57806370a08231146102db578063715018a61461030457806372f702f31461030c57600080fd5b8063386a95251461026f5780633c6b16ab146102785780633d18b9121461028b5780633fc6df6e1461029357600080fd5b806318160ddd116101b857806318160ddd1461023957806319762143146102415780631c1f78eb146102545780632e1a7d4d1461025c57600080fd5b80628cc262146101de5780630700037d1461020457806316c38b3c14610224575b600080fd5b6101f16101ec36600461126f565b6103f4565b6040519081526020015b60405180910390f35b6101f161021236600461126f565b600b6020526000908152604090205481565b610237610232366004611298565b610472565b005b600c546101f1565b61023761024f36600461126f565b6104e9565b6101f1610513565b61023761026a3660046112b5565b610531565b6101f160065481565b6102376102863660046112b5565b610674565b6102376108c2565b6009546102a6906001600160a01b031681565b6040516001600160a01b0390911681526020016101fb565b600f546102cb9060ff1681565b60405190151581526020016101fb565b6101f16102e936600461126f565b6001600160a01b03166000908152600d602052604090205490565b6102376109a8565b6003546102a6906001600160a01b031681565b6101f160055481565b6101f16109ba565b61023761033e3660046112ce565b6109d1565b6101f161035136600461126f565b600a6020526000908152604090205481565b6001546001600160a01b03166102a6565b6101f1600e5481565b61023761038b3660046112b5565b610aad565b6101f160075481565b6102376103a73660046112b5565b610c53565b6101f1610d2d565b6002546102a6906001600160a01b031681565b6101f160085481565b610237610d78565b6101f160045481565b6102376103ef36600461126f565b610d99565b6001600160a01b0381166000908152600b6020908152604080832054600a90925282205461046c919061046690670de0b6b3a764000090610460906104419061043b610d2d565b90610e0f565b6001600160a01b0388166000908152600d602052604090205490610e22565b90610e2e565b90610e3a565b92915050565b61047a610e46565b600f5460ff161515811515146104e657600f805460ff191682151590811790915560ff16156104a85742600e555b600f5460405160ff909116151581527f8fb6c181ee25a520cf3dd6565006ef91229fcfe5a989566c2a3b8c115570cec5906020015b60405180910390a15b50565b6104f1610e46565b600980546001600160a01b0319166001600160a01b0392909216919091179055565b600061052c600654600554610e2290919063ffffffff16565b905090565b610539610ea0565b33610542610d2d565b60085561054d6109ba565b6007556001600160a01b0381161561059457610568816103f4565b6001600160a01b0382166000908152600b6020908152604080832093909355600854600a909152919020555b600082116105dd5760405162461bcd60e51b8152602060048201526011602482015270043616e6e6f74207769746864726177203607c1b60448201526064015b60405180910390fd5b600c546105ea9083610e0f565b600c55336000908152600d60205260409020546106079083610e0f565b336000818152600d6020526040902091909155600354610633916001600160a01b039091169084610ef9565b60405182815233907f7084f5476618d8e60b11ef0d7d3f06914655adb8793e28ff7f018d4c76d505d5906020015b60405180910390a2506104e66001600055565b6009546001600160a01b031633146106e15760405162461bcd60e51b815260206004820152602a60248201527f43616c6c6572206973206e6f742052657761726473446973747269627574696f6044820152691b8818dbdb9d1c9858dd60b21b60648201526084016105d4565b60006106eb610d2d565b6008556106f66109ba565b6007556001600160a01b0381161561073d57610711816103f4565b6001600160a01b0382166000908152600b6020908152604080832093909355600854600a909152919020555b600454421061075c57600654610754908390610e2e565b60055561079f565b60045460009061076c9042610e0f565b9050600061078560055483610e2290919063ffffffff16565b600654909150610799906104608684610e3a565b60055550505b6002546040516370a0823160e01b81523060048201526000916001600160a01b0316906370a0823190602401602060405180830381865afa1580156107e8573d6000803e3d6000fd5b505050506040513d601f19601f8201168201806040525081019061080c91906112f8565b905061082360065482610e2e90919063ffffffff16565b60055411156108745760405162461bcd60e51b815260206004820152601860248201527f50726f76696465642072657761726420746f6f2068696768000000000000000060448201526064016105d4565b4260078190556006546108879190610e3a565b6004556040518381527fde88a922e0d3b88b24e9623efeb464919c6bf9f66857a65e2bfcf2ce87a9433d9060200160405180910390a1505050565b6108ca610ea0565b336108d3610d2d565b6008556108de6109ba565b6007556001600160a01b03811615610925576108f9816103f4565b6001600160a01b0382166000908152600b6020908152604080832093909355600854600a909152919020555b336000908152600b6020526040902054801561099a57336000818152600b6020526040812055600254610964916001600160a01b039091169083610ef9565b60405181815233907fe2403640ba68fed3a2f88b7557551d1993f84b99bb10ff833f0cf8db0c5e04869060200160405180910390a25b50506109a66001600055565b565b6109b0610e46565b6109a66000610f61565b600060045442106109cc575060045490565b504290565b6109d9610e46565b6003546001600160a01b0390811690831603610a415760405162461bcd60e51b815260206004820152602160248201527f43616e6e6f7420776974686472617720746865207374616b696e6720746f6b656044820152603760f91b60648201526084016105d4565b610a67610a566001546001600160a01b031690565b6001600160a01b0384169083610ef9565b604080516001600160a01b0384168152602081018390527f8c1256b8896378cd5044f80c202f9772b9d77dc85c8a6eb51967210b09bfaa28910160405180910390a15050565b610ab5610ea0565b600f5460ff1615610b2e5760405162461bcd60e51b815260206004820152603c60248201527f5468697320616374696f6e2063616e6e6f7420626520706572666f726d65642060448201527f7768696c652074686520636f6e7472616374206973207061757365640000000060648201526084016105d4565b33610b37610d2d565b600855610b426109ba565b6007556001600160a01b03811615610b8957610b5d816103f4565b6001600160a01b0382166000908152600b6020908152604080832093909355600854600a909152919020555b60008211610bca5760405162461bcd60e51b815260206004820152600e60248201526d043616e6e6f74207374616b6520360941b60448201526064016105d4565b600c54610bd79083610e3a565b600c55336000908152600d6020526040902054610bf49083610e3a565b336000818152600d6020526040902091909155600354610c21916001600160a01b03909116903085610fb3565b60405182815233907f9e71bc8eea02a63969f509818f2dafb9254532904319f9dbda79b67bd34a5f3d90602001610661565b610c5b610e46565b6004544211610cf85760405162461bcd60e51b815260206004820152605860248201527f50726576696f7573207265776172647320706572696f64206d7573742062652060448201527f636f6d706c657465206265666f7265206368616e67696e67207468652064757260648201527f6174696f6e20666f7220746865206e657720706572696f640000000000000000608482015260a4016105d4565b60068190556040518181527ffb46ca5a5e06d4540d6387b930a7c978bce0db5f449ec6b3f5d07c6e1d44f2d3906020016104dd565b6000600c54600003610d40575060085490565b61052c610d6f600c54610460670de0b6b3a7640000610d69600554610d6960075461043b6109ba565b90610e22565b60085490610e3a565b336000908152600d6020526040902054610d9190610531565b6109a66108c2565b610da1610e46565b6001600160a01b038116610e065760405162461bcd60e51b815260206004820152602660248201527f4f776e61626c653a206e6577206f776e657220697320746865207a65726f206160448201526564647265737360d01b60648201526084016105d4565b6104e681610f61565b6000610e1b8284611327565b9392505050565b6000610e1b828461133a565b6000610e1b8284611351565b6000610e1b8284611373565b6001546001600160a01b031633146109a65760405162461bcd60e51b815260206004820181905260248201527f4f776e61626c653a2063616c6c6572206973206e6f7420746865206f776e657260448201526064016105d4565b600260005403610ef25760405162461bcd60e51b815260206004820152601f60248201527f5265656e7472616e637947756172643a207265656e7472616e742063616c6c0060448201526064016105d4565b6002600055565b6040516001600160a01b038316602482015260448101829052610f5c90849063a9059cbb60e01b906064015b60408051601f198184030181529190526020810180516001600160e01b03166001600160e01b031990931692909217909152610ff1565b505050565b600180546001600160a01b038381166001600160a01b0319831681179093556040519116919082907f8be0079c531659141344cd1fd0a4f28419497f9722a3daafe3b4186f6b6457e090600090a35050565b6040516001600160a01b0380851660248301528316604482015260648101829052610feb9085906323b872dd60e01b90608401610f25565b50505050565b6000611046826040518060400160405280602081526020017f5361666545524332303a206c6f772d6c6576656c2063616c6c206661696c6564815250856001600160a01b03166110c39092919063ffffffff16565b805190915015610f5c57808060200190518101906110649190611386565b610f5c5760405162461bcd60e51b815260206004820152602a60248201527f5361666545524332303a204552433230206f7065726174696f6e20646964206e6044820152691bdd081cdd58d8d9595960b21b60648201526084016105d4565b60606110d284846000856110da565b949350505050565b60608247101561113b5760405162461bcd60e51b815260206004820152602660248201527f416464726573733a20696e73756666696369656e742062616c616e636520666f6044820152651c8818d85b1b60d21b60648201526084016105d4565b600080866001600160a01b0316858760405161115791906113c7565b60006040518083038185875af1925050503d8060008114611194576040519150601f19603f3d011682016040523d82523d6000602084013e611199565b606091505b50915091506111aa878383876111b5565b979650505050505050565b6060831561122457825160000361121d576001600160a01b0385163b61121d5760405162461bcd60e51b815260206004820152601d60248201527f416464726573733a2063616c6c20746f206e6f6e2d636f6e747261637400000060448201526064016105d4565b50816110d2565b6110d283838151156112395781518083602001fd5b8060405162461bcd60e51b81526004016105d491906113e3565b80356001600160a01b038116811461126a57600080fd5b919050565b60006020828403121561128157600080fd5b610e1b82611253565b80151581146104e657600080fd5b6000602082840312156112aa57600080fd5b8135610e1b8161128a565b6000602082840312156112c757600080fd5b5035919050565b600080604083850312156112e157600080fd5b6112ea83611253565b946020939093013593505050565b60006020828403121561130a57600080fd5b5051919050565b634e487b7160e01b600052601160045260246000fd5b8181038181111561046c5761046c611311565b808202811582820484141761046c5761046c611311565b60008261136e57634e487b7160e01b600052601260045260246000fd5b500490565b8082018082111561046c5761046c611311565b60006020828403121561139857600080fd5b8151610e1b8161128a565b60005b838110156113be5781810151838201526020016113a6565b50506000910152565b600082516113d98184602087016113a3565b9190910192915050565b60208152600082518060208401526114028160408501602087016113a3565b601f01601f1916919091016040019291505056fea2646970667358221220cc3c4486f15c843dd1b7b7cb4910c5692ca750d9a3f4d871a7bcd9814534737164736f6c63430008120033",
					"opcodes": "PUSH1 0x80 PUSH1 0x40 MSTORE PUSH1 0x0 PUSH1 0x4 SSTORE PUSH1 0x0 PUSH1 0x5 SSTORE PUSH3 0x93A80 PUSH1 0x6 SSTORE CALLVALUE DUP1 ISZERO PUSH3 0x22 JUMPI PUSH1 0x0 DUP1 REVERT JUMPDEST POP PUSH1 0x40 MLOAD PUSH3 0x15B0 CODESIZE SUB DUP1 PUSH3 0x15B0 DUP4 CODECOPY DUP2 ADD PUSH1 0x40 DUP2 SWAP1 MSTORE PUSH3 0x45 SWAP2 PUSH3 0x10A JUMP JUMPDEST PUSH1 0x1 PUSH1 0x0 SSTORE PUSH3 0x55 CALLER PUSH3 0x9B JUMP JUMPDEST PUSH1 0x2 DUP1 SLOAD PUSH1 0x1 PUSH1 0x1 PUSH1 0xA0 SHL SUB SWAP4 DUP5 AND PUSH1 0x1 PUSH1 0x1 PUSH1 0xA0 SHL SUB NOT SWAP2 DUP3 AND OR SWAP1 SWAP2 SSTORE PUSH1 0x3 DUP1 SLOAD SWAP3 DUP5 AND SWAP3 DUP3 AND SWAP3 SWAP1 SWAP3 OR SWAP1 SWAP2 SSTORE PUSH1 0x9 DUP1 SLOAD SWAP4 SWAP1 SWAP3 AND SWAP3 AND SWAP2 SWAP1 SWAP2 OR SWAP1 SSTORE PUSH3 0x154 JUMP JUMPDEST PUSH1 0x1 DUP1 SLOAD PUSH1 0x1 PUSH1 0x1 PUSH1 0xA0 SHL SUB DUP4 DUP2 AND PUSH1 0x1 PUSH1 0x1 PUSH1 0xA0 SHL SUB NOT DUP4 AND DUP2 OR SWAP1 SWAP4 SSTORE PUSH1 0x40 MLOAD SWAP2 AND SWAP2 SWAP1 DUP3 SWAP1 PUSH32 0x8BE0079C531659141344CD1FD0A4F28419497F9722A3DAAFE3B4186F6B6457E0 SWAP1 PUSH1 0x0 SWAP1 LOG3 POP POP JUMP JUMPDEST DUP1 MLOAD PUSH1 0x1 PUSH1 0x1 PUSH1 0xA0 SHL SUB DUP2 AND DUP2 EQ PUSH3 0x105 JUMPI PUSH1 0x0 DUP1 REVERT JUMPDEST SWAP2 SWAP1 POP JUMP JUMPDEST PUSH1 0x0 DUP1 PUSH1 0x0 PUSH1 0x60 DUP5 DUP7 SUB SLT ISZERO PUSH3 0x120 JUMPI PUSH1 0x0 DUP1 REVERT JUMPDEST PUSH3 0x12B DUP5 PUSH3 0xED JUMP JUMPDEST SWAP3 POP PUSH3 0x13B PUSH1 0x20 DUP6 ADD PUSH3 0xED JUMP JUMPDEST SWAP2 POP PUSH3 0x14B PUSH1 0x40 DUP6 ADD PUSH3 0xED JUMP JUMPDEST SWAP1 POP SWAP3 POP SWAP3 POP SWAP3 JUMP JUMPDEST PUSH2 0x144C DUP1 PUSH3 0x164 PUSH1 0x0 CODECOPY PUSH1 0x0 RETURN INVALID PUSH1 0x80 PUSH1 0x40 MSTORE CALLVALUE DUP1 ISZERO PUSH2 0x10 JUMPI PUSH1 0x0 DUP1 REVERT JUMPDEST POP PUSH1 0x4 CALLDATASIZE LT PUSH2 0x1D9 JUMPI PUSH1 0x0 CALLDATALOAD PUSH1 0xE0 SHR DUP1 PUSH4 0x7B0A47EE GT PUSH2 0x104 JUMPI DUP1 PUSH4 0xC8F33C91 GT PUSH2 0xA2 JUMPI DUP1 PUSH4 0xDF136D65 GT PUSH2 0x71 JUMPI DUP1 PUSH4 0xDF136D65 EQ PUSH2 0x3C7 JUMPI DUP1 PUSH4 0xE9FAD8EE EQ PUSH2 0x3D0 JUMPI DUP1 PUSH4 0xEBE2B12B EQ PUSH2 0x3D8 JUMPI DUP1 PUSH4 0xF2FDE38B EQ PUSH2 0x3E1 JUMPI PUSH1 0x0 DUP1 REVERT JUMPDEST DUP1 PUSH4 0xC8F33C91 EQ PUSH2 0x390 JUMPI DUP1 PUSH4 0xCC1A378F EQ PUSH2 0x399 JUMPI DUP1 PUSH4 0xCD3DAF9D EQ PUSH2 0x3AC JUMPI DUP1 PUSH4 0xD1AF0C7D EQ PUSH2 0x3B4 JUMPI PUSH1 0x0 DUP1 REVERT JUMPDEST DUP1 PUSH4 0x8B876347 GT PUSH2 0xDE JUMPI DUP1 PUSH4 0x8B876347 EQ PUSH2 0x343 JUMPI DUP1 PUSH4 0x8DA5CB5B EQ PUSH2 0x363 JUMPI DUP1 PUSH4 0x91B4DED9 EQ PUSH2 0x374 JUMPI DUP1 PUSH4 0xA694FC3A EQ PUSH2 0x37D JUMPI PUSH1 0x0 DUP1 REVERT JUMPDEST DUP1 PUSH4 0x7B0A47EE EQ PUSH2 0x31F JUMPI DUP1 PUSH4 0x80FAA57D EQ PUSH2 0x328 JUMPI DUP1 PUSH4 0x8980F11F EQ PUSH2 0x330 JUMPI PUSH1 0x0 DUP1 REVERT JUMPDEST DUP1 PUSH4 0x386A9525 GT PUSH2 0x17C JUMPI DUP1 PUSH4 0x5C975ABB GT PUSH2 0x14B JUMPI DUP1 PUSH4 0x5C975ABB EQ PUSH2 0x2BE JUMPI DUP1 PUSH4 0x70A08231 EQ PUSH2 0x2DB JUMPI DUP1 PUSH4 0x715018A6 EQ PUSH2 0x304 JUMPI DUP1 PUSH4 0x72F702F3 EQ PUSH2 0x30C JUMPI PUSH1 0x0 DUP1 REVERT JUMPDEST DUP1 PUSH4 0x386A9525 EQ PUSH2 0x26F JUMPI DUP1 PUSH4 0x3C6B16AB EQ PUSH2 0x278 JUMPI DUP1 PUSH4 0x3D18B912 EQ PUSH2 0x28B JUMPI DUP1 PUSH4 0x3FC6DF6E EQ PUSH2 0x293 JUMPI PUSH1 0x0 DUP1 REVERT JUMPDEST DUP1 PUSH4 0x18160DDD GT PUSH2 0x1B8 JUMPI DUP1 PUSH4 0x18160DDD EQ PUSH2 0x239 JUMPI DUP1 PUSH4 0x19762143 EQ PUSH2 0x241 JUMPI DUP1 PUSH4 0x1C1F78EB EQ PUSH2 0x254 JUMPI DUP1 PUSH4 0x2E1A7D4D EQ PUSH2 0x25C JUMPI PUSH1 0x0 DUP1 REVERT JUMPDEST DUP1 PUSH3 0x8CC262 EQ PUSH2 0x1DE JUMPI DUP1 PUSH4 0x700037D EQ PUSH2 0x204 JUMPI DUP1 PUSH4 0x16C38B3C EQ PUSH2 0x224 JUMPI JUMPDEST PUSH1 0x0 DUP1 REVERT JUMPDEST PUSH2 0x1F1 PUSH2 0x1EC CALLDATASIZE PUSH1 0x4 PUSH2 0x126F JUMP JUMPDEST PUSH2 0x3F4 JUMP JUMPDEST PUSH1 0x40 MLOAD SWAP1 DUP2 MSTORE PUSH1 0x20 ADD JUMPDEST PUSH1 0x40 MLOAD DUP1 SWAP2 SUB SWAP1 RETURN JUMPDEST PUSH2 0x1F1 PUSH2 0x212 CALLDATASIZE PUSH1 0x4 PUSH2 0x126F JUMP JUMPDEST PUSH1 0xB PUSH1 0x20 MSTORE PUSH1 0x0 SWAP1 DUP2 MSTORE PUSH1 0x40 SWAP1 KECCAK256 SLOAD DUP2 JUMP JUMPDEST PUSH2 0x237 PUSH2 0x232 CALLDATASIZE PUSH1 0x4 PUSH2 0x1298 JUMP JUMPDEST PUSH2 0x472 JUMP JUMPDEST STOP JUMPDEST PUSH1 0xC SLOAD PUSH2 0x1F1 JUMP JUMPDEST PUSH2 0x237 PUSH2 0x24F CALLDATASIZE PUSH1 0x4 PUSH2 0x126F JUMP JUMPDEST PUSH2 0x4E9 JUMP JUMPDEST PUSH2 0x1F1 PUSH2 0x513 JUMP JUMPDEST PUSH2 0x237 PUSH2 0x26A CALLDATASIZE PUSH1 0x4 PUSH2 0x12B5 JUMP JUMPDEST PUSH2 0x531 JUMP JUMPDEST PUSH2 0x1F1 PUSH1 0x6 SLOAD DUP2 JUMP JUMPDEST PUSH2 0x237 PUSH2 0x286 CALLDATASIZE PUSH1 0x4 PUSH2 0x12B5 JUMP JUMPDEST PUSH2 0x674 JUMP JUMPDEST PUSH2 0x237 PUSH2 0x8C2 JUMP JUMPDEST PUSH1 0x9 SLOAD PUSH2 0x2A6 SWAP1 PUSH1 0x1 PUSH1 0x1 PUSH1 0xA0 SHL SUB AND DUP2 JUMP JUMPDEST PUSH1 0x40 MLOAD PUSH1 0x1 PUSH1 0x1 PUSH1 0xA0 SHL SUB SWAP1 SWAP2 AND DUP2 MSTORE PUSH1 0x20 ADD PUSH2 0x1FB JUMP JUMPDEST PUSH1 0xF SLOAD PUSH2 0x2CB SWAP1 PUSH1 0xFF AND DUP2 JUMP JUMPDEST PUSH1 0x40 MLOAD SWAP1 ISZERO ISZERO DUP2 MSTORE PUSH1 0x20 ADD PUSH2 0x1FB JUMP JUMPDEST PUSH2 0x1F1 PUSH2 0x2E9 CALLDATASIZE PUSH1 0x4 PUSH2 0x126F JUMP JUMPDEST PUSH1 0x1 PUSH1 0x1 PUSH1 0xA0 SHL SUB AND PUSH1 0x0 SWAP1 DUP2 MSTORE PUSH1 0xD PUSH1 0x20 MSTORE PUSH1 0x40 SWAP1 KECCAK256 SLOAD SWAP1 JUMP JUMPDEST PUSH2 0x237 PUSH2 0x9A8 JUMP JUMPDEST PUSH1 0x3 SLOAD PUSH2 0x2A6 SWAP1 PUSH1 0x1 PUSH1 0x1 PUSH1 0xA0 SHL SUB AND DUP2 JUMP JUMPDEST PUSH2 0x1F1 PUSH1 0x5 SLOAD DUP2 JUMP JUMPDEST PUSH2 0x1F1 PUSH2 0x9BA JUMP JUMPDEST PUSH2 0x237 PUSH2 0x33E CALLDATASIZE PUSH1 0x4 PUSH2 0x12CE JUMP JUMPDEST PUSH2 0x9D1 JUMP JUMPDEST PUSH2 0x1F1 PUSH2 0x351 CALLDATASIZE PUSH1 0x4 PUSH2 0x126F JUMP JUMPDEST PUSH1 0xA PUSH1 0x20 MSTORE PUSH1 0x0 SWAP1 DUP2 MSTORE PUSH1 0x40 SWAP1 KECCAK256 SLOAD DUP2 JUMP JUMPDEST PUSH1 0x1 SLOAD PUSH1 0x1 PUSH1 0x1 PUSH1 0xA0 SHL SUB AND PUSH2 0x2A6 JUMP JUMPDEST PUSH2 0x1F1 PUSH1 0xE SLOAD DUP2 JUMP JUMPDEST PUSH2 0x237 PUSH2 0x38B CALLDATASIZE PUSH1 0x4 PUSH2 0x12B5 JUMP JUMPDEST PUSH2 0xAAD JUMP JUMPDEST PUSH2 0x1F1 PUSH1 0x7 SLOAD DUP2 JUMP JUMPDEST PUSH2 0x237 PUSH2 0x3A7 CALLDATASIZE PUSH1 0x4 PUSH2 0x12B5 JUMP JUMPDEST PUSH2 0xC53 JUMP JUMPDEST PUSH2 0x1F1 PUSH2 0xD2D JUMP JUMPDEST PUSH1 0x2 SLOAD PUSH2 0x2A6 SWAP1 PUSH1 0x1 PUSH1 0x1 PUSH1 0xA0 SHL SUB AND DUP2 JUMP JUMPDEST PUSH2 0x1F1 PUSH1 0x8 SLOAD DUP2 JUMP JUMPDEST PUSH2 0x237 PUSH2 0xD78 JUMP JUMPDEST PUSH2 0x1F1 PUSH1 0x4 SLOAD DUP2 JUMP JUMPDEST PUSH2 0x237 PUSH2 0x3EF CALLDATASIZE PUSH1 0x4 PUSH2 0x126F JUMP JUMPDEST PUSH2 0xD99 JUMP JUMPDEST PUSH1 0x1 PUSH1 0x1 PUSH1 0xA0 SHL SUB DUP2 AND PUSH1 0x0 SWAP1 DUP2 MSTORE PUSH1 0xB PUSH1 0x20 SWAP1 DUP2 MSTORE PUSH1 0x40 DUP1 DUP4 KECCAK256 SLOAD PUSH1 0xA SWAP1 SWAP3 MSTORE DUP3 KECCAK256 SLOAD PUSH2 0x46C SWAP2 SWAP1 PUSH2 0x466 SWAP1 PUSH8 0xDE0B6B3A7640000 SWAP1 PUSH2 0x460 SWAP1 PUSH2 0x441 SWAP1 PUSH2 0x43B PUSH2 0xD2D JUMP JUMPDEST SWAP1 PUSH2 0xE0F JUMP JUMPDEST PUSH1 0x1 PUSH1 0x1 PUSH1 0xA0 SHL SUB DUP9 AND PUSH1 0x0 SWAP1 DUP2 MSTORE PUSH1 0xD PUSH1 0x20 MSTORE PUSH1 0x40 SWAP1 KECCAK256 SLOAD SWAP1 PUSH2 0xE22 JUMP JUMPDEST SWAP1 PUSH2 0xE2E JUMP JUMPDEST SWAP1 PUSH2 0xE3A JUMP JUMPDEST SWAP3 SWAP2 POP POP JUMP JUMPDEST PUSH2 0x47A PUSH2 0xE46 JUMP JUMPDEST PUSH1 0xF SLOAD PUSH1 0xFF AND ISZERO ISZERO DUP2 ISZERO ISZERO EQ PUSH2 0x4E6 JUMPI PUSH1 0xF DUP1 SLOAD PUSH1 0xFF NOT AND DUP3 ISZERO ISZERO SWAP1 DUP2 OR SWAP1 SWAP2 SSTORE PUSH1 0xFF AND ISZERO PUSH2 0x4A8 JUMPI TIMESTAMP PUSH1 0xE SSTORE JUMPDEST PUSH1 0xF SLOAD PUSH1 0x40 MLOAD PUSH1 0xFF SWAP1 SWAP2 AND ISZERO ISZERO DUP2 MSTORE PUSH32 0x8FB6C181EE25A520CF3DD6565006EF91229FCFE5A989566C2A3B8C115570CEC5 SWAP1 PUSH1 0x20 ADD JUMPDEST PUSH1 0x40 MLOAD DUP1 SWAP2 SUB SWAP1 LOG1 JUMPDEST POP JUMP JUMPDEST PUSH2 0x4F1 PUSH2 0xE46 JUMP JUMPDEST PUSH1 0x9 DUP1 SLOAD PUSH1 0x1 PUSH1 0x1 PUSH1 0xA0 SHL SUB NOT AND PUSH1 0x1 PUSH1 0x1 PUSH1 0xA0 SHL SUB SWAP3 SWAP1 SWAP3 AND SWAP2 SWAP1 SWAP2 OR SWAP1 SSTORE JUMP JUMPDEST PUSH1 0x0 PUSH2 0x52C PUSH1 0x6 SLOAD PUSH1 0x5 SLOAD PUSH2 0xE22 SWAP1 SWAP2 SWAP1 PUSH4 0xFFFFFFFF AND JUMP JUMPDEST SWAP1 POP SWAP1 JUMP JUMPDEST PUSH2 0x539 PUSH2 0xEA0 JUMP JUMPDEST CALLER PUSH2 0x542 PUSH2 0xD2D JUMP JUMPDEST PUSH1 0x8 SSTORE PUSH2 0x54D PUSH2 0x9BA JUMP JUMPDEST PUSH1 0x7 SSTORE PUSH1 0x1 PUSH1 0x1 PUSH1 0xA0 SHL SUB DUP2 AND ISZERO PUSH2 0x594 JUMPI PUSH2 0x568 DUP2 PUSH2 0x3F4 JUMP JUMPDEST PUSH1 0x1 PUSH1 0x1 PUSH1 0xA0 SHL SUB DUP3 AND PUSH1 0x0 SWAP1 DUP2 MSTORE PUSH1 0xB PUSH1 0x20 SWAP1 DUP2 MSTORE PUSH1 0x40 DUP1 DUP4 KECCAK256 SWAP4 SWAP1 SWAP4 SSTORE PUSH1 0x8 SLOAD PUSH1 0xA SWAP1 SWAP2 MSTORE SWAP2 SWAP1 KECCAK256 SSTORE JUMPDEST PUSH1 0x0 DUP3 GT PUSH2 0x5DD JUMPI PUSH1 0x40 MLOAD PUSH3 0x461BCD PUSH1 0xE5 SHL DUP2 MSTORE PUSH1 0x20 PUSH1 0x4 DUP3 ADD MSTORE PUSH1 0x11 PUSH1 0x24 DUP3 ADD MSTORE PUSH17 0x43616E6E6F74207769746864726177203 PUSH1 0x7C SHL PUSH1 0x44 DUP3 ADD MSTORE PUSH1 0x64 ADD JUMPDEST PUSH1 0x40 MLOAD DUP1 SWAP2 SUB SWAP1 REVERT JUMPDEST PUSH1 0xC SLOAD PUSH2 0x5EA SWAP1 DUP4 PUSH2 0xE0F JUMP JUMPDEST PUSH1 0xC SSTORE CALLER PUSH1 0x0 SWAP1 DUP2 MSTORE PUSH1 0xD PUSH1 0x20 MSTORE PUSH1 0x40 SWAP1 KECCAK256 SLOAD PUSH2 0x607 SWAP1 DUP4 PUSH2 0xE0F JUMP JUMPDEST CALLER PUSH1 0x0 DUP2 DUP2 MSTORE PUSH1 0xD PUSH1 0x20 MSTORE PUSH1 0x40 SWAP1 KECCAK256 SWAP2 SWAP1 SWAP2 SSTORE PUSH1 0x3 SLOAD PUSH2 0x633 SWAP2 PUSH1 0x1 PUSH1 0x1 PUSH1 0xA0 SHL SUB SWAP1 SWAP2 AND SWAP1 DUP5 PUSH2 0xEF9 JUMP JUMPDEST PUSH1 0x40 MLOAD DUP3 DUP2 MSTORE CALLER SWAP1 PUSH32 0x7084F5476618D8E60B11EF0D7D3F06914655ADB8793E28FF7F018D4C76D505D5 SWAP1 PUSH1 0x20 ADD JUMPDEST PUSH1 0x40 MLOAD DUP1 SWAP2 SUB SWAP1 LOG2 POP PUSH2 0x4E6 PUSH1 0x1 PUSH1 0x0 SSTORE JUMP JUMPDEST PUSH1 0x9 SLOAD PUSH1 0x1 PUSH1 0x1 PUSH1 0xA0 SHL SUB AND CALLER EQ PUSH2 0x6E1 JUMPI PUSH1 0x40 MLOAD PUSH3 0x461BCD PUSH1 0xE5 SHL DUP2 MSTORE PUSH1 0x20 PUSH1 0x4 DUP3 ADD MSTORE PUSH1 0x2A PUSH1 0x24 DUP3 ADD MSTORE PUSH32 0x43616C6C6572206973206E6F742052657761726473446973747269627574696F PUSH1 0x44 DUP3 ADD MSTORE PUSH10 0x1B8818DBDB9D1C9858DD PUSH1 0xB2 SHL PUSH1 0x64 DUP3 ADD MSTORE PUSH1 0x84 ADD PUSH2 0x5D4 JUMP JUMPDEST PUSH1 0x0 PUSH2 0x6EB PUSH2 0xD2D JUMP JUMPDEST PUSH1 0x8 SSTORE PUSH2 0x6F6 PUSH2 0x9BA JUMP JUMPDEST PUSH1 0x7 SSTORE PUSH1 0x1 PUSH1 0x1 PUSH1 0xA0 SHL SUB DUP2 AND ISZERO PUSH2 0x73D JUMPI PUSH2 0x711 DUP2 PUSH2 0x3F4 JUMP JUMPDEST PUSH1 0x1 PUSH1 0x1 PUSH1 0xA0 SHL SUB DUP3 AND PUSH1 0x0 SWAP1 DUP2 MSTORE PUSH1 0xB PUSH1 0x20 SWAP1 DUP2 MSTORE PUSH1 0x40 DUP1 DUP4 KECCAK256 SWAP4 SWAP1 SWAP4 SSTORE PUSH1 0x8 SLOAD PUSH1 0xA SWAP1 SWAP2 MSTORE SWAP2 SWAP1 KECCAK256 SSTORE JUMPDEST PUSH1 0x4 SLOAD TIMESTAMP LT PUSH2 0x75C JUMPI PUSH1 0x6 SLOAD PUSH2 0x754 SWAP1 DUP4 SWAP1 PUSH2 0xE2E JUMP JUMPDEST PUSH1 0x5 SSTORE PUSH2 0x79F JUMP JUMPDEST PUSH1 0x4 SLOAD PUSH1 0x0 SWAP1 PUSH2 0x76C SWAP1 TIMESTAMP PUSH2 0xE0F JUMP JUMPDEST SWAP1 POP PUSH1 0x0 PUSH2 0x785 PUSH1 0x5 SLOAD DUP4 PUSH2 0xE22 SWAP1 SWAP2 SWAP1 PUSH4 0xFFFFFFFF AND JUMP JUMPDEST PUSH1 0x6 SLOAD SWAP1 SWAP2 POP PUSH2 0x799 SWAP1 PUSH2 0x460 DUP7 DUP5 PUSH2 0xE3A JUMP JUMPDEST PUSH1 0x5 SSTORE POP POP JUMPDEST PUSH1 0x2 SLOAD PUSH1 0x40 MLOAD PUSH4 0x70A08231 PUSH1 0xE0 SHL DUP2 MSTORE ADDRESS PUSH1 0x4 DUP3 ADD MSTORE PUSH1 0x0 SWAP2 PUSH1 0x1 PUSH1 0x1 PUSH1 0xA0 SHL SUB AND SWAP1 PUSH4 0x70A08231 SWAP1 PUSH1 0x24 ADD PUSH1 0x20 PUSH1 0x40 MLOAD DUP1 DUP4 SUB DUP2 DUP7 GAS STATICCALL ISZERO DUP1 ISZERO PUSH2 0x7E8 JUMPI RETURNDATASIZE PUSH1 0x0 DUP1 RETURNDATACOPY RETURNDATASIZE PUSH1 0x0 REVERT JUMPDEST POP POP POP POP PUSH1 0x40 MLOAD RETURNDATASIZE PUSH1 0x1F NOT PUSH1 0x1F DUP3 ADD AND DUP3 ADD DUP1 PUSH1 0x40 MSTORE POP DUP2 ADD SWAP1 PUSH2 0x80C SWAP2 SWAP1 PUSH2 0x12F8 JUMP JUMPDEST SWAP1 POP PUSH2 0x823 PUSH1 0x6 SLOAD DUP3 PUSH2 0xE2E SWAP1 SWAP2 SWAP1 PUSH4 0xFFFFFFFF AND JUMP JUMPDEST PUSH1 0x5 SLOAD GT ISZERO PUSH2 0x874 JUMPI PUSH1 0x40 MLOAD PUSH3 0x461BCD PUSH1 0xE5 SHL DUP2 MSTORE PUSH1 0x20 PUSH1 0x4 DUP3 ADD MSTORE PUSH1 0x18 PUSH1 0x24 DUP3 ADD MSTORE PUSH32 0x50726F76696465642072657761726420746F6F20686967680000000000000000 PUSH1 0x44 DUP3 ADD MSTORE PUSH1 0x64 ADD PUSH2 0x5D4 JUMP JUMPDEST TIMESTAMP PUSH1 0x7 DUP2 SWAP1 SSTORE PUSH1 0x6 SLOAD PUSH2 0x887 SWAP2 SWAP1 PUSH2 0xE3A JUMP JUMPDEST PUSH1 0x4 SSTORE PUSH1 0x40 MLOAD DUP4 DUP2 MSTORE PUSH32 0xDE88A922E0D3B88B24E9623EFEB464919C6BF9F66857A65E2BFCF2CE87A9433D SWAP1 PUSH1 0x20 ADD PUSH1 0x40 MLOAD DUP1 SWAP2 SUB SWAP1 LOG1 POP POP POP JUMP JUMPDEST PUSH2 0x8CA PUSH2 0xEA0 JUMP JUMPDEST CALLER PUSH2 0x8D3 PUSH2 0xD2D JUMP JUMPDEST PUSH1 0x8 SSTORE PUSH2 0x8DE PUSH2 0x9BA JUMP JUMPDEST PUSH1 0x7 SSTORE PUSH1 0x1 PUSH1 0x1 PUSH1 0xA0 SHL SUB DUP2 AND ISZERO PUSH2 0x925 JUMPI PUSH2 0x8F9 DUP2 PUSH2 0x3F4 JUMP JUMPDEST PUSH1 0x1 PUSH1 0x1 PUSH1 0xA0 SHL SUB DUP3 AND PUSH1 0x0 SWAP1 DUP2 MSTORE PUSH1 0xB PUSH1 0x20 SWAP1 DUP2 MSTORE PUSH1 0x40 DUP1 DUP4 KECCAK256 SWAP4 SWAP1 SWAP4 SSTORE PUSH1 0x8 SLOAD PUSH1 0xA SWAP1 SWAP2 MSTORE SWAP2 SWAP1 KECCAK256 SSTORE JUMPDEST CALLER PUSH1 0x0 SWAP1 DUP2 MSTORE PUSH1 0xB PUSH1 0x20 MSTORE PUSH1 0x40 SWAP1 KECCAK256 SLOAD DUP1 ISZERO PUSH2 0x99A JUMPI CALLER PUSH1 0x0 DUP2 DUP2 MSTORE PUSH1 0xB PUSH1 0x20 MSTORE PUSH1 0x40 DUP2 KECCAK256 SSTORE PUSH1 0x2 SLOAD PUSH2 0x964 SWAP2 PUSH1 0x1 PUSH1 0x1 PUSH1 0xA0 SHL SUB SWAP1 SWAP2 AND SWAP1 DUP4 PUSH2 0xEF9 JUMP JUMPDEST PUSH1 0x40 MLOAD DUP2 DUP2 MSTORE CALLER SWAP1 PUSH32 0xE2403640BA68FED3A2F88B7557551D1993F84B99BB10FF833F0CF8DB0C5E0486 SWAP1 PUSH1 0x20 ADD PUSH1 0x40 MLOAD DUP1 SWAP2 SUB SWAP1 LOG2 JUMPDEST POP POP PUSH2 0x9A6 PUSH1 0x1 PUSH1 0x0 SSTORE JUMP JUMPDEST JUMP JUMPDEST PUSH2 0x9B0 PUSH2 0xE46 JUMP JUMPDEST PUSH2 0x9A6 PUSH1 0x0 PUSH2 0xF61 JUMP JUMPDEST PUSH1 0x0 PUSH1 0x4 SLOAD TIMESTAMP LT PUSH2 0x9CC JUMPI POP PUSH1 0x4 SLOAD SWAP1 JUMP JUMPDEST POP TIMESTAMP SWAP1 JUMP JUMPDEST PUSH2 0x9D9 PUSH2 0xE46 JUMP JUMPDEST PUSH1 0x3 SLOAD PUSH1 0x1 PUSH1 0x1 PUSH1 0xA0 SHL SUB SWAP1 DUP2 AND SWAP1 DUP4 AND SUB PUSH2 0xA41 JUMPI PUSH1 0x40 MLOAD PUSH3 0x461BCD PUSH1 0xE5 SHL DUP2 MSTORE PUSH1 0x20 PUSH1 0x4 DUP3 ADD MSTORE PUSH1 0x21 PUSH1 0x24 DUP3 ADD MSTORE PUSH32 0x43616E6E6F7420776974686472617720746865207374616B696E6720746F6B65 PUSH1 0x44 DUP3 ADD MSTORE PUSH1 0x37 PUSH1 0xF9 SHL PUSH1 0x64 DUP3 ADD MSTORE PUSH1 0x84 ADD PUSH2 0x5D4 JUMP JUMPDEST PUSH2 0xA67 PUSH2 0xA56 PUSH1 0x1 SLOAD PUSH1 0x1 PUSH1 0x1 PUSH1 0xA0 SHL SUB AND SWAP1 JUMP JUMPDEST PUSH1 0x1 PUSH1 0x1 PUSH1 0xA0 SHL SUB DUP5 AND SWAP1 DUP4 PUSH2 0xEF9 JUMP JUMPDEST PUSH1 0x40 DUP1 MLOAD PUSH1 0x1 PUSH1 0x1 PUSH1 0xA0 SHL SUB DUP5 AND DUP2 MSTORE PUSH1 0x20 DUP2 ADD DUP4 SWAP1 MSTORE PUSH32 0x8C1256B8896378CD5044F80C202F9772B9D77DC85C8A6EB51967210B09BFAA28 SWAP2 ADD PUSH1 0x40 MLOAD DUP1 SWAP2 SUB SWAP1 LOG1 POP POP JUMP JUMPDEST PUSH2 0xAB5 PUSH2 0xEA0 JUMP JUMPDEST PUSH1 0xF SLOAD PUSH1 0xFF AND ISZERO PUSH2 0xB2E JUMPI PUSH1 0x40 MLOAD PUSH3 0x461BCD PUSH1 0xE5 SHL DUP2 MSTORE PUSH1 0x20 PUSH1 0x4 DUP3 ADD MSTORE PUSH1 0x3C PUSH1 0x24 DUP3 ADD MSTORE PUSH32 0x5468697320616374696F6E2063616E6E6F7420626520706572666F726D656420 PUSH1 0x44 DUP3 ADD MSTORE PUSH32 0x7768696C652074686520636F6E74726163742069732070617573656400000000 PUSH1 0x64 DUP3 ADD MSTORE PUSH1 0x84 ADD PUSH2 0x5D4 JUMP JUMPDEST CALLER PUSH2 0xB37 PUSH2 0xD2D JUMP JUMPDEST PUSH1 0x8 SSTORE PUSH2 0xB42 PUSH2 0x9BA JUMP JUMPDEST PUSH1 0x7 SSTORE PUSH1 0x1 PUSH1 0x1 PUSH1 0xA0 SHL SUB DUP2 AND ISZERO PUSH2 0xB89 JUMPI PUSH2 0xB5D DUP2 PUSH2 0x3F4 JUMP JUMPDEST PUSH1 0x1 PUSH1 0x1 PUSH1 0xA0 SHL SUB DUP3 AND PUSH1 0x0 SWAP1 DUP2 MSTORE PUSH1 0xB PUSH1 0x20 SWAP1 DUP2 MSTORE PUSH1 0x40 DUP1 DUP4 KECCAK256 SWAP4 SWAP1 SWAP4 SSTORE PUSH1 0x8 SLOAD PUSH1 0xA SWAP1 SWAP2 MSTORE SWAP2 SWAP1 KECCAK256 SSTORE JUMPDEST PUSH1 0x0 DUP3 GT PUSH2 0xBCA JUMPI PUSH1 0x40 MLOAD PUSH3 0x461BCD PUSH1 0xE5 SHL DUP2 MSTORE PUSH1 0x20 PUSH1 0x4 DUP3 ADD MSTORE PUSH1 0xE PUSH1 0x24 DUP3 ADD MSTORE PUSH14 0x43616E6E6F74207374616B65203 PUSH1 0x94 SHL PUSH1 0x44 DUP3 ADD MSTORE PUSH1 0x64 ADD PUSH2 0x5D4 JUMP JUMPDEST PUSH1 0xC SLOAD PUSH2 0xBD7 SWAP1 DUP4 PUSH2 0xE3A JUMP JUMPDEST PUSH1 0xC SSTORE CALLER PUSH1 0x0 SWAP1 DUP2 MSTORE PUSH1 0xD PUSH1 0x20 MSTORE PUSH1 0x40 SWAP1 KECCAK256 SLOAD PUSH2 0xBF4 SWAP1 DUP4 PUSH2 0xE3A JUMP JUMPDEST CALLER PUSH1 0x0 DUP2 DUP2 MSTORE PUSH1 0xD PUSH1 0x20 MSTORE PUSH1 0x40 SWAP1 KECCAK256 SWAP2 SWAP1 SWAP2 SSTORE PUSH1 0x3 SLOAD PUSH2 0xC21 SWAP2 PUSH1 0x1 PUSH1 0x1 PUSH1 0xA0 SHL SUB SWAP1 SWAP2 AND SWAP1 ADDRESS DUP6 PUSH2 0xFB3 JUMP JUMPDEST PUSH1 0x40 MLOAD DUP3 DUP2 MSTORE CALLER SWAP1 PUSH32 0x9E71BC8EEA02A63969F509818F2DAFB9254532904319F9DBDA79B67BD34A5F3D SWAP1 PUSH1 0x20 ADD PUSH2 0x661 JUMP JUMPDEST PUSH2 0xC5B PUSH2 0xE46 JUMP JUMPDEST PUSH1 0x4 SLOAD TIMESTAMP GT PUSH2 0xCF8 JUMPI PUSH1 0x40 MLOAD PUSH3 0x461BCD PUSH1 0xE5 SHL DUP2 MSTORE PUSH1 0x20 PUSH1 0x4 DUP3 ADD MSTORE PUSH1 0x58 PUSH1 0x24 DUP3 ADD MSTORE PUSH32 0x50726576696F7573207265776172647320706572696F64206D75737420626520 PUSH1 0x44 DUP3 ADD MSTORE PUSH32 0x636F6D706C657465206265666F7265206368616E67696E672074686520647572 PUSH1 0x64 DUP3 ADD MSTORE PUSH32 0x6174696F6E20666F7220746865206E657720706572696F640000000000000000 PUSH1 0x84 DUP3 ADD MSTORE PUSH1 0xA4 ADD PUSH2 0x5D4 JUMP JUMPDEST PUSH1 0x6 DUP2 SWAP1 SSTORE PUSH1 0x40 MLOAD DUP2 DUP2 MSTORE PUSH32 0xFB46CA5A5E06D4540D6387B930A7C978BCE0DB5F449EC6B3F5D07C6E1D44F2D3 SWAP1 PUSH1 0x20 ADD PUSH2 0x4DD JUMP JUMPDEST PUSH1 0x0 PUSH1 0xC SLOAD PUSH1 0x0 SUB PUSH2 0xD40 JUMPI POP PUSH1 0x8 SLOAD SWAP1 JUMP JUMPDEST PUSH2 0x52C PUSH2 0xD6F PUSH1 0xC SLOAD PUSH2 0x460 PUSH8 0xDE0B6B3A7640000 PUSH2 0xD69 PUSH1 0x5 SLOAD PUSH2 0xD69 PUSH1 0x7 SLOAD PUSH2 0x43B PUSH2 0x9BA JUMP JUMPDEST SWAP1 PUSH2 0xE22 JUMP JUMPDEST PUSH1 0x8 SLOAD SWAP1 PUSH2 0xE3A JUMP JUMPDEST CALLER PUSH1 0x0 SWAP1 DUP2 MSTORE PUSH1 0xD PUSH1 0x20 MSTORE PUSH1 0x40 SWAP1 KECCAK256 SLOAD PUSH2 0xD91 SWAP1 PUSH2 0x531 JUMP JUMPDEST PUSH2 0x9A6 PUSH2 0x8C2 JUMP JUMPDEST PUSH2 0xDA1 PUSH2 0xE46 JUMP JUMPDEST PUSH1 0x1 PUSH1 0x1 PUSH1 0xA0 SHL SUB DUP2 AND PUSH2 0xE06 JUMPI PUSH1 0x40 MLOAD PUSH3 0x461BCD PUSH1 0xE5 SHL DUP2 MSTORE PUSH1 0x20 PUSH1 0x4 DUP3 ADD MSTORE PUSH1 0x26 PUSH1 0x24 DUP3 ADD MSTORE PUSH32 0x4F776E61626C653A206E6577206F776E657220697320746865207A65726F2061 PUSH1 0x44 DUP3 ADD MSTORE PUSH6 0x646472657373 PUSH1 0xD0 SHL PUSH1 0x64 DUP3 ADD MSTORE PUSH1 0x84 ADD PUSH2 0x5D4 JUMP JUMPDEST PUSH2 0x4E6 DUP2 PUSH2 0xF61 JUMP JUMPDEST PUSH1 0x0 PUSH2 0xE1B DUP3 DUP5 PUSH2 0x1327 JUMP JUMPDEST SWAP4 SWAP3 POP POP POP JUMP JUMPDEST PUSH1 0x0 PUSH2 0xE1B DUP3 DUP5 PUSH2 0x133A JUMP JUMPDEST PUSH1 0x0 PUSH2 0xE1B DUP3 DUP5 PUSH2 0x1351 JUMP JUMPDEST PUSH1 0x0 PUSH2 0xE1B DUP3 DUP5 PUSH2 0x1373 JUMP JUMPDEST PUSH1 0x1 SLOAD PUSH1 0x1 PUSH1 0x1 PUSH1 0xA0 SHL SUB AND CALLER EQ PUSH2 0x9A6 JUMPI PUSH1 0x40 MLOAD PUSH3 0x461BCD PUSH1 0xE5 SHL DUP2 MSTORE PUSH1 0x20 PUSH1 0x4 DUP3 ADD DUP2 SWAP1 MSTORE PUSH1 0x24 DUP3 ADD MSTORE PUSH32 0x4F776E61626C653A2063616C6C6572206973206E6F7420746865206F776E6572 PUSH1 0x44 DUP3 ADD MSTORE PUSH1 0x64 ADD PUSH2 0x5D4 JUMP JUMPDEST PUSH1 0x2 PUSH1 0x0 SLOAD SUB PUSH2 0xEF2 JUMPI PUSH1 0x40 MLOAD PUSH3 0x461BCD PUSH1 0xE5 SHL DUP2 MSTORE PUSH1 0x20 PUSH1 0x4 DUP3 ADD MSTORE PUSH1 0x1F PUSH1 0x24 DUP3 ADD MSTORE PUSH32 0x5265656E7472616E637947756172643A207265656E7472616E742063616C6C00 PUSH1 0x44 DUP3 ADD MSTORE PUSH1 0x64 ADD PUSH2 0x5D4 JUMP JUMPDEST PUSH1 0x2 PUSH1 0x0 SSTORE JUMP JUMPDEST PUSH1 0x40 MLOAD PUSH1 0x1 PUSH1 0x1 PUSH1 0xA0 SHL SUB DUP4 AND PUSH1 0x24 DUP3 ADD MSTORE PUSH1 0x44 DUP2 ADD DUP3 SWAP1 MSTORE PUSH2 0xF5C SWAP1 DUP5 SWAP1 PUSH4 0xA9059CBB PUSH1 0xE0 SHL SWAP1 PUSH1 0x64 ADD JUMPDEST PUSH1 0x40 DUP1 MLOAD PUSH1 0x1F NOT DUP2 DUP5 SUB ADD DUP2 MSTORE SWAP2 SWAP1 MSTORE PUSH1 0x20 DUP2 ADD DUP1 MLOAD PUSH1 0x1 PUSH1 0x1 PUSH1 0xE0 SHL SUB AND PUSH1 0x1 PUSH1 0x1 PUSH1 0xE0 SHL SUB NOT SWAP1 SWAP4 AND SWAP3 SWAP1 SWAP3 OR SWAP1 SWAP2 MSTORE PUSH2 0xFF1 JUMP JUMPDEST POP POP POP JUMP JUMPDEST PUSH1 0x1 DUP1 SLOAD PUSH1 0x1 PUSH1 0x1 PUSH1 0xA0 SHL SUB DUP4 DUP2 AND PUSH1 0x1 PUSH1 0x1 PUSH1 0xA0 SHL SUB NOT DUP4 AND DUP2 OR SWAP1 SWAP4 SSTORE PUSH1 0x40 MLOAD SWAP2 AND SWAP2 SWAP1 DUP3 SWAP1 PUSH32 0x8BE0079C531659141344CD1FD0A4F28419497F9722A3DAAFE3B4186F6B6457E0 SWAP1 PUSH1 0x0 SWAP1 LOG3 POP POP JUMP JUMPDEST PUSH1 0x40 MLOAD PUSH1 0x1 PUSH1 0x1 PUSH1 0xA0 SHL SUB DUP1 DUP6 AND PUSH1 0x24 DUP4 ADD MSTORE DUP4 AND PUSH1 0x44 DUP3 ADD MSTORE PUSH1 0x64 DUP2 ADD DUP3 SWAP1 MSTORE PUSH2 0xFEB SWAP1 DUP6 SWAP1 PUSH4 0x23B872DD PUSH1 0xE0 SHL SWAP1 PUSH1 0x84 ADD PUSH2 0xF25 JUMP JUMPDEST POP POP POP POP JUMP JUMPDEST PUSH1 0x0 PUSH2 0x1046 DUP3 PUSH1 0x40 MLOAD DUP1 PUSH1 0x40 ADD PUSH1 0x40 MSTORE DUP1 PUSH1 0x20 DUP2 MSTORE PUSH1 0x20 ADD PUSH32 0x5361666545524332303A206C6F772D6C6576656C2063616C6C206661696C6564 DUP2 MSTORE POP DUP6 PUSH1 0x1 PUSH1 0x1 PUSH1 0xA0 SHL SUB AND PUSH2 0x10C3 SWAP1 SWAP3 SWAP2 SWAP1 PUSH4 0xFFFFFFFF AND JUMP JUMPDEST DUP1 MLOAD SWAP1 SWAP2 POP ISZERO PUSH2 0xF5C JUMPI DUP1 DUP1 PUSH1 0x20 ADD SWAP1 MLOAD DUP2 ADD SWAP1 PUSH2 0x1064 SWAP2 SWAP1 PUSH2 0x1386 JUMP JUMPDEST PUSH2 0xF5C JUMPI PUSH1 0x40 MLOAD PUSH3 0x461BCD PUSH1 0xE5 SHL DUP2 MSTORE PUSH1 0x20 PUSH1 0x4 DUP3 ADD MSTORE PUSH1 0x2A PUSH1 0x24 DUP3 ADD MSTORE PUSH32 0x5361666545524332303A204552433230206F7065726174696F6E20646964206E PUSH1 0x44 DUP3 ADD MSTORE PUSH10 0x1BDD081CDD58D8D95959 PUSH1 0xB2 SHL PUSH1 0x64 DUP3 ADD MSTORE PUSH1 0x84 ADD PUSH2 0x5D4 JUMP JUMPDEST PUSH1 0x60 PUSH2 0x10D2 DUP5 DUP5 PUSH1 0x0 DUP6 PUSH2 0x10DA JUMP JUMPDEST SWAP5 SWAP4 POP POP POP POP JUMP JUMPDEST PUSH1 0x60 DUP3 SELFBALANCE LT ISZERO PUSH2 0x113B JUMPI PUSH1 0x40 MLOAD PUSH3 0x461BCD PUSH1 0xE5 SHL DUP2 MSTORE PUSH1 0x20 PUSH1 0x4 DUP3 ADD MSTORE PUSH1 0x26 PUSH1 0x24 DUP3 ADD MSTORE PUSH32 0x416464726573733A20696E73756666696369656E742062616C616E636520666F PUSH1 0x44 DUP3 ADD MSTORE PUSH6 0x1C8818D85B1B PUSH1 0xD2 SHL PUSH1 0x64 DUP3 ADD MSTORE PUSH1 0x84 ADD PUSH2 0x5D4 JUMP JUMPDEST PUSH1 0x0 DUP1 DUP7 PUSH1 0x1 PUSH1 0x1 PUSH1 0xA0 SHL SUB AND DUP6 DUP8 PUSH1 0x40 MLOAD PUSH2 0x1157 SWAP2 SWAP1 PUSH2 0x13C7 JUMP JUMPDEST PUSH1 0x0 PUSH1 0x40 MLOAD DUP1 DUP4 SUB DUP2 DUP6 DUP8 GAS CALL SWAP3 POP POP POP RETURNDATASIZE DUP1 PUSH1 0x0 DUP2 EQ PUSH2 0x1194 JUMPI PUSH1 0x40 MLOAD SWAP2 POP PUSH1 0x1F NOT PUSH1 0x3F RETURNDATASIZE ADD AND DUP3 ADD PUSH1 0x40 MSTORE RETURNDATASIZE DUP3 MSTORE RETURNDATASIZE PUSH1 0x0 PUSH1 0x20 DUP5 ADD RETURNDATACOPY PUSH2 0x1199 JUMP JUMPDEST PUSH1 0x60 SWAP2 POP JUMPDEST POP SWAP2 POP SWAP2 POP PUSH2 0x11AA DUP8 DUP4 DUP4 DUP8 PUSH2 0x11B5 JUMP JUMPDEST SWAP8 SWAP7 POP POP POP POP POP POP POP JUMP JUMPDEST PUSH1 0x60 DUP4 ISZERO PUSH2 0x1224 JUMPI DUP3 MLOAD PUSH1 0x0 SUB PUSH2 0x121D JUMPI PUSH1 0x1 PUSH1 0x1 PUSH1 0xA0 SHL SUB DUP6 AND EXTCODESIZE PUSH2 0x121D JUMPI PUSH1 0x40 MLOAD PUSH3 0x461BCD PUSH1 0xE5 SHL DUP2 MSTORE PUSH1 0x20 PUSH1 0x4 DUP3 ADD MSTORE PUSH1 0x1D PUSH1 0x24 DUP3 ADD MSTORE PUSH32 0x416464726573733A2063616C6C20746F206E6F6E2D636F6E7472616374000000 PUSH1 0x44 DUP3 ADD MSTORE PUSH1 0x64 ADD PUSH2 0x5D4 JUMP JUMPDEST POP DUP2 PUSH2 0x10D2 JUMP JUMPDEST PUSH2 0x10D2 DUP4 DUP4 DUP2 MLOAD ISZERO PUSH2 0x1239 JUMPI DUP2 MLOAD DUP1 DUP4 PUSH1 0x20 ADD REVERT JUMPDEST DUP1 PUSH1 0x40 MLOAD PUSH3 0x461BCD PUSH1 0xE5 SHL DUP2 MSTORE PUSH1 0x4 ADD PUSH2 0x5D4 SWAP2 SWAP1 PUSH2 0x13E3 JUMP JUMPDEST DUP1 CALLDATALOAD PUSH1 0x1 PUSH1 0x1 PUSH1 0xA0 SHL SUB DUP2 AND DUP2 EQ PUSH2 0x126A JUMPI PUSH1 0x0 DUP1 REVERT JUMPDEST SWAP2 SWAP1 POP JUMP JUMPDEST PUSH1 0x0 PUSH1 0x20 DUP3 DUP5 SUB SLT ISZERO PUSH2 0x1281 JUMPI PUSH1 0x0 DUP1 REVERT JUMPDEST PUSH2 0xE1B DUP3 PUSH2 0x1253 JUMP JUMPDEST DUP1 ISZERO ISZERO DUP2 EQ PUSH2 0x4E6 JUMPI PUSH1 0x0 DUP1 REVERT JUMPDEST PUSH1 0x0 PUSH1 0x20 DUP3 DUP5 SUB SLT ISZERO PUSH2 0x12AA JUMPI PUSH1 0x0 DUP1 REVERT JUMPDEST DUP2 CALLDATALOAD PUSH2 0xE1B DUP2 PUSH2 0x128A JUMP JUMPDEST PUSH1 0x0 PUSH1 0x20 DUP3 DUP5 SUB SLT ISZERO PUSH2 0x12C7 JUMPI PUSH1 0x0 DUP1 REVERT JUMPDEST POP CALLDATALOAD SWAP2 SWAP1 POP JUMP JUMPDEST PUSH1 0x0 DUP1 PUSH1 0x40 DUP4 DUP6 SUB SLT ISZERO PUSH2 0x12E1 JUMPI PUSH1 0x0 DUP1 REVERT JUMPDEST PUSH2 0x12EA DUP4 PUSH2 0x1253 JUMP JUMPDEST SWAP5 PUSH1 0x20 SWAP4 SWAP1 SWAP4 ADD CALLDATALOAD SWAP4 POP POP POP JUMP JUMPDEST PUSH1 0x0 PUSH1 0x20 DUP3 DUP5 SUB SLT ISZERO PUSH2 0x130A JUMPI PUSH1 0x0 DUP1 REVERT JUMPDEST POP MLOAD SWAP2 SWAP1 POP JUMP JUMPDEST PUSH4 0x4E487B71 PUSH1 0xE0 SHL PUSH1 0x0 MSTORE PUSH1 0x11 PUSH1 0x4 MSTORE PUSH1 0x24 PUSH1 0x0 REVERT JUMPDEST DUP2 DUP2 SUB DUP2 DUP2 GT ISZERO PUSH2 0x46C JUMPI PUSH2 0x46C PUSH2 0x1311 JUMP JUMPDEST DUP1 DUP3 MUL DUP2 ISZERO DUP3 DUP3 DIV DUP5 EQ OR PUSH2 0x46C JUMPI PUSH2 0x46C PUSH2 0x1311 JUMP JUMPDEST PUSH1 0x0 DUP3 PUSH2 0x136E JUMPI PUSH4 0x4E487B71 PUSH1 0xE0 SHL PUSH1 0x0 MSTORE PUSH1 0x12 PUSH1 0x4 MSTORE PUSH1 0x24 PUSH1 0x0 REVERT JUMPDEST POP DIV SWAP1 JUMP JUMPDEST DUP1 DUP3 ADD DUP1 DUP3 GT ISZERO PUSH2 0x46C JUMPI PUSH2 0x46C PUSH2 0x1311 JUMP JUMPDEST PUSH1 0x0 PUSH1 0x20 DUP3 DUP5 SUB SLT ISZERO PUSH2 0x1398 JUMPI PUSH1 0x0 DUP1 REVERT JUMPDEST DUP2 MLOAD PUSH2 0xE1B DUP2 PUSH2 0x128A JUMP JUMPDEST PUSH1 0x0 JUMPDEST DUP4 DUP2 LT ISZERO PUSH2 0x13BE JUMPI DUP2 DUP2 ADD MLOAD DUP4 DUP3 ADD MSTORE PUSH1 0x20 ADD PUSH2 0x13A6 JUMP JUMPDEST POP POP PUSH1 0x0 SWAP2 ADD MSTORE JUMP JUMPDEST PUSH1 0x0 DUP3 MLOAD PUSH2 0x13D9 DUP2 DUP5 PUSH1 0x20 DUP8 ADD PUSH2 0x13A3 JUMP JUMPDEST SWAP2 SWAP1 SWAP2 ADD SWAP3 SWAP2 POP POP JUMP JUMPDEST PUSH1 0x20 DUP2 MSTORE PUSH1 0x0 DUP3 MLOAD DUP1 PUSH1 0x20 DUP5 ADD MSTORE PUSH2 0x1402 DUP2 PUSH1 0x40 DUP6 ADD PUSH1 0x20 DUP8 ADD PUSH2 0x13A3 JUMP JUMPDEST PUSH1 0x1F ADD PUSH1 0x1F NOT AND SWAP2 SWAP1 SWAP2 ADD PUSH1 0x40 ADD SWAP3 SWAP2 POP POP JUMP INVALID LOG2 PUSH5 0x6970667358 0x22 SLT KECCAK256 0xCC EXTCODECOPY PREVRANDAO DUP7 CALL 0x5C DUP5 RETURNDATASIZE 0xD1 0xB7 0xB7 0xCB 0x49 LT 0xC5 PUSH10 0x2CA750D9A3F4D871A7BC 0xD9 DUP2 GASLIMIT CALLVALUE PUSH20 0x7164736F6C634300081200330000000000000000 "
				},
				"gasEstimates": {
					"creation": {
						"codeDepositCost": "1039200",
						"executionCost": "infinite",
						"totalCost": "infinite"
					},
					"external": {
						"balanceOf(address)": "2593",
						"earned(address)": "infinite",
						"exit()": "infinite",
						"getReward()": "infinite",
						"getRewardForDuration()": "infinite",
						"lastPauseTime()": "2373",
						"lastTimeRewardApplicable()": "4490",
						"lastUpdateTime()": "2329",
						"notifyRewardAmount(uint256)": "infinite",
						"owner()": "2398",
						"paused()": "2355",
						"periodFinish()": "2372",
						"recoverERC20(address,uint256)": "infinite",
						"renounceOwnership()": "infinite",
						"rewardPerToken()": "infinite",
						"rewardPerTokenStored()": "2328",
						"rewardRate()": "2330",
						"rewards(address)": "2577",
						"rewardsDistribution()": "2449",
						"rewardsDuration()": "2330",
						"rewardsToken()": "2448",
						"setPaused(bool)": "infinite",
						"setRewardsDistribution(address)": "26803",
						"setRewardsDuration(uint256)": "27755",
						"stake(uint256)": "infinite",
						"stakingToken()": "2448",
						"totalSupply()": "2327",
						"transferOwnership(address)": "28446",
						"userRewardPerTokenPaid(address)": "2553",
						"withdraw(uint256)": "infinite"
					}
				},
				"methodIdentifiers": {
					"balanceOf(address)": "70a08231",
					"earned(address)": "008cc262",
					"exit()": "e9fad8ee",
					"getReward()": "3d18b912",
					"getRewardForDuration()": "1c1f78eb",
					"lastPauseTime()": "91b4ded9",
					"lastTimeRewardApplicable()": "80faa57d",
					"lastUpdateTime()": "c8f33c91",
					"notifyRewardAmount(uint256)": "3c6b16ab",
					"owner()": "8da5cb5b",
					"paused()": "5c975abb",
					"periodFinish()": "ebe2b12b",
					"recoverERC20(address,uint256)": "8980f11f",
					"renounceOwnership()": "715018a6",
					"rewardPerToken()": "cd3daf9d",
					"rewardPerTokenStored()": "df136d65",
					"rewardRate()": "7b0a47ee",
					"rewards(address)": "0700037d",
					"rewardsDistribution()": "3fc6df6e",
					"rewardsDuration()": "386a9525",
					"rewardsToken()": "d1af0c7d",
					"setPaused(bool)": "16c38b3c",
					"setRewardsDistribution(address)": "19762143",
					"setRewardsDuration(uint256)": "cc1a378f",
					"stake(uint256)": "a694fc3a",
					"stakingToken()": "72f702f3",
					"totalSupply()": "18160ddd",
					"transferOwnership(address)": "f2fde38b",
					"userRewardPerTokenPaid(address)": "8b876347",
					"withdraw(uint256)": "2e1a7d4d"
				}
			},
			"storageLayout": {
				"storage": [
					{
						"astId": 123,
						"contract": "contracts/Zero2HeroWeek2StakingRewards.sol:Zero2HeroWeek2StakingRewards",
						"label": "_status",
						"offset": 0,
						"slot": "0",
						"type": "t_uint256"
					},
					{
						"astId": 7,
						"contract": "contracts/Zero2HeroWeek2StakingRewards.sol:Zero2HeroWeek2StakingRewards",
						"label": "_owner",
						"offset": 0,
						"slot": "1",
						"type": "t_address"
					},
					{
						"astId": 1250,
						"contract": "contracts/Zero2HeroWeek2StakingRewards.sol:Zero2HeroWeek2StakingRewards",
						"label": "rewardsToken",
						"offset": 0,
						"slot": "2",
						"type": "t_address"
					},
					{
						"astId": 1252,
						"contract": "contracts/Zero2HeroWeek2StakingRewards.sol:Zero2HeroWeek2StakingRewards",
						"label": "stakingToken",
						"offset": 0,
						"slot": "3",
						"type": "t_address"
					},
					{
						"astId": 1255,
						"contract": "contracts/Zero2HeroWeek2StakingRewards.sol:Zero2HeroWeek2StakingRewards",
						"label": "periodFinish",
						"offset": 0,
						"slot": "4",
						"type": "t_uint256"
					},
					{
						"astId": 1258,
						"contract": "contracts/Zero2HeroWeek2StakingRewards.sol:Zero2HeroWeek2StakingRewards",
						"label": "rewardRate",
						"offset": 0,
						"slot": "5",
						"type": "t_uint256"
					},
					{
						"astId": 1261,
						"contract": "contracts/Zero2HeroWeek2StakingRewards.sol:Zero2HeroWeek2StakingRewards",
						"label": "rewardsDuration",
						"offset": 0,
						"slot": "6",
						"type": "t_uint256"
					},
					{
						"astId": 1263,
						"contract": "contracts/Zero2HeroWeek2StakingRewards.sol:Zero2HeroWeek2StakingRewards",
						"label": "lastUpdateTime",
						"offset": 0,
						"slot": "7",
						"type": "t_uint256"
					},
					{
						"astId": 1265,
						"contract": "contracts/Zero2HeroWeek2StakingRewards.sol:Zero2HeroWeek2StakingRewards",
						"label": "rewardPerTokenStored",
						"offset": 0,
						"slot": "8",
						"type": "t_uint256"
					},
					{
						"astId": 1267,
						"contract": "contracts/Zero2HeroWeek2StakingRewards.sol:Zero2HeroWeek2StakingRewards",
						"label": "rewardsDistribution",
						"offset": 0,
						"slot": "9",
						"type": "t_address"
					},
					{
						"astId": 1271,
						"contract": "contracts/Zero2HeroWeek2StakingRewards.sol:Zero2HeroWeek2StakingRewards",
						"label": "userRewardPerTokenPaid",
						"offset": 0,
						"slot": "10",
						"type": "t_mapping(t_address,t_uint256)"
					},
					{
						"astId": 1275,
						"contract": "contracts/Zero2HeroWeek2StakingRewards.sol:Zero2HeroWeek2StakingRewards",
						"label": "rewards",
						"offset": 0,
						"slot": "11",
						"type": "t_mapping(t_address,t_uint256)"
					},
					{
						"astId": 1277,
						"contract": "contracts/Zero2HeroWeek2StakingRewards.sol:Zero2HeroWeek2StakingRewards",
						"label": "_totalSupply",
						"offset": 0,
						"slot": "12",
						"type": "t_uint256"
					},
					{
						"astId": 1281,
						"contract": "contracts/Zero2HeroWeek2StakingRewards.sol:Zero2HeroWeek2StakingRewards",
						"label": "_balances",
						"offset": 0,
						"slot": "13",
						"type": "t_mapping(t_address,t_uint256)"
					},
					{
						"astId": 1824,
						"contract": "contracts/Zero2HeroWeek2StakingRewards.sol:Zero2HeroWeek2StakingRewards",
						"label": "lastPauseTime",
						"offset": 0,
						"slot": "14",
						"type": "t_uint256"
					},
					{
						"astId": 1826,
						"contract": "contracts/Zero2HeroWeek2StakingRewards.sol:Zero2HeroWeek2StakingRewards",
						"label": "paused",
						"offset": 0,
						"slot": "15",
						"type": "t_bool"
					}
				],
				"types": {
					"t_address": {
						"encoding": "inplace",
						"label": "address",
						"numberOfBytes": "20"
					},
					"t_bool": {
						"encoding": "inplace",
						"label": "bool",
						"numberOfBytes": "1"
					},
					"t_mapping(t_address,t_uint256)": {
						"encoding": "mapping",
						"key": "t_address",
						"label": "mapping(address => uint256)",
						"numberOfBytes": "32",
						"value": "t_uint256"
					},
					"t_uint256": {
						"encoding": "inplace",
						"label": "uint256",
						"numberOfBytes": "32"
					}
				}
			},
			"userdoc": {
				"kind": "user",
				"methods": {
					"setPaused(bool)": {
						"notice": "Change the paused state of the contract"
					}
				},
				"version": 1
			}
		}
	}
}