{
	"data": {
		"bytecode": {
			"linkReferences": {},
			"object": "60806040526000600455600060055562093a806006553480156200002257600080fd5b50604051620015b0380380620015b083398101604081905262000045916200010a565b600160005562000055336200009b565b600280546001600160a01b039384166001600160a01b03199182161790915560038054928416928216929092179091556009805493909216921691909117905562000154565b600180546001600160a01b038381166001600160a01b0319831681179093556040519116919082907f8be0079c531659141344cd1fd0a4f28419497f9722a3daafe3b4186f6b6457e090600090a35050565b80516001600160a01b03811681146200010557600080fd5b919050565b6000806000606084860312156200012057600080fd5b6200012b84620000ed565b92506200013b60208501620000ed565b91506200014b60408501620000ed565b90509250925092565b61144c80620001646000396000f3fe608060405234801561001057600080fd5b50600436106101d95760003560e01c80637b0a47ee11610104578063c8f33c91116100a2578063df136d6511610071578063df136d65146103c7578063e9fad8ee146103d0578063ebe2b12b146103d8578063f2fde38b146103e157600080fd5b8063c8f33c9114610390578063cc1a378f14610399578063cd3daf9d146103ac578063d1af0c7d146103b457600080fd5b80638b876347116100de5780638b876347146103435780638da5cb5b1461036357806391b4ded914610374578063a694fc3a1461037d57600080fd5b80637b0a47ee1461031f57806380faa57d146103285780638980f11f1461033057600080fd5b8063386a95251161017c5780635c975abb1161014b5780635c975abb146102be57806370a08231146102db578063715018a61461030457806372f702f31461030c57600080fd5b8063386a95251461026f5780633c6b16ab146102785780633d18b9121461028b5780633fc6df6e1461029357600080fd5b806318160ddd116101b857806318160ddd1461023957806319762143146102415780631c1f78eb146102545780632e1a7d4d1461025c57600080fd5b80628cc262146101de5780630700037d1461020457806316c38b3c14610224575b600080fd5b6101f16101ec36600461126f565b6103f4565b6040519081526020015b60405180910390f35b6101f161021236600461126f565b600b6020526000908152604090205481565b610237610232366004611298565b610472565b005b600c546101f1565b61023761024f36600461126f565b6104e9565b6101f1610513565b61023761026a3660046112b5565b610531565b6101f160065481565b6102376102863660046112b5565b610674565b6102376108c2565b6009546102a6906001600160a01b031681565b6040516001600160a01b0390911681526020016101fb565b600f546102cb9060ff1681565b60405190151581526020016101fb565b6101f16102e936600461126f565b6001600160a01b03166000908152600d602052604090205490565b6102376109a8565b6003546102a6906001600160a01b031681565b6101f160055481565b6101f16109ba565b61023761033e3660046112ce565b6109d1565b6101f161035136600461126f565b600a6020526000908152604090205481565b6001546001600160a01b03166102a6565b6101f1600e5481565b61023761038b3660046112b5565b610aad565b6101f160075481565b6102376103a73660046112b5565b610c53565b6101f1610d2d565b6002546102a6906001600160a01b031681565b6101f160085481565b610237610d78565b6101f160045481565b6102376103ef36600461126f565b610d99565b6001600160a01b0381166000908152600b6020908152604080832054600a90925282205461046c919061046690670de0b6b3a764000090610460906104419061043b610d2d565b90610e0f565b6001600160a01b0388166000908152600d602052604090205490610e22565b90610e2e565b90610e3a565b92915050565b61047a610e46565b600f5460ff161515811515146104e657600f805460ff191682151590811790915560ff16156104a85742600e555b600f5460405160ff909116151581527f8fb6c181ee25a520cf3dd6565006ef91229fcfe5a989566c2a3b8c115570cec5906020015b60405180910390a15b50565b6104f1610e46565b600980546001600160a01b0319166001600160a01b0392909216919091179055565b600061052c600654600554610e2290919063ffffffff16565b905090565b610539610ea0565b33610542610d2d565b60085561054d6109ba565b6007556001600160a01b0381161561059457610568816103f4565b6001600160a01b0382166000908152600b6020908152604080832093909355600854600a909152919020555b600082116105dd5760405162461bcd60e51b8152602060048201526011602482015270043616e6e6f74207769746864726177203607c1b60448201526064015b60405180910390fd5b600c546105ea9083610e0f565b600c55336000908152600d60205260409020546106079083610e0f565b336000818152600d6020526040902091909155600354610633916001600160a01b039091169084610ef9565b60405182815233907f7084f5476618d8e60b11ef0d7d3f06914655adb8793e28ff7f018d4c76d505d5906020015b60405180910390a2506104e66001600055565b6009546001600160a01b031633146106e15760405162461bcd60e51b815260206004820152602a60248201527f43616c6c6572206973206e6f742052657761726473446973747269627574696f6044820152691b8818dbdb9d1c9858dd60b21b60648201526084016105d4565b60006106eb610d2d565b6008556106f66109ba565b6007556001600160a01b0381161561073d57610711816103f4565b6001600160a01b0382166000908152600b6020908152604080832093909355600854600a909152919020555b600454421061075c57600654610754908390610e2e565b60055561079f565b60045460009061076c9042610e0f565b9050600061078560055483610e2290919063ffffffff16565b600654909150610799906104608684610e3a565b60055550505b6002546040516370a0823160e01b81523060048201526000916001600160a01b0316906370a0823190602401602060405180830381865afa1580156107e8573d6000803e3d6000fd5b505050506040513d601f19601f8201168201806040525081019061080c91906112f8565b905061082360065482610e2e90919063ffffffff16565b60055411156108745760405162461bcd60e51b815260206004820152601860248201527f50726f76696465642072657761726420746f6f2068696768000000000000000060448201526064016105d4565b4260078190556006546108879190610e3a565b6004556040518381527fde88a922e0d3b88b24e9623efeb464919c6bf9f66857a65e2bfcf2ce87a9433d9060200160405180910390a1505050565b6108ca610ea0565b336108d3610d2d565b6008556108de6109ba565b6007556001600160a01b03811615610925576108f9816103f4565b6001600160a01b0382166000908152600b6020908152604080832093909355600854600a909152919020555b336000908152600b6020526040902054801561099a57336000818152600b6020526040812055600254610964916001600160a01b039091169083610ef9565b60405181815233907fe2403640ba68fed3a2f88b7557551d1993f84b99bb10ff833f0cf8db0c5e04869060200160405180910390a25b50506109a66001600055565b565b6109b0610e46565b6109a66000610f61565b600060045442106109cc575060045490565b504290565b6109d9610e46565b6003546001600160a01b0390811690831603610a415760405162461bcd60e51b815260206004820152602160248201527f43616e6e6f7420776974686472617720746865207374616b696e6720746f6b656044820152603760f91b60648201526084016105d4565b610a67610a566001546001600160a01b031690565b6001600160a01b0384169083610ef9565b604080516001600160a01b0384168152602081018390527f8c1256b8896378cd5044f80c202f9772b9d77dc85c8a6eb51967210b09bfaa28910160405180910390a15050565b610ab5610ea0565b600f5460ff1615610b2e5760405162461bcd60e51b815260206004820152603c60248201527f5468697320616374696f6e2063616e6e6f7420626520706572666f726d65642060448201527f7768696c652074686520636f6e7472616374206973207061757365640000000060648201526084016105d4565b33610b37610d2d565b600855610b426109ba565b6007556001600160a01b03811615610b8957610b5d816103f4565b6001600160a01b0382166000908152600b6020908152604080832093909355600854600a909152919020555b60008211610bca5760405162461bcd60e51b815260206004820152600e60248201526d043616e6e6f74207374616b6520360941b60448201526064016105d4565b600c54610bd79083610e3a565b600c55336000908152600d6020526040902054610bf49083610e3a565b336000818152600d6020526040902091909155600354610c21916001600160a01b03909116903085610fb3565b60405182815233907f9e71bc8eea02a63969f509818f2dafb9254532904319f9dbda79b67bd34a5f3d90602001610661565b610c5b610e46565b6004544211610cf85760405162461bcd60e51b815260206004820152605860248201527f50726576696f7573207265776172647320706572696f64206d7573742062652060448201527f636f6d706c657465206265666f7265206368616e67696e67207468652064757260648201527f6174696f6e20666f7220746865206e657720706572696f640000000000000000608482015260a4016105d4565b60068190556040518181527ffb46ca5a5e06d4540d6387b930a7c978bce0db5f449ec6b3f5d07c6e1d44f2d3906020016104dd565b6000600c54600003610d40575060085490565b61052c610d6f600c54610460670de0b6b3a7640000610d69600554610d6960075461043b6109ba565b90610e22565b60085490610e3a565b336000908152600d6020526040902054610d9190610531565b6109a66108c2565b610da1610e46565b6001600160a01b038116610e065760405162461bcd60e51b815260206004820152602660248201527f4f776e61626c653a206e6577206f776e657220697320746865207a65726f206160448201526564647265737360d01b60648201526084016105d4565b6104e681610f61565b6000610e1b8284611327565b9392505050565b6000610e1b828461133a565b6000610e1b8284611351565b6000610e1b8284611373565b6001546001600160a01b031633146109a65760405162461bcd60e51b815260206004820181905260248201527f4f776e61626c653a2063616c6c6572206973206e6f7420746865206f776e657260448201526064016105d4565b600260005403610ef25760405162461bcd60e51b815260206004820152601f60248201527f5265656e7472616e637947756172643a207265656e7472616e742063616c6c0060448201526064016105d4565b6002600055565b6040516001600160a01b038316602482015260448101829052610f5c90849063a9059cbb60e01b906064015b60408051601f198184030181529190526020810180516001600160e01b03166001600160e01b031990931692909217909152610ff1565b505050565b600180546001600160a01b038381166001600160a01b0319831681179093556040519116919082907f8be0079c531659141344cd1fd0a4f28419497f9722a3daafe3b4186f6b6457e090600090a35050565b6040516001600160a01b0380851660248301528316604482015260648101829052610feb9085906323b872dd60e01b90608401610f25565b50505050565b6000611046826040518060400160405280602081526020017f5361666545524332303a206c6f772d6c6576656c2063616c6c206661696c6564815250856001600160a01b03166110c39092919063ffffffff16565b805190915015610f5c57808060200190518101906110649190611386565b610f5c5760405162461bcd60e51b815260206004820152602a60248201527f5361666545524332303a204552433230206f7065726174696f6e20646964206e6044820152691bdd081cdd58d8d9595960b21b60648201526084016105d4565b60606110d284846000856110da565b949350505050565b60608247101561113b5760405162461bcd60e51b815260206004820152602660248201527f416464726573733a20696e73756666696369656e742062616c616e636520666f6044820152651c8818d85b1b60d21b60648201526084016105d4565b600080866001600160a01b0316858760405161115791906113c7565b60006040518083038185875af1925050503d8060008114611194576040519150601f19603f3d011682016040523d82523d6000602084013e611199565b606091505b50915091506111aa878383876111b5565b979650505050505050565b6060831561122457825160000361121d576001600160a01b0385163b61121d5760405162461bcd60e51b815260206004820152601d60248201527f416464726573733a2063616c6c20746f206e6f6e2d636f6e747261637400000060448201526064016105d4565b50816110d2565b6110d283838151156112395781518083602001fd5b8060405162461bcd60e51b81526004016105d491906113e3565b80356001600160a01b038116811461126a57600080fd5b919050565b60006020828403121561128157600080fd5b610e1b82611253565b80151581146104e657600080fd5b6000602082840312156112aa57600080fd5b8135610e1b8161128a565b6000602082840312156112c757600080fd5b5035919050565b600080604083850312156112e157600080fd5b6112ea83611253565b946020939093013593505050565b60006020828403121561130a57600080fd5b5051919050565b634e487b7160e01b600052601160045260246000fd5b8181038181111561046c5761046c611311565b808202811582820484141761046c5761046c611311565b60008261136e57634e487b7160e01b600052601260045260246000fd5b500490565b8082018082111561046c5761046c611311565b60006020828403121561139857600080fd5b8151610e1b8161128a565b60005b838110156113be5781810151838201526020016113a6565b50506000910152565b600082516113d98184602087016113a3565b9190910192915050565b60208152600082518060208401526114028160408501602087016113a3565b601f01601f1916919091016040019291505056fea2646970667358221220cc3c4486f15c843dd1b7b7cb4910c5692ca750d9a3f4d871a7bcd9814534737164736f6c63430008120033",
			"opcodes": "PUSH1 0x80 PUSH1 0x40 MSTORE PUSH1 0x0 PUSH1 0x4 SSTORE PUSH1 0x0 PUSH1 0x5 SSTORE PUSH3 0x93A80 PUSH1 0x6 SSTORE CALLVALUE DUP1 ISZERO PUSH3 0x22 JUMPI PUSH1 0x0 DUP1 REVERT JUMPDEST POP PUSH1 0x40 MLOAD PUSH3 0x15B0 CODESIZE SUB DUP1 PUSH3 0x15B0 DUP4 CODECOPY DUP2 ADD PUSH1 0x40 DUP2 SWAP1 MSTORE PUSH3 0x45 SWAP2 PUSH3 0x10A JUMP JUMPDEST PUSH1 0x1 PUSH1 0x0 SSTORE PUSH3 0x55 CALLER PUSH3 0x9B JUMP JUMPDEST PUSH1 0x2 DUP1 SLOAD PUSH1 0x1 PUSH1 0x1 PUSH1 0xA0 SHL SUB SWAP4 DUP5 AND PUSH1 0x1 PUSH1 0x1 PUSH1 0xA0 SHL SUB NOT SWAP2 DUP3 AND OR SWAP1 SWAP2 SSTORE PUSH1 0x3 DUP1 SLOAD SWAP3 DUP5 AND SWAP3 DUP3 AND SWAP3 SWAP1 SWAP3 OR SWAP1 SWAP2 SSTORE PUSH1 0x9 DUP1 SLOAD SWAP4 SWAP1 SWAP3 AND SWAP3 AND SWAP2 SWAP1 SWAP2 OR SWAP1 SSTORE PUSH3 0x154 JUMP JUMPDEST PUSH1 0x1 DUP1 SLOAD PUSH1 0x1 PUSH1 0x1 PUSH1 0xA0 SHL SUB DUP4 DUP2 AND PUSH1 0x1 PUSH1 0x1 PUSH1 0xA0 SHL SUB NOT DUP4 AND DUP2 OR SWAP1 SWAP4 SSTORE PUSH1 0x40 MLOAD SWAP2 AND SWAP2 SWAP1 DUP3 SWAP1 PUSH32 0x8BE0079C531659141344CD1FD0A4F28419497F9722A3DAAFE3B4186F6B6457E0 SWAP1 PUSH1 0x0 SWAP1 LOG3 POP POP JUMP JUMPDEST DUP1 MLOAD PUSH1 0x1 PUSH1 0x1 PUSH1 0xA0 SHL SUB DUP2 AND DUP2 EQ PUSH3 0x105 JUMPI PUSH1 0x0 DUP1 REVERT JUMPDEST SWAP2 SWAP1 POP JUMP JUMPDEST PUSH1 0x0 DUP1 PUSH1 0x0 PUSH1 0x60 DUP5 DUP7 SUB SLT ISZERO PUSH3 0x120 JUMPI PUSH1 0x0 DUP1 REVERT JUMPDEST PUSH3 0x12B DUP5 PUSH3 0xED JUMP JUMPDEST SWAP3 POP PUSH3 0x13B PUSH1 0x20 DUP6 ADD PUSH3 0xED JUMP JUMPDEST SWAP2 POP PUSH3 0x14B PUSH1 0x40 DUP6 ADD PUSH3 0xED JUMP JUMPDEST SWAP1 POP SWAP3 POP SWAP3 POP SWAP3 JUMP JUMPDEST PUSH2 0x144C DUP1 PUSH3 0x164 PUSH1 0x0 CODECOPY PUSH1 0x0 RETURN INVALID PUSH1 0x80 PUSH1 0x40 MSTORE CALLVALUE DUP1 ISZERO PUSH2 0x10 JUMPI PUSH1 0x0 DUP1 REVERT JUMPDEST POP PUSH1 0x4 CALLDATASIZE LT PUSH2 0x1D9 JUMPI PUSH1 0x0 CALLDATALOAD PUSH1 0xE0 SHR DUP1 PUSH4 0x7B0A47EE GT PUSH2 0x104 JUMPI DUP1 PUSH4 0xC8F33C91 GT PUSH2 0xA2 JUMPI DUP1 PUSH4 0xDF136D65 GT PUSH2 0x71 JUMPI DUP1 PUSH4 0xDF136D65 EQ PUSH2 0x3C7 JUMPI DUP1 PUSH4 0xE9FAD8EE EQ PUSH2 0x3D0 JUMPI DUP1 PUSH4 0xEBE2B12B EQ PUSH2 0x3D8 JUMPI DUP1 PUSH4 0xF2FDE38B EQ PUSH2 0x3E1 JUMPI PUSH1 0x0 DUP1 REVERT JUMPDEST DUP1 PUSH4 0xC8F33C91 EQ PUSH2 0x390 JUMPI DUP1 PUSH4 0xCC1A378F EQ PUSH2 0x399 JUMPI DUP1 PUSH4 0xCD3DAF9D EQ PUSH2 0x3AC JUMPI DUP1 PUSH4 0xD1AF0C7D EQ PUSH2 0x3B4 JUMPI PUSH1 0x0 DUP1 REVERT JUMPDEST DUP1 PUSH4 0x8B876347 GT PUSH2 0xDE JUMPI DUP1 PUSH4 0x8B876347 EQ PUSH2 0x343 JUMPI DUP1 PUSH4 0x8DA5CB5B EQ PUSH2 0x363 JUMPI DUP1 PUSH4 0x91B4DED9 EQ PUSH2 0x374 JUMPI DUP1 PUSH4 0xA694FC3A EQ PUSH2 0x37D JUMPI PUSH1 0x0 DUP1 REVERT JUMPDEST DUP1 PUSH4 0x7B0A47EE EQ PUSH2 0x31F JUMPI DUP1 PUSH4 0x80FAA57D EQ PUSH2 0x328 JUMPI DUP1 PUSH4 0x8980F11F EQ PUSH2 0x330 JUMPI PUSH1 0x0 DUP1 REVERT JUMPDEST DUP1 PUSH4 0x386A9525 GT PUSH2 0x17C JUMPI DUP1 PUSH4 0x5C975ABB GT PUSH2 0x14B JUMPI DUP1 PUSH4 0x5C975ABB EQ PUSH2 0x2BE JUMPI DUP1 PUSH4 0x70A08231 EQ PUSH2 0x2DB JUMPI DUP1 PUSH4 0x715018A6 EQ PUSH2 0x304 JUMPI DUP1 PUSH4 0x72F702F3 EQ PUSH2 0x30C JUMPI PUSH1 0x0 DUP1 REVERT JUMPDEST DUP1 PUSH4 0x386A9525 EQ PUSH2 0x26F JUMPI DUP1 PUSH4 0x3C6B16AB EQ PUSH2 0x278 JUMPI DUP1 PUSH4 0x3D18B912 EQ PUSH2 0x28B JUMPI DUP1 PUSH4 0x3FC6DF6E EQ PUSH2 0x293 JUMPI PUSH1 0x0 DUP1 REVERT JUMPDEST DUP1 PUSH4 0x18160DDD GT PUSH2 0x1B8 JUMPI DUP1 PUSH4 0x18160DDD EQ PUSH2 0x239 JUMPI DUP1 PUSH4 0x19762143 EQ PUSH2 0x241 JUMPI DUP1 PUSH4 0x1C1F78EB EQ PUSH2 0x254 JUMPI DUP1 PUSH4 0x2E1A7D4D EQ PUSH2 0x25C JUMPI PUSH1 0x0 DUP1 REVERT JUMPDEST DUP1 PUSH3 0x8CC262 EQ PUSH2 0x1DE JUMPI DUP1 PUSH4 0x700037D EQ PUSH2 0x204 JUMPI DUP1 PUSH4 0x16C38B3C EQ PUSH2 0x224 JUMPI JUMPDEST PUSH1 0x0 DUP1 REVERT JUMPDEST PUSH2 0x1F1 PUSH2 0x1EC CALLDATASIZE PUSH1 0x4 PUSH2 0x126F JUMP JUMPDEST PUSH2 0x3F4 JUMP JUMPDEST PUSH1 0x40 MLOAD SWAP1 DUP2 MSTORE PUSH1 0x20 ADD JUMPDEST PUSH1 0x40 MLOAD DUP1 SWAP2 SUB SWAP1 RETURN JUMPDEST PUSH2 0x1F1 PUSH2 0x212 CALLDATASIZE PUSH1 0x4 PUSH2 0x126F JUMP JUMPDEST PUSH1 0xB PUSH1 0x20 MSTORE PUSH1 0x0 SWAP1 DUP2 MSTORE PUSH1 0x40 SWAP1 KECCAK256 SLOAD DUP2 JUMP JUMPDEST PUSH2 0x237 PUSH2 0x232 CALLDATASIZE PUSH1 0x4 PUSH2 0x1298 JUMP JUMPDEST PUSH2 0x472 JUMP JUMPDEST STOP JUMPDEST PUSH1 0xC SLOAD PUSH2 0x1F1 JUMP JUMPDEST PUSH2 0x237 PUSH2 0x24F CALLDATASIZE PUSH1 0x4 PUSH2 0x126F JUMP JUMPDEST PUSH2 0x4E9 JUMP JUMPDEST PUSH2 0x1F1 PUSH2 0x513 JUMP JUMPDEST PUSH2 0x237 PUSH2 0x26A CALLDATASIZE PUSH1 0x4 PUSH2 0x12B5 JUMP JUMPDEST PUSH2 0x531 JUMP JUMPDEST PUSH2 0x1F1 PUSH1 0x6 SLOAD DUP2 JUMP JUMPDEST PUSH2 0x237 PUSH2 0x286 CALLDATASIZE PUSH1 0x4 PUSH2 0x12B5 JUMP JUMPDEST PUSH2 0x674 JUMP JUMPDEST PUSH2 0x237 PUSH2 0x8C2 JUMP JUMPDEST PUSH1 0x9 SLOAD PUSH2 0x2A6 SWAP1 PUSH1 0x1 PUSH1 0x1 PUSH1 0xA0 SHL SUB AND DUP2 JUMP JUMPDEST PUSH1 0x40 MLOAD PUSH1 0x1 PUSH1 0x1 PUSH1 0xA0 SHL SUB SWAP1 SWAP2 AND DUP2 MSTORE PUSH1 0x20 ADD PUSH2 0x1FB JUMP JUMPDEST PUSH1 0xF SLOAD PUSH2 0x2CB SWAP1 PUSH1 0xFF AND DUP2 JUMP JUMPDEST PUSH1 0x40 MLOAD SWAP1 ISZERO ISZERO DUP2 MSTORE PUSH1 0x20 ADD PUSH2 0x1FB JUMP JUMPDEST PUSH2 0x1F1 PUSH2 0x2E9 CALLDATASIZE PUSH1 0x4 PUSH2 0x126F JUMP JUMPDEST PUSH1 0x1 PUSH1 0x1 PUSH1 0xA0 SHL SUB AND PUSH1 0x0 SWAP1 DUP2 MSTORE PUSH1 0xD PUSH1 0x20 MSTORE PUSH1 0x40 SWAP1 KECCAK256 SLOAD SWAP1 JUMP JUMPDEST PUSH2 0x237 PUSH2 0x9A8 JUMP JUMPDEST PUSH1 0x3 SLOAD PUSH2 0x2A6 SWAP1 PUSH1 0x1 PUSH1 0x1 PUSH1 0xA0 SHL SUB AND DUP2 JUMP JUMPDEST PUSH2 0x1F1 PUSH1 0x5 SLOAD DUP2 JUMP JUMPDEST PUSH2 0x1F1 PUSH2 0x9BA JUMP JUMPDEST PUSH2 0x237 PUSH2 0x33E CALLDATASIZE PUSH1 0x4 PUSH2 0x12CE JUMP JUMPDEST PUSH2 0x9D1 JUMP JUMPDEST PUSH2 0x1F1 PUSH2 0x351 CALLDATASIZE PUSH1 0x4 PUSH2 0x126F JUMP JUMPDEST PUSH1 0xA PUSH1 0x20 MSTORE PUSH1 0x0 SWAP1 DUP2 MSTORE PUSH1 0x40 SWAP1 KECCAK256 SLOAD DUP2 JUMP JUMPDEST PUSH1 0x1 SLOAD PUSH1 0x1 PUSH1 0x1 PUSH1 0xA0 SHL SUB AND PUSH2 0x2A6 JUMP JUMPDEST PUSH2 0x1F1 PUSH1 0xE SLOAD DUP2 JUMP JUMPDEST PUSH2 0x237 PUSH2 0x38B CALLDATASIZE PUSH1 0x4 PUSH2 0x12B5 JUMP JUMPDEST PUSH2 0xAAD JUMP JUMPDEST PUSH2 0x1F1 PUSH1 0x7 SLOAD DUP2 JUMP JUMPDEST PUSH2 0x237 PUSH2 0x3A7 CALLDATASIZE PUSH1 0x4 PUSH2 0x12B5 JUMP JUMPDEST PUSH2 0xC53 JUMP JUMPDEST PUSH2 0x1F1 PUSH2 0xD2D JUMP JUMPDEST PUSH1 0x2 SLOAD PUSH2 0x2A6 SWAP1 PUSH1 0x1 PUSH1 0x1 PUSH1 0xA0 SHL SUB AND DUP2 JUMP JUMPDEST PUSH2 0x1F1 PUSH1 0x8 SLOAD DUP2 JUMP JUMPDEST PUSH2 0x237 PUSH2 0xD78 JUMP JUMPDEST PUSH2 0x1F1 PUSH1 0x4 SLOAD DUP2 JUMP JUMPDEST PUSH2 0x237 PUSH2 0x3EF CALLDATASIZE PUSH1 0x4 PUSH2 0x126F JUMP JUMPDEST PUSH2 0xD99 JUMP JUMPDEST PUSH1 0x1 PUSH1 0x1 PUSH1 0xA0 SHL SUB DUP2 AND PUSH1 0x0 SWAP1 DUP2 MSTORE PUSH1 0xB PUSH1 0x20 SWAP1 DUP2 MSTORE PUSH1 0x40 DUP1 DUP4 KECCAK256 SLOAD PUSH1 0xA SWAP1 SWAP3 MSTORE DUP3 KECCAK256 SLOAD PUSH2 0x46C SWAP2 SWAP1 PUSH2 0x466 SWAP1 PUSH8 0xDE0B6B3A7640000 SWAP1 PUSH2 0x460 SWAP1 PUSH2 0x441 SWAP1 PUSH2 0x43B PUSH2 0xD2D JUMP JUMPDEST SWAP1 PUSH2 0xE0F JUMP JUMPDEST PUSH1 0x1 PUSH1 0x1 PUSH1 0xA0 SHL SUB DUP9 AND PUSH1 0x0 SWAP1 DUP2 MSTORE PUSH1 0xD PUSH1 0x20 MSTORE PUSH1 0x40 SWAP1 KECCAK256 SLOAD SWAP1 PUSH2 0xE22 JUMP JUMPDEST SWAP1 PUSH2 0xE2E JUMP JUMPDEST SWAP1 PUSH2 0xE3A JUMP JUMPDEST SWAP3 SWAP2 POP POP JUMP JUMPDEST PUSH2 0x47A PUSH2 0xE46 JUMP JUMPDEST PUSH1 0xF SLOAD PUSH1 0xFF AND ISZERO ISZERO DUP2 ISZERO ISZERO EQ PUSH2 0x4E6 JUMPI PUSH1 0xF DUP1 SLOAD PUSH1 0xFF NOT AND DUP3 ISZERO ISZERO SWAP1 DUP2 OR SWAP1 SWAP2 SSTORE PUSH1 0xFF AND ISZERO PUSH2 0x4A8 JUMPI TIMESTAMP PUSH1 0xE SSTORE JUMPDEST PUSH1 0xF SLOAD PUSH1 0x40 MLOAD PUSH1 0xFF SWAP1 SWAP2 AND ISZERO ISZERO DUP2 MSTORE PUSH32 0x8FB6C181EE25A520CF3DD6565006EF91229FCFE5A989566C2A3B8C115570CEC5 SWAP1 PUSH1 0x20 ADD JUMPDEST PUSH1 0x40 MLOAD DUP1 SWAP2 SUB SWAP1 LOG1 JUMPDEST POP JUMP JUMPDEST PUSH2 0x4F1 PUSH2 0xE46 JUMP JUMPDEST PUSH1 0x9 DUP1 SLOAD PUSH1 0x1 PUSH1 0x1 PUSH1 0xA0 SHL SUB NOT AND PUSH1 0x1 PUSH1 0x1 PUSH1 0xA0 SHL SUB SWAP3 SWAP1 SWAP3 AND SWAP2 SWAP1 SWAP2 OR SWAP1 SSTORE JUMP JUMPDEST PUSH1 0x0 PUSH2 0x52C PUSH1 0x6 SLOAD PUSH1 0x5 SLOAD PUSH2 0xE22 SWAP1 SWAP2 SWAP1 PUSH4 0xFFFFFFFF AND JUMP JUMPDEST SWAP1 POP SWAP1 JUMP JUMPDEST PUSH2 0x539 PUSH2 0xEA0 JUMP JUMPDEST CALLER PUSH2 0x542 PUSH2 0xD2D JUMP JUMPDEST PUSH1 0x8 SSTORE PUSH2 0x54D PUSH2 0x9BA JUMP JUMPDEST PUSH1 0x7 SSTORE PUSH1 0x1 PUSH1 0x1 PUSH1 0xA0 SHL SUB DUP2 AND ISZERO PUSH2 0x594 JUMPI PUSH2 0x568 DUP2 PUSH2 0x3F4 JUMP JUMPDEST PUSH1 0x1 PUSH1 0x1 PUSH1 0xA0 SHL SUB DUP3 AND PUSH1 0x0 SWAP1 DUP2 MSTORE PUSH1 0xB PUSH1 0x20 SWAP1 DUP2 MSTORE PUSH1 0x40 DUP1 DUP4 KECCAK256 SWAP4 SWAP1 SWAP4 SSTORE PUSH1 0x8 SLOAD PUSH1 0xA SWAP1 SWAP2 MSTORE SWAP2 SWAP1 KECCAK256 SSTORE JUMPDEST PUSH1 0x0 DUP3 GT PUSH2 0x5DD JUMPI PUSH1 0x40 MLOAD PUSH3 0x461BCD PUSH1 0xE5 SHL DUP2 MSTORE PUSH1 0x20 PUSH1 0x4 DUP3 ADD MSTORE PUSH1 0x11 PUSH1 0x24 DUP3 ADD MSTORE PUSH17 0x43616E6E6F74207769746864726177203 PUSH1 0x7C SHL PUSH1 0x44 DUP3 ADD MSTORE PUSH1 0x64 ADD JUMPDEST PUSH1 0x40 MLOAD DUP1 SWAP2 SUB SWAP1 REVERT JUMPDEST PUSH1 0xC SLOAD PUSH2 0x5EA SWAP1 DUP4 PUSH2 0xE0F JUMP JUMPDEST PUSH1 0xC SSTORE CALLER PUSH1 0x0 SWAP1 DUP2 MSTORE PUSH1 0xD PUSH1 0x20 MSTORE PUSH1 0x40 SWAP1 KECCAK256 SLOAD PUSH2 0x607 SWAP1 DUP4 PUSH2 0xE0F JUMP JUMPDEST CALLER PUSH1 0x0 DUP2 DUP2 MSTORE PUSH1 0xD PUSH1 0x20 MSTORE PUSH1 0x40 SWAP1 KECCAK256 SWAP2 SWAP1 SWAP2 SSTORE PUSH1 0x3 SLOAD PUSH2 0x633 SWAP2 PUSH1 0x1 PUSH1 0x1 PUSH1 0xA0 SHL SUB SWAP1 SWAP2 AND SWAP1 DUP5 PUSH2 0xEF9 JUMP JUMPDEST PUSH1 0x40 MLOAD DUP3 DUP2 MSTORE CALLER SWAP1 PUSH32 0x7084F5476618D8E60B11EF0D7D3F06914655ADB8793E28FF7F018D4C76D505D5 SWAP1 PUSH1 0x20 ADD JUMPDEST PUSH1 0x40 MLOAD DUP1 SWAP2 SUB SWAP1 LOG2 POP PUSH2 0x4E6 PUSH1 0x1 PUSH1 0x0 SSTORE JUMP JUMPDEST PUSH1 0x9 SLOAD PUSH1 0x1 PUSH1 0x1 PUSH1 0xA0 SHL SUB AND CALLER EQ PUSH2 0x6E1 JUMPI PUSH1 0x40 MLOAD PUSH3 0x461BCD PUSH1 0xE5 SHL DUP2 MSTORE PUSH1 0x20 PUSH1 0x4 DUP3 ADD MSTORE PUSH1 0x2A PUSH1 0x24 DUP3 ADD MSTORE PUSH32 0x43616C6C6572206973206E6F742052657761726473446973747269627574696F PUSH1 0x44 DUP3 ADD MSTORE PUSH10 0x1B8818DBDB9D1C9858DD PUSH1 0xB2 SHL PUSH1 0x64 DUP3 ADD MSTORE PUSH1 0x84 ADD PUSH2 0x5D4 JUMP JUMPDEST PUSH1 0x0 PUSH2 0x6EB PUSH2 0xD2D JUMP JUMPDEST PUSH1 0x8 SSTORE PUSH2 0x6F6 PUSH2 0x9BA JUMP JUMPDEST PUSH1 0x7 SSTORE PUSH1 0x1 PUSH1 0x1 PUSH1 0xA0 SHL SUB DUP2 AND ISZERO PUSH2 0x73D JUMPI PUSH2 0x711 DUP2 PUSH2 0x3F4 JUMP JUMPDEST PUSH1 0x1 PUSH1 0x1 PUSH1 0xA0 SHL SUB DUP3 AND PUSH1 0x0 SWAP1 DUP2 MSTORE PUSH1 0xB PUSH1 0x20 SWAP1 DUP2 MSTORE PUSH1 0x40 DUP1 DUP4 KECCAK256 SWAP4 SWAP1 SWAP4 SSTORE PUSH1 0x8 SLOAD PUSH1 0xA SWAP1 SWAP2 MSTORE SWAP2 SWAP1 KECCAK256 SSTORE JUMPDEST PUSH1 0x4 SLOAD TIMESTAMP LT PUSH2 0x75C JUMPI PUSH1 0x6 SLOAD PUSH2 0x754 SWAP1 DUP4 SWAP1 PUSH2 0xE2E JUMP JUMPDEST PUSH1 0x5 SSTORE PUSH2 0x79F JUMP JUMPDEST PUSH1 0x4 SLOAD PUSH1 0x0 SWAP1 PUSH2 0x76C SWAP1 TIMESTAMP PUSH2 0xE0F JUMP JUMPDEST SWAP1 POP PUSH1 0x0 PUSH2 0x785 PUSH1 0x5 SLOAD DUP4 PUSH2 0xE22 SWAP1 SWAP2 SWAP1 PUSH4 0xFFFFFFFF AND JUMP JUMPDEST PUSH1 0x6 SLOAD SWAP1 SWAP2 POP PUSH2 0x799 SWAP1 PUSH2 0x460 DUP7 DUP5 PUSH2 0xE3A JUMP JUMPDEST PUSH1 0x5 SSTORE POP POP JUMPDEST PUSH1 0x2 SLOAD PUSH1 0x40 MLOAD PUSH4 0x70A08231 PUSH1 0xE0 SHL DUP2 MSTORE ADDRESS PUSH1 0x4 DUP3 ADD MSTORE PUSH1 0x0 SWAP2 PUSH1 0x1 PUSH1 0x1 PUSH1 0xA0 SHL SUB AND SWAP1 PUSH4 0x70A08231 SWAP1 PUSH1 0x24 ADD PUSH1 0x20 PUSH1 0x40 MLOAD DUP1 DUP4 SUB DUP2 DUP7 GAS STATICCALL ISZERO DUP1 ISZERO PUSH2 0x7E8 JUMPI RETURNDATASIZE PUSH1 0x0 DUP1 RETURNDATACOPY RETURNDATASIZE PUSH1 0x0 REVERT JUMPDEST POP POP POP POP PUSH1 0x40 MLOAD RETURNDATASIZE PUSH1 0x1F NOT PUSH1 0x1F DUP3 ADD AND DUP3 ADD DUP1 PUSH1 0x40 MSTORE POP DUP2 ADD SWAP1 PUSH2 0x80C SWAP2 SWAP1 PUSH2 0x12F8 JUMP JUMPDEST SWAP1 POP PUSH2 0x823 PUSH1 0x6 SLOAD DUP3 PUSH2 0xE2E SWAP1 SWAP2 SWAP1 PUSH4 0xFFFFFFFF AND JUMP JUMPDEST PUSH1 0x5 SLOAD GT ISZERO PUSH2 0x874 JUMPI PUSH1 0x40 MLOAD PUSH3 0x461BCD PUSH1 0xE5 SHL DUP2 MSTORE PUSH1 0x20 PUSH1 0x4 DUP3 ADD MSTORE PUSH1 0x18 PUSH1 0x24 DUP3 ADD MSTORE PUSH32 0x50726F76696465642072657761726420746F6F20686967680000000000000000 PUSH1 0x44 DUP3 ADD MSTORE PUSH1 0x64 ADD PUSH2 0x5D4 JUMP JUMPDEST TIMESTAMP PUSH1 0x7 DUP2 SWAP1 SSTORE PUSH1 0x6 SLOAD PUSH2 0x887 SWAP2 SWAP1 PUSH2 0xE3A JUMP JUMPDEST PUSH1 0x4 SSTORE PUSH1 0x40 MLOAD DUP4 DUP2 MSTORE PUSH32 0xDE88A922E0D3B88B24E9623EFEB464919C6BF9F66857A65E2BFCF2CE87A9433D SWAP1 PUSH1 0x20 ADD PUSH1 0x40 MLOAD DUP1 SWAP2 SUB SWAP1 LOG1 POP POP POP JUMP JUMPDEST PUSH2 0x8CA PUSH2 0xEA0 JUMP JUMPDEST CALLER PUSH2 0x8D3 PUSH2 0xD2D JUMP JUMPDEST PUSH1 0x8 SSTORE PUSH2 0x8DE PUSH2 0x9BA JUMP JUMPDEST PUSH1 0x7 SSTORE PUSH1 0x1 PUSH1 0x1 PUSH1 0xA0 SHL SUB DUP2 AND ISZERO PUSH2 0x925 JUMPI PUSH2 0x8F9 DUP2 PUSH2 0x3F4 JUMP JUMPDEST PUSH1 0x1 PUSH1 0x1 PUSH1 0xA0 SHL SUB DUP3 AND PUSH1 0x0 SWAP1 DUP2 MSTORE PUSH1 0xB PUSH1 0x20 SWAP1 DUP2 MSTORE PUSH1 0x40 DUP1 DUP4 KECCAK256 SWAP4 SWAP1 SWAP4 SSTORE PUSH1 0x8 SLOAD PUSH1 0xA SWAP1 SWAP2 MSTORE SWAP2 SWAP1 KECCAK256 SSTORE JUMPDEST CALLER PUSH1 0x0 SWAP1 DUP2 MSTORE PUSH1 0xB PUSH1 0x20 MSTORE PUSH1 0x40 SWAP1 KECCAK256 SLOAD DUP1 ISZERO PUSH2 0x99A JUMPI CALLER PUSH1 0x0 DUP2 DUP2 MSTORE PUSH1 0xB PUSH1 0x20 MSTORE PUSH1 0x40 DUP2 KECCAK256 SSTORE PUSH1 0x2 SLOAD PUSH2 0x964 SWAP2 PUSH1 0x1 PUSH1 0x1 PUSH1 0xA0 SHL SUB SWAP1 SWAP2 AND SWAP1 DUP4 PUSH2 0xEF9 JUMP JUMPDEST PUSH1 0x40 MLOAD DUP2 DUP2 MSTORE CALLER SWAP1 PUSH32 0xE2403640BA68FED3A2F88B7557551D1993F84B99BB10FF833F0CF8DB0C5E0486 SWAP1 PUSH1 0x20 ADD PUSH1 0x40 MLOAD DUP1 SWAP2 SUB SWAP1 LOG2 JUMPDEST POP POP PUSH2 0x9A6 PUSH1 0x1 PUSH1 0x0 SSTORE JUMP JUMPDEST JUMP JUMPDEST PUSH2 0x9B0 PUSH2 0xE46 JUMP JUMPDEST PUSH2 0x9A6 PUSH1 0x0 PUSH2 0xF61 JUMP JUMPDEST PUSH1 0x0 PUSH1 0x4 SLOAD TIMESTAMP LT PUSH2 0x9CC JUMPI POP PUSH1 0x4 SLOAD SWAP1 JUMP JUMPDEST POP TIMESTAMP SWAP1 JUMP JUMPDEST PUSH2 0x9D9 PUSH2 0xE46 JUMP JUMPDEST PUSH1 0x3 SLOAD PUSH1 0x1 PUSH1 0x1 PUSH1 0xA0 SHL SUB SWAP1 DUP2 AND SWAP1 DUP4 AND SUB PUSH2 0xA41 JUMPI PUSH1 0x40 MLOAD PUSH3 0x461BCD PUSH1 0xE5 SHL DUP2 MSTORE PUSH1 0x20 PUSH1 0x4 DUP3 ADD MSTORE PUSH1 0x21 PUSH1 0x24 DUP3 ADD MSTORE PUSH32 0x43616E6E6F7420776974686472617720746865207374616B696E6720746F6B65 PUSH1 0x44 DUP3 ADD MSTORE PUSH1 0x37 PUSH1 0xF9 SHL PUSH1 0x64 DUP3 ADD MSTORE PUSH1 0x84 ADD PUSH2 0x5D4 JUMP JUMPDEST PUSH2 0xA67 PUSH2 0xA56 PUSH1 0x1 SLOAD PUSH1 0x1 PUSH1 0x1 PUSH1 0xA0 SHL SUB AND SWAP1 JUMP JUMPDEST PUSH1 0x1 PUSH1 0x1 PUSH1 0xA0 SHL SUB DUP5 AND SWAP1 DUP4 PUSH2 0xEF9 JUMP JUMPDEST PUSH1 0x40 DUP1 MLOAD PUSH1 0x1 PUSH1 0x1 PUSH1 0xA0 SHL SUB DUP5 AND DUP2 MSTORE PUSH1 0x20 DUP2 ADD DUP4 SWAP1 MSTORE PUSH32 0x8C1256B8896378CD5044F80C202F9772B9D77DC85C8A6EB51967210B09BFAA28 SWAP2 ADD PUSH1 0x40 MLOAD DUP1 SWAP2 SUB SWAP1 LOG1 POP POP JUMP JUMPDEST PUSH2 0xAB5 PUSH2 0xEA0 JUMP JUMPDEST PUSH1 0xF SLOAD PUSH1 0xFF AND ISZERO PUSH2 0xB2E JUMPI PUSH1 0x40 MLOAD PUSH3 0x461BCD PUSH1 0xE5 SHL DUP2 MSTORE PUSH1 0x20 PUSH1 0x4 DUP3 ADD MSTORE PUSH1 0x3C PUSH1 0x24 DUP3 ADD MSTORE PUSH32 0x5468697320616374696F6E2063616E6E6F7420626520706572666F726D656420 PUSH1 0x44 DUP3 ADD MSTORE PUSH32 0x7768696C652074686520636F6E74726163742069732070617573656400000000 PUSH1 0x64 DUP3 ADD MSTORE PUSH1 0x84 ADD PUSH2 0x5D4 JUMP JUMPDEST CALLER PUSH2 0xB37 PUSH2 0xD2D JUMP JUMPDEST PUSH1 0x8 SSTORE PUSH2 0xB42 PUSH2 0x9BA JUMP JUMPDEST PUSH1 0x7 SSTORE PUSH1 0x1 PUSH1 0x1 PUSH1 0xA0 SHL SUB DUP2 AND ISZERO PUSH2 0xB89 JUMPI PUSH2 0xB5D DUP2 PUSH2 0x3F4 JUMP JUMPDEST PUSH1 0x1 PUSH1 0x1 PUSH1 0xA0 SHL SUB DUP3 AND PUSH1 0x0 SWAP1 DUP2 MSTORE PUSH1 0xB PUSH1 0x20 SWAP1 DUP2 MSTORE PUSH1 0x40 DUP1 DUP4 KECCAK256 SWAP4 SWAP1 SWAP4 SSTORE PUSH1 0x8 SLOAD PUSH1 0xA SWAP1 SWAP2 MSTORE SWAP2 SWAP1 KECCAK256 SSTORE JUMPDEST PUSH1 0x0 DUP3 GT PUSH2 0xBCA JUMPI PUSH1 0x40 MLOAD PUSH3 0x461BCD PUSH1 0xE5 SHL DUP2 MSTORE PUSH1 0x20 PUSH1 0x4 DUP3 ADD MSTORE PUSH1 0xE PUSH1 0x24 DUP3 ADD MSTORE PUSH14 0x43616E6E6F74207374616B65203 PUSH1 0x94 SHL PUSH1 0x44 DUP3 ADD MSTORE PUSH1 0x64 ADD PUSH2 0x5D4 JUMP JUMPDEST PUSH1 0xC SLOAD PUSH2 0xBD7 SWAP1 DUP4 PUSH2 0xE3A JUMP JUMPDEST PUSH1 0xC SSTORE CALLER PUSH1 0x0 SWAP1 DUP2 MSTORE PUSH1 0xD PUSH1 0x20 MSTORE PUSH1 0x40 SWAP1 KECCAK256 SLOAD PUSH2 0xBF4 SWAP1 DUP4 PUSH2 0xE3A JUMP JUMPDEST CALLER PUSH1 0x0 DUP2 DUP2 MSTORE PUSH1 0xD PUSH1 0x20 MSTORE PUSH1 0x40 SWAP1 KECCAK256 SWAP2 SWAP1 SWAP2 SSTORE PUSH1 0x3 SLOAD PUSH2 0xC21 SWAP2 PUSH1 0x1 PUSH1 0x1 PUSH1 0xA0 SHL SUB SWAP1 SWAP2 AND SWAP1 ADDRESS DUP6 PUSH2 0xFB3 JUMP JUMPDEST PUSH1 0x40 MLOAD DUP3 DUP2 MSTORE CALLER SWAP1 PUSH32 0x9E71BC8EEA02A63969F509818F2DAFB9254532904319F9DBDA79B67BD34A5F3D SWAP1 PUSH1 0x20 ADD PUSH2 0x661 JUMP JUMPDEST PUSH2 0xC5B PUSH2 0xE46 JUMP JUMPDEST PUSH1 0x4 SLOAD TIMESTAMP GT PUSH2 0xCF8 JUMPI PUSH1 0x40 MLOAD PUSH3 0x461BCD PUSH1 0xE5 SHL DUP2 MSTORE PUSH1 0x20 PUSH1 0x4 DUP3 ADD MSTORE PUSH1 0x58 PUSH1 0x24 DUP3 ADD MSTORE PUSH32 0x50726576696F7573207265776172647320706572696F64206D75737420626520 PUSH1 0x44 DUP3 ADD MSTORE PUSH32 0x636F6D706C657465206265666F7265206368616E67696E672074686520647572 PUSH1 0x64 DUP3 ADD MSTORE PUSH32 0x6174696F6E20666F7220746865206E657720706572696F640000000000000000 PUSH1 0x84 DUP3 ADD MSTORE PUSH1 0xA4 ADD PUSH2 0x5D4 JUMP JUMPDEST PUSH1 0x6 DUP2 SWAP1 SSTORE PUSH1 0x40 MLOAD DUP2 DUP2 MSTORE PUSH32 0xFB46CA5A5E06D4540D6387B930A7C978BCE0DB5F449EC6B3F5D07C6E1D44F2D3 SWAP1 PUSH1 0x20 ADD PUSH2 0x4DD JUMP JUMPDEST PUSH1 0x0 PUSH1 0xC SLOAD PUSH1 0x0 SUB PUSH2 0xD40 JUMPI POP PUSH1 0x8 SLOAD SWAP1 JUMP JUMPDEST PUSH2 0x52C PUSH2 0xD6F PUSH1 0xC SLOAD PUSH2 0x460 PUSH8 0xDE0B6B3A7640000 PUSH2 0xD69 PUSH1 0x5 SLOAD PUSH2 0xD69 PUSH1 0x7 SLOAD PUSH2 0x43B PUSH2 0x9BA JUMP JUMPDEST SWAP1 PUSH2 0xE22 JUMP JUMPDEST PUSH1 0x8 SLOAD SWAP1 PUSH2 0xE3A JUMP JUMPDEST CALLER PUSH1 0x0 SWAP1 DUP2 MSTORE PUSH1 0xD PUSH1 0x20 MSTORE PUSH1 0x40 SWAP1 KECCAK256 SLOAD PUSH2 0xD91 SWAP1 PUSH2 0x531 JUMP JUMPDEST PUSH2 0x9A6 PUSH2 0x8C2 JUMP JUMPDEST PUSH2 0xDA1 PUSH2 0xE46 JUMP JUMPDEST PUSH1 0x1 PUSH1 0x1 PUSH1 0xA0 SHL SUB DUP2 AND PUSH2 0xE06 JUMPI PUSH1 0x40 MLOAD PUSH3 0x461BCD PUSH1 0xE5 SHL DUP2 MSTORE PUSH1 0x20 PUSH1 0x4 DUP3 ADD MSTORE PUSH1 0x26 PUSH1 0x24 DUP3 ADD MSTORE PUSH32 0x4F776E61626C653A206E6577206F776E657220697320746865207A65726F2061 PUSH1 0x44 DUP3 ADD MSTORE PUSH6 0x646472657373 PUSH1 0xD0 SHL PUSH1 0x64 DUP3 ADD MSTORE PUSH1 0x84 ADD PUSH2 0x5D4 JUMP JUMPDEST PUSH2 0x4E6 DUP2 PUSH2 0xF61 JUMP JUMPDEST PUSH1 0x0 PUSH2 0xE1B DUP3 DUP5 PUSH2 0x1327 JUMP JUMPDEST SWAP4 SWAP3 POP POP POP JUMP JUMPDEST PUSH1 0x0 PUSH2 0xE1B DUP3 DUP5 PUSH2 0x133A JUMP JUMPDEST PUSH1 0x0 PUSH2 0xE1B DUP3 DUP5 PUSH2 0x1351 JUMP JUMPDEST PUSH1 0x0 PUSH2 0xE1B DUP3 DUP5 PUSH2 0x1373 JUMP JUMPDEST PUSH1 0x1 SLOAD PUSH1 0x1 PUSH1 0x1 PUSH1 0xA0 SHL SUB AND CALLER EQ PUSH2 0x9A6 JUMPI PUSH1 0x40 MLOAD PUSH3 0x461BCD PUSH1 0xE5 SHL DUP2 MSTORE PUSH1 0x20 PUSH1 0x4 DUP3 ADD DUP2 SWAP1 MSTORE PUSH1 0x24 DUP3 ADD MSTORE PUSH32 0x4F776E61626C653A2063616C6C6572206973206E6F7420746865206F776E6572 PUSH1 0x44 DUP3 ADD MSTORE PUSH1 0x64 ADD PUSH2 0x5D4 JUMP JUMPDEST PUSH1 0x2 PUSH1 0x0 SLOAD SUB PUSH2 0xEF2 JUMPI PUSH1 0x40 MLOAD PUSH3 0x461BCD PUSH1 0xE5 SHL DUP2 MSTORE PUSH1 0x20 PUSH1 0x4 DUP3 ADD MSTORE PUSH1 0x1F PUSH1 0x24 DUP3 ADD MSTORE PUSH32 0x5265656E7472616E637947756172643A207265656E7472616E742063616C6C00 PUSH1 0x44 DUP3 ADD MSTORE PUSH1 0x64 ADD PUSH2 0x5D4 JUMP JUMPDEST PUSH1 0x2 PUSH1 0x0 SSTORE JUMP JUMPDEST PUSH1 0x40 MLOAD PUSH1 0x1 PUSH1 0x1 PUSH1 0xA0 SHL SUB DUP4 AND PUSH1 0x24 DUP3 ADD MSTORE PUSH1 0x44 DUP2 ADD DUP3 SWAP1 MSTORE PUSH2 0xF5C SWAP1 DUP5 SWAP1 PUSH4 0xA9059CBB PUSH1 0xE0 SHL SWAP1 PUSH1 0x64 ADD JUMPDEST PUSH1 0x40 DUP1 MLOAD PUSH1 0x1F NOT DUP2 DUP5 SUB ADD DUP2 MSTORE SWAP2 SWAP1 MSTORE PUSH1 0x20 DUP2 ADD DUP1 MLOAD PUSH1 0x1 PUSH1 0x1 PUSH1 0xE0 SHL SUB AND PUSH1 0x1 PUSH1 0x1 PUSH1 0xE0 SHL SUB NOT SWAP1 SWAP4 AND SWAP3 SWAP1 SWAP3 OR SWAP1 SWAP2 MSTORE PUSH2 0xFF1 JUMP JUMPDEST POP POP POP JUMP JUMPDEST PUSH1 0x1 DUP1 SLOAD PUSH1 0x1 PUSH1 0x1 PUSH1 0xA0 SHL SUB DUP4 DUP2 AND PUSH1 0x1 PUSH1 0x1 PUSH1 0xA0 SHL SUB NOT DUP4 AND DUP2 OR SWAP1 SWAP4 SSTORE PUSH1 0x40 MLOAD SWAP2 AND SWAP2 SWAP1 DUP3 SWAP1 PUSH32 0x8BE0079C531659141344CD1FD0A4F28419497F9722A3DAAFE3B4186F6B6457E0 SWAP1 PUSH1 0x0 SWAP1 LOG3 POP POP JUMP JUMPDEST PUSH1 0x40 MLOAD PUSH1 0x1 PUSH1 0x1 PUSH1 0xA0 SHL SUB DUP1 DUP6 AND PUSH1 0x24 DUP4 ADD MSTORE DUP4 AND PUSH1 0x44 DUP3 ADD MSTORE PUSH1 0x64 DUP2 ADD DUP3 SWAP1 MSTORE PUSH2 0xFEB SWAP1 DUP6 SWAP1 PUSH4 0x23B872DD PUSH1 0xE0 SHL SWAP1 PUSH1 0x84 ADD PUSH2 0xF25 JUMP JUMPDEST POP POP POP POP JUMP JUMPDEST PUSH1 0x0 PUSH2 0x1046 DUP3 PUSH1 0x40 MLOAD DUP1 PUSH1 0x40 ADD PUSH1 0x40 MSTORE DUP1 PUSH1 0x20 DUP2 MSTORE PUSH1 0x20 ADD PUSH32 0x5361666545524332303A206C6F772D6C6576656C2063616C6C206661696C6564 DUP2 MSTORE POP DUP6 PUSH1 0x1 PUSH1 0x1 PUSH1 0xA0 SHL SUB AND PUSH2 0x10C3 SWAP1 SWAP3 SWAP2 SWAP1 PUSH4 0xFFFFFFFF AND JUMP JUMPDEST DUP1 MLOAD SWAP1 SWAP2 POP ISZERO PUSH2 0xF5C JUMPI DUP1 DUP1 PUSH1 0x20 ADD SWAP1 MLOAD DUP2 ADD SWAP1 PUSH2 0x1064 SWAP2 SWAP1 PUSH2 0x1386 JUMP JUMPDEST PUSH2 0xF5C JUMPI PUSH1 0x40 MLOAD PUSH3 0x461BCD PUSH1 0xE5 SHL DUP2 MSTORE PUSH1 0x20 PUSH1 0x4 DUP3 ADD MSTORE PUSH1 0x2A PUSH1 0x24 DUP3 ADD MSTORE PUSH32 0x5361666545524332303A204552433230206F7065726174696F6E20646964206E PUSH1 0x44 DUP3 ADD MSTORE PUSH10 0x1BDD081CDD58D8D95959 PUSH1 0xB2 SHL PUSH1 0x64 DUP3 ADD MSTORE PUSH1 0x84 ADD PUSH2 0x5D4 JUMP JUMPDEST PUSH1 0x60 PUSH2 0x10D2 DUP5 DUP5 PUSH1 0x0 DUP6 PUSH2 0x10DA JUMP JUMPDEST SWAP5 SWAP4 POP POP POP POP JUMP JUMPDEST PUSH1 0x60 DUP3 SELFBALANCE LT ISZERO PUSH2 0x113B JUMPI PUSH1 0x40 MLOAD PUSH3 0x461BCD PUSH1 0xE5 SHL DUP2 MSTORE PUSH1 0x20 PUSH1 0x4 DUP3 ADD MSTORE PUSH1 0x26 PUSH1 0x24 DUP3 ADD MSTORE PUSH32 0x416464726573733A20696E73756666696369656E742062616C616E636520666F PUSH1 0x44 DUP3 ADD MSTORE PUSH6 0x1C8818D85B1B PUSH1 0xD2 SHL PUSH1 0x64 DUP3 ADD MSTORE PUSH1 0x84 ADD PUSH2 0x5D4 JUMP JUMPDEST PUSH1 0x0 DUP1 DUP7 PUSH1 0x1 PUSH1 0x1 PUSH1 0xA0 SHL SUB AND DUP6 DUP8 PUSH1 0x40 MLOAD PUSH2 0x1157 SWAP2 SWAP1 PUSH2 0x13C7 JUMP JUMPDEST PUSH1 0x0 PUSH1 0x40 MLOAD DUP1 DUP4 SUB DUP2 DUP6 DUP8 GAS CALL SWAP3 POP POP POP RETURNDATASIZE DUP1 PUSH1 0x0 DUP2 EQ PUSH2 0x1194 JUMPI PUSH1 0x40 MLOAD SWAP2 POP PUSH1 0x1F NOT PUSH1 0x3F RETURNDATASIZE ADD AND DUP3 ADD PUSH1 0x40 MSTORE RETURNDATASIZE DUP3 MSTORE RETURNDATASIZE PUSH1 0x0 PUSH1 0x20 DUP5 ADD RETURNDATACOPY PUSH2 0x1199 JUMP JUMPDEST PUSH1 0x60 SWAP2 POP JUMPDEST POP SWAP2 POP SWAP2 POP PUSH2 0x11AA DUP8 DUP4 DUP4 DUP8 PUSH2 0x11B5 JUMP JUMPDEST SWAP8 SWAP7 POP POP POP POP POP POP POP JUMP JUMPDEST PUSH1 0x60 DUP4 ISZERO PUSH2 0x1224 JUMPI DUP3 MLOAD PUSH1 0x0 SUB PUSH2 0x121D JUMPI PUSH1 0x1 PUSH1 0x1 PUSH1 0xA0 SHL SUB DUP6 AND EXTCODESIZE PUSH2 0x121D JUMPI PUSH1 0x40 MLOAD PUSH3 0x461BCD PUSH1 0xE5 SHL DUP2 MSTORE PUSH1 0x20 PUSH1 0x4 DUP3 ADD MSTORE PUSH1 0x1D PUSH1 0x24 DUP3 ADD MSTORE PUSH32 0x416464726573733A2063616C6C20746F206E6F6E2D636F6E7472616374000000 PUSH1 0x44 DUP3 ADD MSTORE PUSH1 0x64 ADD PUSH2 0x5D4 JUMP JUMPDEST POP DUP2 PUSH2 0x10D2 JUMP JUMPDEST PUSH2 0x10D2 DUP4 DUP4 DUP2 MLOAD ISZERO PUSH2 0x1239 JUMPI DUP2 MLOAD DUP1 DUP4 PUSH1 0x20 ADD REVERT JUMPDEST DUP1 PUSH1 0x40 MLOAD PUSH3 0x461BCD PUSH1 0xE5 SHL DUP2 MSTORE PUSH1 0x4 ADD PUSH2 0x5D4 SWAP2 SWAP1 PUSH2 0x13E3 JUMP JUMPDEST DUP1 CALLDATALOAD PUSH1 0x1 PUSH1 0x1 PUSH1 0xA0 SHL SUB DUP2 AND DUP2 EQ PUSH2 0x126A JUMPI PUSH1 0x0 DUP1 REVERT JUMPDEST SWAP2 SWAP1 POP JUMP JUMPDEST PUSH1 0x0 PUSH1 0x20 DUP3 DUP5 SUB SLT ISZERO PUSH2 0x1281 JUMPI PUSH1 0x0 DUP1 REVERT JUMPDEST PUSH2 0xE1B DUP3 PUSH2 0x1253 JUMP JUMPDEST DUP1 ISZERO ISZERO DUP2 EQ PUSH2 0x4E6 JUMPI PUSH1 0x0 DUP1 REVERT JUMPDEST PUSH1 0x0 PUSH1 0x20 DUP3 DUP5 SUB SLT ISZERO PUSH2 0x12AA JUMPI PUSH1 0x0 DUP1 REVERT JUMPDEST DUP2 CALLDATALOAD PUSH2 0xE1B DUP2 PUSH2 0x128A JUMP JUMPDEST PUSH1 0x0 PUSH1 0x20 DUP3 DUP5 SUB SLT ISZERO PUSH2 0x12C7 JUMPI PUSH1 0x0 DUP1 REVERT JUMPDEST POP CALLDATALOAD SWAP2 SWAP1 POP JUMP JUMPDEST PUSH1 0x0 DUP1 PUSH1 0x40 DUP4 DUP6 SUB SLT ISZERO PUSH2 0x12E1 JUMPI PUSH1 0x0 DUP1 REVERT JUMPDEST PUSH2 0x12EA DUP4 PUSH2 0x1253 JUMP JUMPDEST SWAP5 PUSH1 0x20 SWAP4 SWAP1 SWAP4 ADD CALLDATALOAD SWAP4 POP POP POP JUMP JUMPDEST PUSH1 0x0 PUSH1 0x20 DUP3 DUP5 SUB SLT ISZERO PUSH2 0x130A JUMPI PUSH1 0x0 DUP1 REVERT JUMPDEST POP MLOAD SWAP2 SWAP1 POP JUMP JUMPDEST PUSH4 0x4E487B71 PUSH1 0xE0 SHL PUSH1 0x0 MSTORE PUSH1 0x11 PUSH1 0x4 MSTORE PUSH1 0x24 PUSH1 0x0 REVERT JUMPDEST DUP2 DUP2 SUB DUP2 DUP2 GT ISZERO PUSH2 0x46C JUMPI PUSH2 0x46C PUSH2 0x1311 JUMP JUMPDEST DUP1 DUP3 MUL DUP2 ISZERO DUP3 DUP3 DIV DUP5 EQ OR PUSH2 0x46C JUMPI PUSH2 0x46C PUSH2 0x1311 JUMP JUMPDEST PUSH1 0x0 DUP3 PUSH2 0x136E JUMPI PUSH4 0x4E487B71 PUSH1 0xE0 SHL PUSH1 0x0 MSTORE PUSH1 0x12 PUSH1 0x4 MSTORE PUSH1 0x24 PUSH1 0x0 REVERT JUMPDEST POP DIV SWAP1 JUMP JUMPDEST DUP1 DUP3 ADD DUP1 DUP3 GT ISZERO PUSH2 0x46C JUMPI PUSH2 0x46C PUSH2 0x1311 JUMP JUMPDEST PUSH1 0x0 PUSH1 0x20 DUP3 DUP5 SUB SLT ISZERO PUSH2 0x1398 JUMPI PUSH1 0x0 DUP1 REVERT JUMPDEST DUP2 MLOAD PUSH2 0xE1B DUP2 PUSH2 0x128A JUMP JUMPDEST PUSH1 0x0 JUMPDEST DUP4 DUP2 LT ISZERO PUSH2 0x13BE JUMPI DUP2 DUP2 ADD MLOAD DUP4 DUP3 ADD MSTORE PUSH1 0x20 ADD PUSH2 0x13A6 JUMP JUMPDEST POP POP PUSH1 0x0 SWAP2 ADD MSTORE JUMP JUMPDEST PUSH1 0x0 DUP3 MLOAD PUSH2 0x13D9 DUP2 DUP5 PUSH1 0x20 DUP8 ADD PUSH2 0x13A3 JUMP JUMPDEST SWAP2 SWAP1 SWAP2 ADD SWAP3 SWAP2 POP POP JUMP JUMPDEST PUSH1 0x20 DUP2 MSTORE PUSH1 0x0 DUP3 MLOAD DUP1 PUSH1 0x20 DUP5 ADD MSTORE PUSH2 0x1402 DUP2 PUSH1 0x40 DUP6 ADD PUSH1 0x20 DUP8 ADD PUSH2 0x13A3 JUMP JUMPDEST PUSH1 0x1F ADD PUSH1 0x1F NOT AND SWAP2 SWAP1 SWAP2 ADD PUSH1 0x40 ADD SWAP3 SWAP2 POP POP JUMP INVALID LOG2 PUSH5 0x6970667358 0x22 SLT KECCAK256 0xCC EXTCODECOPY PREVRANDAO DUP7 CALL 0x5C DUP5 RETURNDATASIZE 0xD1 0xB7 0xB7 0xCB 0x49 LT 0xC5 PUSH10 0x2CA750D9A3F4D871A7BC 0xD9 DUP2 GASLIMIT CALLVALUE PUSH20 0x7164736F6C634300081200330000000000000000 "
		},
		"gasEstimates": {
			"creation": {
				"codeDepositCost": "1039200",
				"executionCost": "infinite",
				"totalCost": "infinite"
			},
			"external": {
				"balanceOf(address)": "2593",
				"earned(address)": "infinite",
				"exit()": "infinite",
				"getReward()": "infinite",
				"getRewardForDuration()": "infinite",
				"lastPauseTime()": "2373",
				"lastTimeRewardApplicable()": "4490",
				"lastUpdateTime()": "2329",
				"notifyRewardAmount(uint256)": "infinite",
				"owner()": "2398",
				"paused()": "2355",
				"periodFinish()": "2372",
				"recoverERC20(address,uint256)": "infinite",
				"renounceOwnership()": "infinite",
				"rewardPerToken()": "infinite",
				"rewardPerTokenStored()": "2328",
				"rewardRate()": "2330",
				"rewards(address)": "2577",
				"rewardsDistribution()": "2449",
				"rewardsDuration()": "2330",
				"rewardsToken()": "2448",
				"setPaused(bool)": "infinite",
				"setRewardsDistribution(address)": "26803",
				"setRewardsDuration(uint256)": "27755",
				"stake(uint256)": "infinite",
				"stakingToken()": "2448",
				"totalSupply()": "2327",
				"transferOwnership(address)": "28446",
				"userRewardPerTokenPaid(address)": "2553",
				"withdraw(uint256)": "infinite"
			}
		},
		"methodIdentifiers": {
			"balanceOf(address)": "70a08231",
			"earned(address)": "008cc262",
			"exit()": "e9fad8ee",
			"getReward()": "3d18b912",
			"getRewardForDuration()": "1c1f78eb",
			"lastPauseTime()": "91b4ded9",
			"lastTimeRewardApplicable()": "80faa57d",
			"lastUpdateTime()": "c8f33c91",
			"notifyRewardAmount(uint256)": "3c6b16ab",
			"owner()": "8da5cb5b",
			"paused()": "5c975abb",
			"periodFinish()": "ebe2b12b",
			"recoverERC20(address,uint256)": "8980f11f",
			"renounceOwnership()": "715018a6",
			"rewardPerToken()": "cd3daf9d",
			"rewardPerTokenStored()": "df136d65",
			"rewardRate()": "7b0a47ee",
			"rewards(address)": "0700037d",
			"rewardsDistribution()": "3fc6df6e",
			"rewardsDuration()": "386a9525",
			"rewardsToken()": "d1af0c7d",
			"setPaused(bool)": "16c38b3c",
			"setRewardsDistribution(address)": "19762143",
			"setRewardsDuration(uint256)": "cc1a378f",
			"stake(uint256)": "a694fc3a",
			"stakingToken()": "72f702f3",
			"totalSupply()": "18160ddd",
			"transferOwnership(address)": "f2fde38b",
			"userRewardPerTokenPaid(address)": "8b876347",
			"withdraw(uint256)": "2e1a7d4d"
		}
	},
	"abi": [
		{
			"inputs": [
				{
					"internalType": "address",
					"name": "_rewardsDistribution",
					"type": "address"
				},
				{
					"internalType": "address",
					"name": "_rewardsToken",
					"type": "address"
				},
				{
					"internalType": "address",
					"name": "_stakingToken",
					"type": "address"
				}
			],
			"stateMutability": "nonpayable",
			"type": "constructor"
		},
		{
			"anonymous": false,
			"inputs": [
				{
					"indexed": true,
					"internalType": "address",
					"name": "previousOwner",
					"type": "address"
				},
				{
					"indexed": true,
					"internalType": "address",
					"name": "newOwner",
					"type": "address"
				}
			],
			"name": "OwnershipTransferred",
			"type": "event"
		},
		{
			"anonymous": false,
			"inputs": [
				{
					"indexed": false,
					"internalType": "bool",
					"name": "isPaused",
					"type": "bool"
				}
			],
			"name": "PauseChanged",
			"type": "event"
		},
		{
			"anonymous": false,
			"inputs": [
				{
					"indexed": false,
					"internalType": "address",
					"name": "token",
					"type": "address"
				},
				{
					"indexed": false,
					"internalType": "uint256",
					"name": "amount",
					"type": "uint256"
				}
			],
			"name": "Recovered",
			"type": "event"
		},
		{
			"anonymous": false,
			"inputs": [
				{
					"indexed": false,
					"internalType": "uint256",
					"name": "reward",
					"type": "uint256"
				}
			],
			"name": "RewardAdded",
			"type": "event"
		},
		{
			"anonymous": false,
			"inputs": [
				{
					"indexed": true,
					"internalType": "address",
					"name": "user",
					"type": "address"
				},
				{
					"indexed": false,
					"internalType": "uint256",
					"name": "reward",
					"type": "uint256"
				}
			],
			"name": "RewardPaid",
			"type": "event"
		},
		{
			"anonymous": false,
			"inputs": [
				{
					"indexed": false,
					"internalType": "uint256",
					"name": "newDuration",
					"type": "uint256"
				}
			],
			"name": "RewardsDurationUpdated",
			"type": "event"
		},
		{
			"anonymous": false,
			"inputs": [
				{
					"indexed": true,
					"internalType": "address",
					"name": "user",
					"type": "address"
				},
				{
					"indexed": false,
					"internalType": "uint256",
					"name": "amount",
					"type": "uint256"
				}
			],
			"name": "Staked",
			"type": "event"
		},
		{
			"anonymous": false,
			"inputs": [
				{
					"indexed": true,
					"internalType": "address",
					"name": "user",
					"type": "address"
				},
				{
					"indexed": false,
					"internalType": "uint256",
					"name": "amount",
					"type": "uint256"
				}
			],
			"name": "Withdrawn",
			"type": "event"
		},
		{
			"inputs": [
				{
					"internalType": "address",
					"name": "account",
					"type": "address"
				}
			],
			"name": "balanceOf",
			"outputs": [
				{
					"internalType": "uint256",
					"name": "",
					"type": "uint256"
				}
			],
			"stateMutability": "view",
			"type": "function"
		},
		{
			"inputs": [
				{
					"internalType": "address",
					"name": "account",
					"type": "address"
				}
			],
			"name": "earned",
			"outputs": [
				{
					"internalType": "uint256",
					"name": "",
					"type": "uint256"
				}
			],
			"stateMutability": "view",
			"type": "function"
		},
		{
			"inputs": [],
			"name": "exit",
			"outputs": [],
			"stateMutability": "nonpayable",
			"type": "function"
		},
		{
			"inputs": [],
			"name": "getReward",
			"outputs": [],
			"stateMutability": "nonpayable",
			"type": "function"
		},
		{
			"inputs": [],
			"name": "getRewardForDuration",
			"outputs": [
				{
					"internalType": "uint256",
					"name": "",
					"type": "uint256"
				}
			],
			"stateMutability": "view",
			"type": "function"
		},
		{
			"inputs": [],
			"name": "lastPauseTime",
			"outputs": [
				{
					"internalType": "uint256",
					"name": "",
					"type": "uint256"
				}
			],
			"stateMutability": "view",
			"type": "function"
		},
		{
			"inputs": [],
			"name": "lastTimeRewardApplicable",
			"outputs": [
				{
					"internalType": "uint256",
					"name": "",
					"type": "uint256"
				}
			],
			"stateMutability": "view",
			"type": "function"
		},
		{
			"inputs": [],
			"name": "lastUpdateTime",
			"outputs": [
				{
					"internalType": "uint256",
					"name": "",
					"type": "uint256"
				}
			],
			"stateMutability": "view",
			"type": "function"
		},
		{
			"inputs": [
				{
					"internalType": "uint256",
					"name": "reward",
					"type": "uint256"
				}
			],
			"name": "notifyRewardAmount",
			"outputs": [],
			"stateMutability": "nonpayable",
			"type": "function"
		},
		{
			"inputs": [],
			"name": "owner",
			"outputs": [
				{
					"internalType": "address",
					"name": "",
					"type": "address"
				}
			],
			"stateMutability": "view",
			"type": "function"
		},
		{
			"inputs": [],
			"name": "paused",
			"outputs": [
				{
					"internalType": "bool",
					"name": "",
					"type": "bool"
				}
			],
			"stateMutability": "view",
			"type": "function"
		},
		{
			"inputs": [],
			"name": "periodFinish",
			"outputs": [
				{
					"internalType": "uint256",
					"name": "",
					"type": "uint256"
				}
			],
			"stateMutability": "view",
			"type": "function"
		},
		{
			"inputs": [
				{
					"internalType": "address",
					"name": "tokenAddress",
					"type": "address"
				},
				{
					"internalType": "uint256",
					"name": "tokenAmount",
					"type": "uint256"
				}
			],
			"name": "recoverERC20",
			"outputs": [],
			"stateMutability": "nonpayable",
			"type": "function"
		},
		{
			"inputs": [],
			"name": "renounceOwnership",
			"outputs": [],
			"stateMutability": "nonpayable",
			"type": "function"
		},
		{
			"inputs": [],
			"name": "rewardPerToken",
			"outputs": [
				{
					"internalType": "uint256",
					"name": "",
					"type": "uint256"
				}
			],
			"stateMutability": "view",
			"type": "function"
		},
		{
			"inputs": [],
			"name": "rewardPerTokenStored",
			"outputs": [
				{
					"internalType": "uint256",
					"name": "",
					"type": "uint256"
				}
			],
			"stateMutability": "view",
			"type": "function"
		},
		{
			"inputs": [],
			"name": "rewardRate",
			"outputs": [
				{
					"internalType": "uint256",
					"name": "",
					"type": "uint256"
				}
			],
			"stateMutability": "view",
			"type": "function"
		},
		{
			"inputs": [
				{
					"internalType": "address",
					"name": "",
					"type": "address"
				}
			],
			"name": "rewards",
			"outputs": [
				{
					"internalType": "uint256",
					"name": "",
					"type": "uint256"
				}
			],
			"stateMutability": "view",
			"type": "function"
		},
		{
			"inputs": [],
			"name": "rewardsDistribution",
			"outputs": [
				{
					"internalType": "address",
					"name": "",
					"type": "address"
				}
			],
			"stateMutability": "view",
			"type": "function"
		},
		{
			"inputs": [],
			"name": "rewardsDuration",
			"outputs": [
				{
					"internalType": "uint256",
					"name": "",
					"type": "uint256"
				}
			],
			"stateMutability": "view",
			"type": "function"
		},
		{
			"inputs": [],
			"name": "rewardsToken",
			"outputs": [
				{
					"internalType": "address",
					"name": "",
					"type": "address"
				}
			],
			"stateMutability": "view",
			"type": "function"
		},
		{
			"inputs": [
				{
					"internalType": "bool",
					"name": "_paused",
					"type": "bool"
				}
			],
			"name": "setPaused",
			"outputs": [],
			"stateMutability": "nonpayable",
			"type": "function"
		},
		{
			"inputs": [
				{
					"internalType": "address",
					"name": "_rewardsDistribution",
					"type": "address"
				}
			],
			"name": "setRewardsDistribution",
			"outputs": [],
			"stateMutability": "nonpayable",
			"type": "function"
		},
		{
			"inputs": [
				{
					"internalType": "uint256",
					"name": "_rewardsDuration",
					"type": "uint256"
				}
			],
			"name": "setRewardsDuration",
			"outputs": [],
			"stateMutability": "nonpayable",
			"type": "function"
		},
		{
			"inputs": [
				{
					"internalType": "uint256",
					"name": "amount",
					"type": "uint256"
				}
			],
			"name": "stake",
			"outputs": [],
			"stateMutability": "nonpayable",
			"type": "function"
		},
		{
			"inputs": [],
			"name": "stakingToken",
			"outputs": [
				{
					"internalType": "address",
					"name": "",
					"type": "address"
				}
			],
			"stateMutability": "view",
			"type": "function"
		},
		{
			"inputs": [],
			"name": "totalSupply",
			"outputs": [
				{
					"internalType": "uint256",
					"name": "",
					"type": "uint256"
				}
			],
			"stateMutability": "view",
			"type": "function"
		},
		{
			"inputs": [
				{
					"internalType": "address",
					"name": "newOwner",
					"type": "address"
				}
			],
			"name": "transferOwnership",
			"outputs": [],
			"stateMutability": "nonpayable",
			"type": "function"
		},
		{
			"inputs": [
				{
					"internalType": "address",
					"name": "",
					"type": "address"
				}
			],
			"name": "userRewardPerTokenPaid",
			"outputs": [
				{
					"internalType": "uint256",
					"name": "",
					"type": "uint256"
				}
			],
			"stateMutability": "view",
			"type": "function"
		},
		{
			"inputs": [
				{
					"internalType": "uint256",
					"name": "amount",
					"type": "uint256"
				}
			],
			"name": "withdraw",
			"outputs": [],
			"stateMutability": "nonpayable",
			"type": "function"
		}
	]
}